:100000000C945D000C9485000C9485000C94850084
:100010000C9485000C9485000C9485000C9485004C
:100020000C9485000C9485000C9485000C9485003C
:100030000C9485000C9485000C9485000C9485002C
:100040000C948E060C9485000C9485000C9485000D
:100050000C9485000C9485000C9485000C9485000C
:100060000C9485000C94850000000008000201003B
:100070000003040700000000000000000102040863
:100080001020408001020408102001020408102002
:10009000040404040404040402020202020203032E
:1000A0000303030300000000250028002B000000CC
:1000B0000000240027002A00C00011241FBECFEF3B
:1000C000D8E0DEBFCDBF11E0A0E0B1E0E0ECF7E1A9
:1000D00002C005900D92A632B107D9F721E0A6E241
:1000E000B1E001C01D92A737B207E1F710E0CDE5FE
:1000F000D0E004C02197FE010E94B60BCC35D10799
:10010000C9F70E947D060C94940B0C94000040E00B
:1001100050E068EC73E486E291E00E94780540E0EC
:1001200050E068EC72E486E291E00E94580648ECE8
:1001300050E060E070E086E291E00C94BF040F9321
:100140001F9386E291E00E942F05672B682B692B95
:1001500089F486E291E00E9441058B019C014427CD
:100160005527BA01401B510B620B730B86E291E0DD
:100170000E94BF0486E291E01F910F910C94470505
:10018000CF92EF920F93CC24C39485E0E82E04E045
:1001900022E043E061E086E291E00E94EE050F91EB
:1001A000EF90CF90089508954F925F926F927F9253
:1001B0008F929F92AF92BF92CF92DF92EF92FF9277
:1001C0000F931F93CF93DF93EC01CC88DD88EE88EB
:1001D000FF8888899989AA89BB89C81AD90AEA0A35
:1001E000FB0A688D798D8A8D9B8D9B01AC010E94E5
:1001F000A7094B015C0168A179A18AA19BA19B0180
:10020000AC010E94D7079B01AC01C501B4010E945B
:1002100048080E94BA08C114D104E104F10409F0AD
:10022000B6C062307105810591050CF0D0C01B820B
:100230001C821D821E82188E198E1A8E1B8E1CAA7D
:100240001DAA1EAA1FAAC12CD12C7601C701B60176
:10025000DF91CF911F910F91FF90EF90DF90CF90A2
:10026000BF90AF909F908F907F906F905F904F90D6
:1002700008951016110612061306B4F46C157D05C8
:100280008E059F051CF42A812111A1C09B01AC01A0
:1002900088279927DC01821B930BA40BB50B8CAB31
:1002A0009DABAEABBFAB93C0011511052105310568
:1002B00009F48DC06C157D058E059F050CF087C077
:1002C0008A81882309F483C0309520951095019583
:1002D0001F4F2F4F3F4F0CAB1DAB2EAB3FAB77C02B
:1002E000011511052105310509F471C088249924EF
:1002F00054018C189D08AE08BF08681579058A0559
:100300009B050CF064C08A81811161C0DDCFCCAC4B
:10031000DDACEEACFFACA7019601C701B6010E94AF
:10032000D7072B013C01C501B4010E94F20820E06F
:1003300030E040E850E40E94A70920E030E040E8C7
:100340005FE30E94D7079B01AC01C301B2010E9489
:1003500048089B01AC01C701B6010E94D6073B01CA
:100360006C01FE01E05CFF4FE080F18002811381AF
:100370009701A8010E94A209181614F473018601BE
:10038000C701D8018CAF9DAFAEAFBFAF3AC00CA9CB
:100390001DA92EA93FA91C141D041E041F040CF442
:1003A00068CF10161106120613060CF099CF00271D
:1003B000112798010C191D092E093F0960177107B3
:1003C000820793070CF062CF2A8121115FCF8CA89E
:1003D0009DA8AEA8BFA881149104A104B10409F09E
:1003E00096CF88AD99ADAAADBBAD8CAF9DAFAEAF8A
:1003F000BFAF81E01C141D041E041F040CF080E03C
:100400008A833FEF831A930AA30AB30A8CAA9DAA90
:10041000AEAABFAA8CAC9DACAEACBFACC501B4015A
:100420000E94C1086B017C01CB82DC82ED82FE82DE
:10043000A501940160E074E284E799E40E94480811
:10044000688F798F8A8F9B8F2A812111FFCE9058D8
:10045000688F798F8A8F9B8FF9CEDC011796EC918C
:100460001797E93008F038C0F0E0E75CFD4F0C94D6
:10047000B60B420248024E0254025A026C0260025B
:100480006C026602ED91FC910684F785E02D0994DB
:10049000ED91FC910088F189E02DF9CFED91FC916F
:1004A0000288F389E02DF3CFED91FC910488F58962
:1004B000E02DEDCFED91FC910688F789E02DE7CF97
:1004C000ED91FC91008CF18DE02DE1CFED91FC914F
:1004D000028CF38DE02DDBCF0895CF93DF93EC01F9
:1004E000CB01BA0126E030E040E050E00E94970BDB
:1004F000623071058105910589F16CF46115710512
:1005000081059105D1F06130710581059105F9F002
:10051000DF91CF910895643071058105910561F1F6
:1005200024F1653071058105910591F7E881F98124
:100530000284F385E02D66E006C0E881F98102843B
:10054000F385E02D64E0CE01DF91CF910994E8813D
:10055000F9810284F385E02D65E0F5CFE881F9812A
:100560000284F385E02D61E0EECFE881F981028419
:10057000F385E02D63E0E7CFE881F9810284F3851C
:10058000E02D62E0E0CFDC01ED91FC912285338526
:10059000477055276627772741505109610971092E
:1005A000473051056105710560F4FA01E652FD4FCF
:1005B0000C94B60BE402E602E802EA02EC02EE0258
:1005C000F00261E0F901099465E0FCCF64E0FACF44
:1005D00066E0F8CF62E0F6CF6AE0F4CF68E0F2CFF1
:1005E00069E0F0CFCF92DF92EF92FF920F931F93CB
:1005F000CF93DF93DC011796CC91C43039F0C8302B
:1006000059F1C33019F0C63049F1C2E08C01085FDE
:100610001F4FF12CE12CC62ED12CD1E0F8016481C2
:10062000C6010E2C02C0959587950A94E2F780FDCD
:100630006D270F5F1F4F80810E94A807BFEFEB1A45
:10064000FB0AEC1658F3DF91CF911F910F91FF90A9
:10065000EF90DF90CF900895C4E0D8CFC3E0D6CF1D
:10066000CF93DF93EC01E881F9810284F385E02DDB
:100670008A8160E0811162E0CE010995E881F9810B
:100680000284F385E02D8A8161E0811163E0CE016F
:1006900009958CA59DA50E94FD06E881F98102843B
:1006A000F385E02D8A8160E0811162E0CE01DF9167
:1006B000CF9109940C948C06CF93DF93EC0120E04A
:1006C00030E0A901688D798D8A8D9B8D0E94A209E9
:1006D00018162CF4E8A9F9A9DF91CF910994EAA999
:1006E000FBA9FACFDC01ED91FC910284F385E02DAA
:1006F00043705527662777274230510561057105FC
:1007000071F0433051056105710559F041305105D3
:100710006105710511F062E0099463E0FDCF61E0CD
:10072000FBCF60E0F9CFCF93DF93EC01CB01BA01AF
:1007300023E030E040E050E00E94970B613071050B
:100740008105910599F06230710581059105A9F047
:10075000672B682B692BC1F4E881F9810284F3854A
:10076000E02D64E0CE01DF91CF910994E881F98119
:100770000284F385E02D61E0F5CFE881F981028400
:10078000F385E02D62E0EECFDF91CF910895DC019B
:10079000ED91FC910284F385E02D43705527662787
:1007A0007727423051056105710571F043305105DD
:1007B0006105710559F0413051056105710511F070
:1007C00065E0099466E0FDCF6AE0FBCF69E0F9CF10
:1007D000CF93DF93EC018F818823A1F0E881F98129
:1007E0000284F385E02D60E0CE0109958FA58F3F4F
:1007F00049F061E00E946C076EA58FA5DF91CF9153
:100800000C94A807DF91CF910895CF93DF93EC016B
:100810008F81882351F161E088850E946C0761E037
:1008200089850E946C078F81843011F08830B1F483
:1008300061E08A850E946C0761E08B850E946C07ED
:100840008FA58F3F91F061E00E946C076EA581E05B
:1008500068278FA5DF91CF910C94A807833011F002
:10086000863071F761E08A85E9CFDF91CF910895F5
:100870004F925F926F927F928F929F92AF92BF92B0
:10088000CF92DF92EF92FF92CF93DF93EC016A0158
:100890007B0120E030E0A901CB01B6010E944308B2
:1008A00087FF04C0F7FAF094F7F8F09488A099A0B5
:1008B000AAA0BBA0A7019601C501B4010E944308EC
:1008C000882309F44DC06CA97DA98EA99FA90E9417
:1008D000F2082B013C01A7019601C501B4010E9459
:1008E00048089B01AC01C301B2010E94A7090E9404
:1008F000BA086CAB7DAB8EAB9FABA701960160E0F5
:1009000070E080E090E40E9448080E941A0A26E500
:100910003EE04DE25FE30E94A70920E034E244E7B5
:1009200059E40E94A70968AF79AF8AAF9BAFC8A20C
:10093000D9A2EAA2FBA2E881F9810084F185E02D29
:10094000CE01DF91CF91FF90EF90DF90CF90BF90DD
:10095000AF909F908F907F906F905F904F90099491
:10096000DF91CF91FF90EF90DF90CF90BF90AF904D
:100970009F908F907F906F905F904F9008950F930E
:100980001F93DC0154960D911D912D913C91579729
:10099000041715072607370771F0FC01448B558BA8
:1009A000668B778B0190F081E02D0084F185E02D3E
:1009B0001F910F9109941F910F910895CF92DF928B
:1009C000EF92FF92CF93DF93EC018B819C81AD81FD
:1009D000BE81892B8A2B8B2B41F480E0DF91CF9154
:1009E000FF90EF90DF90CF9008950E94D8066B01A2
:1009F0007C0188A599A5AAA5BBA5B701A601481B9E
:100A0000590B6A0B7B0B8B819C81AD81BE81481792
:100A100059076A077B0708F388899989AA89BB89DE
:100A20002A812223C1F00196A11DB11D888B998BCB
:100A3000AA8BBB8B488959896A897B89E881F981AE
:100A40000484F585E02DCE010995C8A6D9A6EAA6AD
:100A5000FBA681E0C3CF0197A109B109E7CF0F93AE
:100A60001F93FC016489758986899789008911899A
:100A700022893389601B710B820B930B1F910F919D
:100A80000895FC01608971898289938908950F9383
:100A90001F93CF93DF93EC010E94DE04882339F08B
:100AA000E881F9810084F185E02DCE01099520E0EF
:100AB00030E0A901688D798D8A8D9B8D0E94430855
:100AC000811114C081E00C891D892E893F894889D4
:100AD00059896A897B89041715072607370709F49E
:100AE00080E0DF91CF911F910F91089581E0F9CFC0
:100AF000CF92DF92EF92FF920F931F93CF93DF93EA
:100B0000EC016A017B0120E030E0A901CB01B601D4
:100B10000E94430887FF04C0F7FAF094F7F8F094B6
:100B2000A70196016C8D7D8D8E8D9F8D0E9443084F
:100B3000882309F44AC0CC8EDD8EEE8EFF8E8E01A6
:100B4000005C1F4FA701960160E074E284E799E41E
:100B50000E944808F80160837183828393838CA983
:100B60009DA9AEA9BFA9181619061A061B066CF591
:100B7000688D798D8A8D9B8D9B01AC010E94A709A0
:100B80006B017C0168A179A18AA19BA19B01AC01A9
:100B90000E94D7079B01AC01C701B6010E9448081B
:100BA0000E94BA086CAB7DAB8EAB9FABE881F9813C
:100BB0000084F185E02DCE01DF91CF911F910F913F
:100BC000FF90EF90DF90CF900994DF91CF911F912C
:100BD0000F91FF90EF90DF90CF900895CF92EF921A
:100BE0000F93CF93DF93EC018AE091E099838883A0
:100BF0006F83188A198A1A8A1B8A1C8A1D8A1E8A80
:100C00001F8A188E198E1A8E1B8E1C8E1D8E1E8E9C
:100C10001F8E18A219A21AA21BA280E090E0A0E8E1
:100C2000BFE38CA39DA3AEA3BFA31B821C821D8226
:100C30001E8261E070E07DA76CA73FEF3FA718A67A
:100C400019A61AA61BA6488729870A87EB861EA61F
:100C50001CAA1DAA1EAA1FAA18AE19AE1AAE1BAE58
:100C60001CAE1DAE1EAE1FAEFE01E05CFF4F8083CA
:100C70009183A283B3831A821C861D861E861F86DB
:100C8000CC2019F0CE010E94050440E050E060E85D
:100C90007FE3CE010E94380440E050E060E87FE34B
:100CA000CE01DF91CF910F91EF90CF900C9478050A
:100CB000CF92DF92EF92FF92CF93DF93EC016A0124
:100CC0007B0120E030E0A901CB01B6010E9443087E
:100CD000882359F0B701A601CE01DF91CF91FF9093
:100CE000EF90DF90CF900C943804DF91CF91FF907C
:100CF000EF90DF90CF90089508950E9408070E941A
:100D00007C060E948700C0E0D0E00E949F002097F0
:100D1000E1F30E940000F9CF0C940B0B1F920F928D
:100D20000FB60F9211242F933F938F939F93AF93FE
:100D3000BF9380916B0190916C01A0916D01B09176
:100D40006E0130916A0123E0230F2D3758F501968B
:100D5000A11DB11D20936A0180936B0190936C01DA
:100D6000A0936D01B0936E0180916F01909170011D
:100D7000A0917101B09172010196A11DB11D8093E6
:100D80006F0190937001A0937101B0937201BF91B4
:100D9000AF919F918F913F912F910F900FBE0F9028
:100DA0001F90189526E8230F0296A11DB11DD2CFE2
:100DB0003FB7F89480916F0190917001A0917101FB
:100DC000B091720126B5A89B05C02F3F19F001967E
:100DD000A11DB11D3FBFBA2FA92F982F8827BC0195
:100DE000CD01620F711D811D911D42E0660F771FBD
:100DF000881F991F4A95D1F708958230910538F0E0
:100E0000880F991F880F991F05970197F1F708958B
:100E1000789484B5826084BD84B5816084BD85B5D5
:100E2000826085BD85B5816085BDEEE6F0E080819C
:100E300081608083E1E8F0E01082808182608083BD
:100E4000808181608083E0E8F0E080818160808340
:100E5000E1EBF0E0808184608083E0EBF0E0808172
:100E600081608083EAE7F0E0808184608083808114
:100E700082608083808181608083808180688083BC
:100E80001092C1000895833081F028F4813099F0E8
:100E90008230A9F008958730A9F08830C9F08430F5
:100EA000B1F4809180008F7D03C0809180008F77A6
:100EB00080938000089584B58F7784BD089584B5AC
:100EC0008F7DFBCF8091B0008F778093B000089525
:100ED0008091B0008F7DF9CFCF93DF9390E0FC013C
:100EE000E458FF4F249180579F4FFC018491882341
:100EF000C9F090E0880F991FFC01E255FF4FA591C2
:100F0000B491FC01EC55FF4FC591D49161110DC016
:100F10009FB7F8948C91209582238C938881282305
:100F200028839FBFDF91CF910895623051F49FB71E
:100F3000F8943C91822F809583238C93E8812E2B0B
:100F4000EFCF8FB7F894EC912E2B2C938FBFEACF75
:100F50001F93CF93DF93282F30E0F901E859FF4F1B
:100F60008491F901E458FF4FD491F901E057FF4F04
:100F7000C491CC23A9F0162F81110E944307EC2FB6
:100F8000F0E0EE0FFF1FEC55FF4FA591B4918FB726
:100F9000F894EC91111108C0D095DE23DC938FBF3B
:100FA000DF91CF911F910895DE2BF8CF5058BB27CA
:100FB000AA270E94EE070C9468090E945A0938F08B
:100FC0000E94610920F039F49F3F19F426F40C9433
:100FD00057090EF4E095E7FB0C945109E92F0E94A4
:100FE000790958F3BA17620773078407950720F049
:100FF00079F4A6F50C949B090EF4E0950B2EBA2F0C
:10100000A02D0B01B90190010C01CA01A00111240E
:10101000FF27591B99F0593F50F4503E68F11A16BA
:10102000F040A22F232F342F4427585FF3CF46954B
:1010300037952795A795F0405395C9F77EF41F166D
:10104000BA0B620B730B840BBAF09150A1F0FF0F37
:10105000BB1F661F771F881FC2F70EC0BA0F621F23
:10106000731F841F48F4879577956795B795F79513
:101070009E3F08F0B0CF9395880F08F09927EE0FA8
:101080009795879508950E942D0908F481E00895A9
:101090000E945C080C9468090E94610958F00E9443
:1010A0005A0940F029F45F3F29F00C94510951117D
:1010B0000C949C090C9457090E94790968F39923B0
:1010C000B1F3552391F3951B550BBB27AA27621744
:1010D0007307840738F09F5F5F4F220F331F441F51
:1010E000AA1FA9F335D00E2E3AF0E0E832D0915085
:1010F0005040E695001CCAF72BD0FE2F29D0660F72
:10110000771F881FBB1F261737074807AB07B0E8B4
:1011100009F0BB0B802DBF01FF2793585F4F3AF0BA
:101120009E3F510578F00C9451090C949C095F3F47
:10113000E4F3983ED4F3869577956795B795F79540
:101140009F5FC9F7880F911D9695879597F9089528
:10115000E1E0660F771F881FBB1F621773078407C4
:10116000BA0720F0621B730B840BBA0BEE1F88F7D3
:10117000E09508950E94C1086894B1110C949C09EF
:1011800008950E94810988F09F5798F0B92F9927F8
:10119000B751B0F0E1F0660F771F881F991F1AF062
:1011A000BA95C9F714C0B13091F00E949B09B1E023
:1011B00008950C949B09672F782F8827B85F39F022
:1011C000B93FCCF3869577956795B395D9F73EF4FB
:1011D00090958095709561957F4F8F4F9F4F0895A3
:1011E000E89409C097FB3EF49095809570956195C1
:1011F0007F4F8F4F9F4F9923A9F0F92F96E9BB2777
:101200009395F695879577956795B795F111F8CFF2
:10121000FAF4BB0F11F460FF1BC06F5F7F4F8F4F5D
:101220009F4F16C0882311F096E911C0772321F053
:101230009EE8872F762F05C0662371F096E8862FEB
:1012400070E060E02AF09A95660F771F881FDAF742
:10125000880F9695879597F90895990F0008550F6F
:10126000AA0BE0E8FEEF16161706E807F907C0F02C
:1012700012161306E407F50798F0621B730B840B34
:10128000950B39F40A2661F0232B242B252B21F40E
:1012900008950A2609F4A140A6958FEF811D811DAE
:1012A000089597F99F6780E870E060E008959FEFE8
:1012B00080EC089500240A941616170618060906ED
:1012C000089500240A9412161306140605060895BC
:1012D000092E0394000C11F4882352F0BB0F40F444
:1012E000BF2B11F460FF04C06F5F7F4F8F4F9F4F84
:1012F000089557FD9058440F551F59F05F3F71F006
:101300004795880F97FB991F61F09F3F79F087956C
:101310000895121613061406551FF2CF4695F1DFF5
:1013200008C0161617061806991FF1CF8695710585
:10133000610508940895E894BB2766277727CB01B9
:1013400097F908950E942D0908F48FEF08950E94DF
:10135000BA090C9468090E945A0938F00E94610980
:1013600020F0952311F00C9451090C945709112485
:101370000C949C090E94790970F3959FC1F3950F15
:1013800050E0551F629FF001729FBB27F00DB11D09
:10139000639FAA27F00DB11DAA1F649F6627B00D99
:1013A000A11D661F829F2227B00DA11D621F739F82
:1013B000B00DA11D621F839FA00D611D221F749F90
:1013C0003327A00D611D231F849F600D211D822FD7
:1013D000762F6A2F11249F5750409AF0F1F08823FE
:1013E0004AF0EE0FFF1FBB1F661F771F881F91502B
:1013F0005040A9F79E3F510580F00C9451090C9480
:101400009C095F3FE4F3983ED4F386957795679502
:10141000B795F795E7959F5FC1F7FE2B880F911D54
:101420009695879597F9089519F416F40C94570931
:101430000C945A0A0E948109B8F39923C9F3B6F3B0
:101440009F57550B87FF0E94680A0024A0E640EAD8
:10145000900180585695979528F4805C660F771F09
:10146000881F20F026173707480730F4621B730BDC
:10147000840B202931294A2BA695179407942025FF
:1014800031254A2758F7660F771F881F20F0261747
:101490003707480730F4620B730B840B200D311DA6
:1014A000411DA09581F7B901842F9158880F969519
:1014B000879508959F3F31F0915020F48795779557
:1014C0006795B795880F911D9695879597F908951B
:1014D00091505040660F771F881FD2F708950F93E1
:1014E0001F93CF93DF938230910510F482E090E058
:1014F000E0917501F091760130E020E0B0E0A0E0ED
:10150000309799F42115310509F44AC0281B390B8D
:1015100024303105D8F58A819B816115710589F1E7
:10152000FB0193838283FE0111C0408151810281BE
:10153000138148175907E0F04817590799F4109795
:1015400061F012960C93129713961C933296CF016A
:10155000DF91CF911F910F91089500937501109322
:101560007601F4CF2115310551F04217530738F0B9
:10157000A901DB019A01BD01DF01F801C1CFEF0133
:10158000F9CF9093760180937501CDCFFE01E20FE4
:10159000F31F819391932250310939832883D7CF48
:1015A0002091730130917401232B41F420910201A9
:1015B0003091030130937401209373012091000155
:1015C000309101012115310541F42DB73EB740910D
:1015D000040150910501241B350BE0917301F0913A
:1015E0007401E217F307A0F42E1B3F0B28173907ED
:1015F00078F0AC014E5F5F4F2417350748F04E0F6F
:101600005F1F5093740140937301819391939FCF17
:10161000F0E0E0E09CCFCF93DF930097E9F0FC018E
:10162000329713821282A0917501B0917601ED017B
:1016300030E020E01097A1F420813181820F931FC8
:1016400020917301309174012817390709F061C0A6
:10165000F0937401E0937301DF91CF910895EA0153
:10166000CE17DF07E8F54A815B819E0141155105E0
:10167000B1F7E901FB83EA8349915991C40FD51F62
:10168000EC17FD0761F4808191810296840F951F0C
:10169000E90199838883828193819B838A83F0E027
:1016A000E0E012968D919C9113970097B9F52D91DA
:1016B0003C911197CD010296820F931F20917301E7
:1016C000309174012817390739F6309751F5109287
:1016D000760110927501B0937401A0937301BCCF91
:1016E000D383C28340815181840F951FC817D907C6
:1016F00061F44E5F5F4F88819981480F591F518374
:1017000040838A819B81938382832115310509F06F
:10171000B0CFF0937601E09375019ECFFD01DC011F
:10172000C0CF13821282D7CFF8940C94DE0B052E13
:1017300097FB1EF400940E94AE0B57FD07D00E9449
:10174000BC0B07FC03D04EF40C94AE0B50954095A7
:10175000309521953F4F4F4F5F4F0895909580955D
:10176000709561957F4F8F4F9F4F0895EE0FFF1F2C
:101770000590F491E02D0994A1E21A2EAA1BBB1B3F
:10178000FD010DC0AA1FBB1FEE1FFF1FA217B3074D
:10179000E407F50720F0A21BB30BE40BF50B661F63
:1017A000771F881F991F1A9469F760957095809527
:1017B00090959B01AC01BD01CF010895F894FFCF36
:1017C00000007701800000000000E8030504D3005A
:1017D0005A03D400F2022D025C0330037203930318
:0617E000C7036D02C30205
:00000001FF
