:100000000C945A000C9482000C9482000C94820090
:100010000C9482000C9482000C9482000C94820058
:100020000C9482000C9482000C9482000C94820048
:100030000C9482000C9482000C9482000C94820038
:100040000C946B0C0C9482000C94B90A0C94EB0A7F
:100050000C9482000C9482000C9482000C94820018
:100060000C945D080C94820000000008000201005E
:100070000003040700000000000000000102040863
:100080001020408001020408102001020408102002
:10009000040404040404040402020202020203032E
:1000A0000303030300000000250028002B00AC0020
:1000B000D5051B0B11241FBECFEFD8E0DEBFCDBF8F
:1000C00011E0A0E0B1E0ECEBFBE102C005900D9285
:1000D000A832B107D9F722E0A8E2B1E001C01D9231
:1000E000A63BB207E1F710E0CAE5D0E004C02197D3
:1000F000FE010E94D60DC735D107C9F70E945C0CDE
:100100000C94B10D0C94000026E040E855E260E04C
:1001100070E080E192E00E94570A61E08DE391E097
:100120000E949D01682F70E04AE050E080E192E07B
:100130000C942A0C88E291E00E944401AB01BC01BE
:1001400020E130E080E192E00E94490C68EE73E02B
:1001500080E090E00C94DA0CEF920F9346E451E0CB
:1001600060E48DE391E00E947501EE24E39400E0E9
:1001700021E050E040E06DE371E088E291E00E9410
:10018000C4000F91EF900895EF920F93FC01118A34
:10019000128A138A148A7183608313821282E3861F
:1001A00051874087048722870F91EF900895EF923F
:1001B0000F931F93CF93DF9300D0CDB7DEB7DC0151
:1001C0009B0118969C91189719968C911997998371
:1001D0008A83ED91FC9111973097A1F0042F10E0E4
:1001E0001B964C9150E0E12CBE016F5F7F4FCF0119
:1001F0000E947D020F900F90DF91CF911F910F9180
:10020000EF9008951296ED91FC911397309751F16C
:1002100016966D917C911797042F10E01B964C91C8
:1002200050E06330710571F4816089839A834F5F78
:100230005F4FEE24EA94BE016F5F7F4FCF010E94B3
:100240002B04D8CF6115710519F490689983F1CF0B
:100250006230710511F49F77F9CF6130710549F76C
:10026000906CF4CF14968D919C911597009751F056
:10027000042F10E01B964C91BE016F5F7F4F0E94D0
:100280006B04B8CF80E0B6CFCF93DF93EC01BC0115
:10029000635F7F4F4A850E94D700882301F14A851A
:1002A00050E030E020E060E070E0CB01241735073B
:1002B000CCF4982F872F762F6627EC85E1110AC0A2
:1002C000FA01E21BF30BEC0FFD1FE4856E2B2F5F91
:1002D0003F4FECCFFE01E20FF31FE585F7CF6FEF45
:1002E0007FEFCB01DF91CF910895FC0160835283B2
:1002F0004183138280E290E0958384830895CF93B5
:10030000DF93EC018B81882381F0688189819A8158
:100310000E94520589819A810E94D20591E0811143
:1003200090E0892FDF91CF91089561E0CE010E9486
:100330009D01982F8111E9CFF4CF1F93CF93DF93C5
:10034000EC01162F89819A810E94400581E08B8300
:10035000112331F0CE01DF91CF911F910C947F01D9
:1003600081E0DF91CF911F9108959F92AF92BF924C
:10037000CF92DF92EF92FF920F931F93CF93DF9371
:10038000EC015B016A01922E9A012E0D3F1D8C81BA
:100390009D818217930710F490E01EC068818981C7
:1003A0009A810E945205E114F10419F589819A811C
:1003B000DC01ED91FC910280F381E02DA601B501F5
:1003C0000995C816D90641F7692D89819A810E943D
:1003D0005C0591E08111E0CF892FDF91CF911F91D2
:1003E0000F91FF90EF90DF90CF90BF90AF909F90D4
:1003F000089501151105D1F289819A81DC01ED91F1
:10040000FC910280F381E02DA701B80109958E15BA
:100410009F0511F6CBCFCF92DF92EF92FF920F9311
:100420001F93CF93DF937C016B018A01DC016C91F8
:1004300011968D919C910E94C2058017110691F42E
:10044000E6010C0D1D1DC017D107B1F0F701818128
:100450009281DC01ED91FC910284F385E02D0995F8
:100460008993F1CF80E0DF91CF911F910F91FF90A1
:10047000EF90DF90CF90089581E0F5CF9F92AF92FB
:10048000BF92CF92DF92EF92FF920F931F93CF9381
:10049000DF936C015B017A01922ED0E0C0E0CE15B3
:1004A000DF05F0F4F6018481958187010C1B1D0B9B
:1004B0008017910708F48C01C701801B910B20E085
:1004C000C817D90708F0292DA801B5016C0F7D1FA9
:1004D000C6010E940B02882321F0C00FD11FDFCF7D
:1004E00081E0DF91CF911F910F91FF90EF90DF900E
:1004F000CF90BF90AF909F900895AF92BF92CF9250
:10050000DF92EF92FF920F931F93CF93DF93EC0153
:10051000690158012E2DF12CE12C10E000E00E9421
:10052000B501882381F021E0A501B601CE01DF915C
:10053000CF911F910F91FF90EF90DF90CF90BF90E0
:10054000AF900C943E0280E0DF91CF911F910F910C
:10055000FF90EF90DF90CF90BF90AF9008956F9293
:100560007F928F929F92AF92BF92CF92DF92EF9243
:10057000FF920F931F93CF93DF93EC018B016A01DE
:1005800088819981892B59F141155105C9F0FB01E9
:1005900080818EBDCA01019741F031810DB407FE03
:1005A000FDCF2EB53EBD2193F6CFF1E0CF1AD10895
:1005B0000C0D1D1D0DB407FEFDCF8EB5F801808317
:1005C000DF91CF911F910F91FF90EF90DF90CF902F
:1005D000BF90AF909F908F907F906F900895888587
:1005E000998577247394892B11F080E8782EF8018F
:1005F00080818721882483948111812C2C813D81E5
:100600004E815F8160E271EA87E090E00E94B40D64
:10061000E22EC00ED11EA22EB12CC016D10681F240
:10062000F8016080F72C912CEE2019F0C5010E9492
:10063000130D8A85982F977F09F046C08D858F3FCF
:1006400089F0962D9F2181E009F480E0881551F012
:10065000EF85F8898F89992389F19081892B80838F
:1006600088248394E989FA898081998D892B8083F4
:10067000EE2019F0C5010E94130D8E858F3F39F0D1
:10068000EB89FC898081988D892309F09F28E9896D
:10069000FA899081898D80958923808388859985C1
:1006A000892B09F06AC0FF0CF110BECF8E858F3FF9
:1006B00011F0F80190820F5F1F4FAFCF90818095AE
:1006C00089238083812CCECF8C30A1F58D858F3FFF
:1006D00049F0EF85F8898F89962D9F2139F1908116
:1006E000892B8083E989FA899081898D8095892376
:1006F0008083EE2019F0C5010E94130DE989FA8963
:100700008081998D892B8083EE2019F0C5010E948C
:10071000130D8E858F3F09F4C1CFEB89FC89808151
:10072000988D892309F4BACF9F28B8CF90818095FE
:100730008923D7CFE989FA898081998D892B808394
:10074000EE2019F0C5010E94130D8D858F3F49F0F1
:10075000EF85F8898F89962D9F2159F09081892BFB
:100760008083E989FA899081898D809589238083A6
:10077000D0CF908180958923F3CFF69495CFCF93F6
:10078000DF931F92CDB7DEB7698341E050E0BE0131
:100790006F5F7F4F0E94AF0289810F90DF91CF91F1
:1007A0000895DC012D913C911197232BD9F01296DD
:1007B000ED91FC913081218180914501882381F068
:1007C0009FB7F89480914501813069F48DB380938F
:1007D00043014DB380914401809584238DBB9FBF1D
:1007E0003CBD2DBD089590934301FACFFC0180815B
:1007F0009181892B81F080914501882361F09FB719
:10080000F8942091450180914301213019F48DBB6A
:100810009FBF08958FBF0895FC0183858F3F11F01E
:100820000C94820D0895CF93DF93EC010E94D103C5
:1008300070E060E0CE01DF91CF910C940C04CF9377
:10084000DF93EC0161E070E00E940C04CE01DF91C7
:10085000CF910C94F6037F928F929F92AF92BF92AA
:10086000CF92DF92EF92FF920F931F93CF93DF937C
:100870006C01762E872E5A01F22E932E0E941304BD
:10088000C72DD82DAC0EBD1ECA15DB0569F4CF2DC2
:10089000D92D0C0F1D1FC017D10759F06E2DC601A1
:1008A0000E94BF038993F7CF6991C6010E94BF03DD
:1008B000EBCFC6010E941F0481E0DF91CF911F9111
:1008C0000F91FF90EF90DF90CF90BF90AF909F90EF
:1008D0008F907F9008950F931F93DC0118968C9151
:1008E0001897882359F01496ED91FC91159780E0A4
:1008F000309721F019968D919C9109951F910F9138
:10090000089590E080E0089580917A0190917B01B4
:10091000891B990B089590917B0180917A012FEFAB
:100920003FEF981748F4E92FF0E0E458FE4F20819C
:1009300030E09F5F90937B01C9010895E0917B01B6
:1009400080917A01E81730F4F0E0E458FE4F80819E
:1009500090E008958FEF9FEF08950895CF93DF9370
:10096000EC01E0915201F09153013097F1F0909138
:100970007B0180917A019817C0F090E0292F30E038
:100980002617370754F4DE01A20FB31F4C912458E9
:100990003E4FD9014C939F5FF1CF10927B01609342
:1009A0007A01CB01DF91CF910994DF91CF91089526
:1009B000E0915401F0915501309729F010925801BF
:1009C0001092570109940895CF93DF931F92CDB7EA
:1009D000DEB76983209156012223F9F02091570157
:1009E000203258F021E030E0FC013383228390E094
:1009F00080E00F90DF91CF91089580915801E82F0A
:100A0000F0E0E75AFE4F998190838F5F8093580101
:100A10008093570181E090E0ECCF61E0CE01019638
:100A20000E941106F7CFCF92DF92EF92FF920F93C1
:100A30001F93CF93DF937C01CB018A012091560154
:100A4000222389F0EB016B01C40ED51ECC15DD0508
:100A500069F06991D701ED91FC910190F081E02D51
:100A6000C7010995F3CF642F0E941106C801DF91D9
:100A7000CF911F910F91FF90EF90DF90CF9008954D
:100A800010927B0110927A01109258011092570136
:100A90000E94E60588ED94E00E943E068EEA94E00E
:100AA0000C94390681E0809356016093790110928D
:100AB00058011092570108950F93062F21E040919D
:100AC000570169E571E0809179010E943D0710921C
:100AD000580110925701109256010F9108954F92AC
:100AE0005F926F927F92AF92BF92CF92EF92FF92FE
:100AF0000F931F93CF93DF935C01F62ED42F280121
:100B00003901EE2019F10E945205CE2DC43008F0B3
:100B1000C3E0C150B8F028E0C29FC0011124A30176
:100B2000920104C056954795379527958A95D2F737
:100B3000B901D501ED91FC910190F081E02DC50145
:100B40000995E7CF60E0C5010E945C054D2FD132C9
:100B500008F040E22C2D6CE771E08F2D0E945F06BB
:100B600010927B0180937A01DF91CF911F910F91B9
:100B7000FF90EF90CF90BF90AF907F906F905F907D
:100B80004F900895CF92EF920F931F93C22EE12CB6
:100B900000E010E098010E946F051F910F91EF9007
:100BA000CF90089561E00C945C05E6E4F1E01382D7
:100BB000128288EE93E0A0E0B0E084839583A68360
:100BC000B78384E091E091838083089510920F02AF
:100BD00081E080930D0210920C0261E082E10E949C
:100BE000820D61E083E10E94820DE9EBF0E08081FB
:100BF0008E7F808380818D7F808388E48093B8009E
:100C000085E48093BC000895ECEBF0E080818A7B62
:100C1000808360E082E10E94820D60E083E10C94B9
:100C2000820D2091BE01260F3327331F213231055B
:100C3000E4F420910F022430D1F4FC0190E080E034
:100C4000861760F4A091BE012191AC0140545E4F23
:100C5000A40FB52FB11D2C930196F2CF8091BE0148
:100C6000680F6093BE0180E0089581E0089582E0FE
:100C700008959093030280930202089590930502D1
:100C800080930402089585EC8093BC0010920F02BB
:100C90000895CF93DF9391E090930702882361F04A
:100CA000C091B800D091BA000E9404060E94E605E7
:100CB000D093BA00C093B800DF91CF9108954F92BE
:100CC0005F926F927F928F929F92AF92BF92CF92DC
:100CD000DF92EF92FF920F931F93CF93DF93D82F62
:100CE000162F072FC42FB22E413258F50E94B50C93
:100CF0006B017C0180910F028823B1F18091080281
:100D000090910902A0910A02B0910B02892B8A2BC3
:100D10008B2B81F30E94B50C409008025090090281
:100D200060900A0270900B026C197D098E099F0970
:100D30004616570668067906E8F6809106020E9474
:100D40004906C0E08C2FDF91CF911F910F91FF904A
:100D5000EF90DF90CF90BF90AF909F908F907F905B
:100D60006F905F904F90089581E080930F02B09252
:100D70000D029FEF90939C011092E1019C0F9093C4
:100D8000E00180930E0280910E02DD0FD82BD093EC
:100D90000E0280910C02813009F05AC010920C02B0
:100DA0000E94B50C6B017C0180910E028093BB0008
:100DB0008091080290910902A0910A02B0910B0261
:100DC000892B8A2B8B2B79F58091BC0083FDECCF8E
:100DD00085EC8093BC000E94B50C6B017C01809176
:100DE0000F028130B9F58091080290910902A0911B
:100DF0000A02B0910B02892B8A2B8B2B81F30E9464
:100E0000B50C8090080290900902A0900A02B09060
:100E10000B026C197D098E099F0986169706A80694
:100E2000B906E8F68ACF0E94B50C8090080290902F
:100E30000902A0900A02B0900B026C197D098E097C
:100E40009F0986169706A806B90608F0BDCF75CF8C
:100E500085EEBFCF8091E1018C1710F4C091E101C4
:100E6000A2EEB1E0912FE12FF02F8E2F891B8C176E
:100E700008F068CF8D918193F8CF4F925F926F9277
:100E80007F928F929F92AF92BF92EF92FF920F93B9
:100E90001F93CF93DF93C82FF62EE72E142FD22F58
:100EA00081E0413260F50E94B50C4B015C018091FC
:100EB0000F02882399F18091080290910902A09174
:100EC0000A02B0910B02892B8A2B8B2B81F30E9493
:100ED000B50C409008025090090260900A02709090
:100EE0000B02681979098A099B0946165706680694
:100EF0007906E8F6809106020E94490685E0DF91B6
:100F0000CF911F910F91FF90EF90BF90AF909F9066
:100F10008F907F906F905F904F90089582E08093C4
:100F20000F0200930D028FEF80939C011092E1015C
:100F30001093E0019F2DA2EEB1E0EF2DFE2D8E2F3C
:100F4000891B811718F481918D93F9CF10920E02AD
:100F500080910E02CC0FC82BC0930E0280910C0220
:100F6000813009F041C010920C020E94B50C4B0177
:100F70005C0180910E028093BB00809108029091E9
:100F80000902A0910A02B0910B02892B8A2B8B2BAC
:100F9000B9F48091BC0083FDECCF85EC8093BC005C
:100FA0000E94B50C4B015C01DD2321F080910F0202
:100FB0008230E1F080919C018F3FC9F580E09FCFA6
:100FC0000E94B50C009108021091090220910A02BA
:100FD00030910B02681979098A099B0906171707CE
:100FE00028073907B0F686CF85EED8CF8091080262
:100FF00090910902A0910A02B0910B02892B8A2BD1
:101000008B2B91F20E94B50C0091080210910902FD
:1010100020910A0230910B02681979098A099B090B
:10102000061717072807390708F0BECF63CF80914E
:101030009C01803231F080919C01803321F084E06A
:101040005ECF82E05CCF83E05ACF85ED8093BC0019
:101050008091080290910902A0910A02B0910B02BE
:101060000796A11DB11D23E0B695A7959795879585
:101070002A95D1F72091BC0024FF1CC040910802A2
:101080005091090260910A0270910B02452B462B88
:10109000472B81F30097A105B10541F02AE22A957B
:1010A000F1F700C00197A109B109E4CF80910602D0
:1010B0000C94490610920F0208951F920F920FB6DA
:1010C0000F9211242F933F934F935F936F937F93CE
:1010D0008F939F93AF93BF93EF93FF938091B9004A
:1010E000887F803609F44CC008F03FC0883209F48C
:1010F000A8C018F5803109F49CC0B8F4882309F41D
:10110000F9C0883009F495C0FF91EF91BF91AF917C
:101110009F918F917F916F915F914F913F912F910F
:101120000F900FBE0F901F901895883109F489C059
:10113000803251F780939C0115C0803409F49EC021
:1011400048F48033B9F38833F9F680939C010E9408
:101150004306DACF803509F485C0883509F496C096
:10116000883491F60E942508CFCF883909F48CC0C5
:1011700038F5883729F050F4883611F0803721F699
:1011800083E080930F0210929D0157C0883809F4C4
:101190007BC0803919F0803809F0B6CF80919D016D
:1011A000803208F071C0E0919D0181E08E0F809344
:1011B0009D018091BB00F0E0E256FE4F80833DC070
:1011C000803B39F0E0F4803A09F479C0883A09F0BC
:1011D0009BCF84E080930F021092BF011092BE015A
:1011E000E0910402F091050209958091BE01811100
:1011F0000FC081E08093BE011092C00109C0803C05
:1012000009F476C0883C09F473C0883B09F07CCFB0
:10121000E091BF0181E08E0F8093BF01F0E0E054C8
:10122000FE4F80818093BB009091BF018091BE01F1
:1012300029C080910E028093BB0085EC8093BC0096
:1012400063CF9091E1018091E001981758F5E0910A
:10125000E10181E08E0F8093E101F0E0EE51FE4F5D
:101260008081E9CFE091E10181E08E0F8093E1017F
:101270008091BB00F0E0EE51FE4F80839091E10140
:101280008091E0019817C8F285E8D8CFE091E1019C
:1012900081E08E0F8093E1018091BB00F0E0EE5180
:1012A000FE4F808380910D0281115CCF81E080939D
:1012B0000C0284EA8093BC0010920F0225CF0E949A
:1012C000430680919D01803230F4E0919D01F0E071
:1012D000E256FE4F108260919D0170E0E0910202A3
:1012E000F09103028EE991E0099510929D010CCFD7
:1012F00085ECE0CF10929C0135CFFC01918D228DC1
:10130000892F90E0805C9F4F821B91098F739927F2
:101310000895FC01918D828D981731F0828DE80F30
:10132000F11D858D90E008958FEF9FEF0895FC01EA
:10133000918D828D981761F0A28DAE0FBF2FB11DD8
:101340005D968C91928D9F5F9F73928F90E0089530
:101350008FEF9FEF0895FC01538D448D252F30E0D2
:10136000842F90E0821B930B541710F0CF960895B2
:101370000197089581E19BE0892B49F080E090E09E
:10138000892B29F00E94110B81110C940000089503
:10139000FC01A48DA80FB92FB11DA35ABF4F2C91EA
:1013A000848D90E001968F739927848FA689B789E1
:1013B0002C93A089B1898C91837080648C93938DD8
:1013C000848D981306C00288F389E02D80818F7D7B
:1013D00080830895CF93DF93EC01888D8823B9F043
:1013E000AA89BB89E889F9898C9185FD03C0808130
:1013F00086FD0DC00FB607FCF7CF8C9185FFF2CFAD
:10140000808185FFEDCFCE010E94C809E9CFDF9131
:10141000CF910895EF92FF920F931F93CF93DF9395
:10142000EC0181E0888F9B8D8C8D98131AC0E88920
:10143000F989808185FF15C09FB7F894EE89FF89EF
:101440006083E889F98980818370806480839FBF8D
:1014500081E090E0DF91CF911F910F91FF90EF908D
:101460000895F62E0B8D10E00F5F1F4F0F7311279D
:10147000E02E8C8D8E110CC00FB607FCFACFE889D8
:10148000F989808185FFF5CFCE010E94C809F1CF8F
:10149000EB8DEC0FFD2FF11DE35AFF4FF0829FB74C
:1014A000F8940B8FEA89FB8980818062CFCFCF923D
:1014B000DF92EF92FF921F93CF93DF93EC016A01CB
:1014C0007B01122FE889F98982E08083C11481EEC3
:1014D000D806E104F104A1F060E079E08DE390E04A
:1014E000A70196010E94B40D21503109410951090B
:1014F0005695479537952795211580E1380798F03F
:10150000E889F989108260E874E88EE190E0A7012B
:1015100096010E94B40D2150310941095109569597
:10152000479537952795EC85FD853083EE85FF85BA
:101530002083188EEC89FD891083EA89FB898081DC
:1015400080618083EA89FB89808188608083EA8961
:10155000FB89808180688083EA89FB8980818F7D17
:101560008083DF91CF911F91FF90EF90DF90CF901C
:1015700008951F920F920FB60F9211242F938F93FD
:101580009F93EF93FF93E0912002F09121028081DD
:10159000E0912602F091270282FD1BC0908180918C
:1015A00029028F5F8F7320912A02821741F0E09108
:1015B0002902F0E0E05FFD4F958F80932902FF91B3
:1015C000EF919F918F912F910F900FBE0F901F90D1
:1015D00018958081F4CF1F920F920FB60F921124AD
:1015E0002F933F934F935F936F937F938F939F932B
:1015F000AF93BF93EF93FF9380E192E00E94C809FD
:10160000FF91EF91BF91AF919F918F917F916F91DA
:101610005F914F913F912F910F900FBE0F901F90B0
:10162000189580E192E00E947D0921E0892B09F460
:1016300020E0822F0895E0E1F2E01382128288EE2A
:1016400093E0A0E0B0E084839583A683B78386E12E
:1016500091E09183808385EC90E09587848784EC8A
:1016600090E09787868780EC90E0918B808B81EC6F
:1016700090E0938B828B82EC90E0958B848B86EC50
:1016800090E0978B868B118E128E138E148E089598
:10169000AF92BF92CF92DF92EF92FF920F931F9380
:1016A000CF93DF936C017B018B01040F151FEB01BE
:1016B0005E01AE18BF08C017D10759F06991D60175
:1016C000ED91FC910190F081E02DC6010995892BE7
:1016D00079F7C501DF91CF911F910F91FF90EF90A6
:1016E000DF90CF90BF90AF900895FB010190002054
:1016F000E9F73197AF01461B570BDC01ED91FC91E7
:101700000280F381E02D0994DC01ED91FC910190C0
:10171000F081E02D099464E271E00C94750B8F92D6
:101720009F92AF92BF92EF92FF920F931F93CF932E
:10173000DF93CDB7DEB7A1970FB6F894DEBF0FBE2B
:10174000CDBF7C01FA01CB0119A2223008F42AE0B6
:101750008E010F5D1F4F822E912CB12CA12CBF0149
:10176000A50194010E94B40DF901CA016A300CF57B
:10177000605DD8016E938D01232B242B252B79F7E7
:1017800090E080E0109721F0BD01C7010E94750B29
:10179000A1960FB6F894DEBF0FBECDBFDF91CF91FB
:1017A0001F910F91FF90EF90BF90AF909F908F90FF
:1017B0000895695CDECFCF92DF92EF92FF920F9394
:1017C0001F93CF93DF932115310581F4DC01ED9157
:1017D000FC910190F081E02D642FDF91CF911F915A
:1017E0000F91FF90EF90DF90CF9009942A30310550
:1017F00001F52AE077FF1DC06A017B01EC016DE273
:101800000E94840B8C0144275527BA014C195D09AD
:101810006E097F092AE0CE010E948F0B800F911F75
:10182000DF91CF911F910F91FF90EF90DF90CF90BC
:101830000895DF91CF911F910F91FF90EF90DF906E
:10184000CF900C948F0B9A01AB01770F660B770B3F
:101850000C94DB0B0F931F93CF93DF93EC010E944B
:10186000230C8C01CE010E948B0B800F911FDF9106
:10187000CF911F910F9108952115310541F4DC019D
:10188000ED91FC910190F081E02D642F09940C946E
:101890008F0B0F931F93CF93DF93EC010E943C0CAF
:1018A0008C01CE010E948B0B800F911FDF91CF9195
:1018B0001F910F91089508950E941E0D0E945B0CC8
:1018C0000E948400CAEBD9E00E949A002097E1F3BD
:1018D0000E94BA09F9CF1F920F920FB60F921124EE
:1018E0002F933F938F939F93AF93BF938091AE02BB
:1018F0009091AF02A091B002B091B1023091AD02CF
:1019000023E0230F2D3758F50196A11DB11D20931B
:10191000AD028093AE029093AF02A093B002B09359
:10192000B1028091B2029091B302A091B402B09141
:10193000B5020196A11DB11D8093B2029093B3022E
:10194000A093B402B093B502BF91AF919F918F91D4
:101950003F912F910F900FBE0F901F90189526E882
:10196000230F0296A11DB11DD2CF3FB7F8948091ED
:10197000B2029091B302A091B402B091B50226B523
:10198000A89B05C02F3F19F00196A11DB11D3FBFB7
:10199000BA2FA92F982F8827BC01CD01620F711D86
:1019A000811D911D42E0660F771F881F991F4A9580
:1019B000D1F708958F929F92AF92BF92CF92DF920C
:1019C000EF92FF926B017C010E94B50C4B015C0110
:1019D000C114D104E104F104E9F00E94B00D0E94A9
:1019E000B50C681979098A099B09683E734081051D
:1019F000910570F321E0C21AD108E108F10888EEE0
:101A0000880E83E0981EA11CB11CC114D104E1040E
:101A1000F10429F7FF90EF90DF90CF90BF90AF9047
:101A20009F908F9008958230910538F0880F991F0C
:101A3000880F991F05970197F1F70895789484B559
:101A4000826084BD84B5816084BD85B5826085BDBA
:101A500085B5816085BDEEE6F0E0808181608083A0
:101A6000E1E8F0E010828081826080838081816083
:101A70008083E0E8F0E0808181608083E1EBF0E04A
:101A8000808184608083E0EBF0E0808181608083EE
:101A9000EAE7F0E0808184608083808182608083D7
:101AA0008081816080838081806880831092C10002
:101AB0000895833081F028F4813099F08230A9F0C4
:101AC00008958730A9F08830C9F08430B1F480914E
:101AD00080008F7D03C0809180008F77809380008D
:101AE000089584B58F7784BD089584B58F7DFBCF2D
:101AF0008091B0008F778093B00008958091B000FE
:101B00008F7DF9CF1F93CF93DF93282F30E0F9011A
:101B1000E859FF4F8491F901E458FF4FD491F9013E
:101B2000E057FF4FC491CC23A9F0162F81110E94DA
:101B3000590DEC2FF0E0EE0FFF1FEC55FF4FA59174
:101B4000B4918FB7F894EC91111108C0D095DE23B1
:101B5000DC938FBFDF91CF911F910895DE2BF8CFDB
:101B60000895F8940C94DC0DA1E21A2EAA1BBB1B5D
:101B7000FD010DC0AA1FBB1FEE1FFF1FA217B30759
:101B8000E407F50720F0A21BB30BE40BF50B661F6F
:101B9000771F881F991F1A9469F760957095809533
:101BA00090959B01AC01BD01CF010895EE0FFF1F81
:0C1BB0000590F491E02D0994F894FFCF0B
:101BBC0000000000E40413058104AD0484048B04CC
:101BCC009E04000000000A0A480BAB09EA097D09D3
:081BDC00970989090D0A0000B8
:00000001FF
