:100000000C9471000C9499000C9499000C94990034
:100010000C9499000C9499000C9499000C949900FC
:100020000C9499000C9499000C9499000C949900EC
:100030000C9499000C9499000C9499000C949900DC
:100040000C94ED060C9499000C948C040C94BE0452
:100050000C9499000C9499000C9499000C949900BC
:100060000C9499000C9499002025205248002043BC
:100070002C2000436865636B2044485420776972E4
:10008000696E670000000008000201000003040719
:100090000000000000000000010204081020408061
:1000A00001020408102001020408102004040404C2
:1000B0000404040402020202020203030303030312
:1000C0000000000023002600290000000000250099
:1000D00028002B0000000000240027002A00FD005B
:1000E000EE0411241FBECFEFD8E0DEBFCDBF11E07C
:1000F000A0E0B1E0E8ECF5E102C005900D92A2327B
:10010000B107D9F721E0A2E2B1E001C01D92AB3DF9
:10011000B207E1F710E0C1E7D0E004C02197FE018B
:100120000E94DC0ACF36D107C9F70E94DE060C9484
:10013000B70A0C94000026E040E855E260E070E069
:1001400085E391E00E942A0467E382E291E00C9447
:1001500025018F929F92AF92BF92CF92DF92EF9242
:10016000FF9260ED77E080E090E00E94680740E059
:1001700060E082E291E00E9477024B015C0160E066
:1001800082E291E00E9407036B017C01A5019401CA
:10019000C501B4010E94B20A811108C0A7019601ED
:1001A000C701B6010E94B20A882371F063E770E0CC
:1001B00085E391E0FF90EF90DF90CF90BF90AF90FC
:1001C0009F908F900C94860522E030E0B501A40149
:1001D00085E391E00E94DB066EE670E085E391E046
:1001E0000E94570522E030E0B701A60185E391E0C7
:1001F0000E94DB0668E670E0DBCF26E046E162E0C5
:1002000082E291E00C940401DC0115966C93159741
:1002100016964C93169770E0FB01E856FF4FE49159
:100220001796EC93179764557F4FFB0164911896CE
:100230006C93189740E85EE360E070E01D964D9384
:100240005D936D937C93509708951F93CF93DF93A5
:10025000EC01162F62E08D810E9410080E94370782
:10026000605D77408109910969877A878B879C87D0
:100270001A8BDF91CF911F910895CF92DF92EF9269
:10028000FF92CF93DF93DC011796CC911797D0E0C4
:100290006111DC2F18962C91189730E0220F331F34
:1002A00020543F4F50E040E0F90185919491FC01CA
:1002B000F080BA0190E080E0EF2DEC23ED1310C048
:1002C0004F5F5F4F1D96CD90DD90ED90FC90509765
:1002D0006C157D058E059F0538F36FEF7FEFCB0121
:1002E000DF91CF91FF90EF90DF90CF9008958F92A4
:1002F0009F92AF92BF92CF92DF92EF92FF920F93B5
:100300001F93CF93DF93CDB7DEB7C054D1400FB664
:10031000F894DEBF0FBECDBF8C01F62E0E943707CA
:10032000F11029C0F801C184D284E384F4849B01D4
:10033000AC012C193D094E095F0969017A0130EDC4
:10034000C31637E0D306E104F104A8F48189C05C48
:10035000DE4F0FB6F894DEBF0FBECDBFDF91CF9159
:100360001F910F91FF90EF90DF90CF90BF90AF90D3
:100370009F908F900895F801618772878387948793
:100380001482138212821182108262E085810E949F
:10039000100861E070E080E090E00E94680761E092
:1003A000F80185810E94100860E0F80185810E94B3
:1003B0004C08F801868185518230E8F48CE494E0A1
:1003C0000E94A10762E0F80185810E941008F801EF
:1003D000828990E00E94A107F89460E0C8010E9421
:1003E0003D016F3F7F4F8F4F9F4F61F4F801118A9E
:1003F000789480E0ACCF64E170E080E090E00E940F
:100400006807E0CF61E0C8010E943D016F3F7F4F68
:100410008F4F9F4F59F39E012F5F3F4F79015E0130
:100420003FEBA31A3EEFB30A670160E0C8010E94E8
:100430003D01F601608371838283938361E0C8018B
:100440000E943D01F6016483758386839783F8E0FB
:10045000CF0ED11CCA14DB0441F7789430E020E0C1
:10046000F70180809180A280B380448155816681AC
:100470007781FFEF8F169F06AF06BF0631F04F3F23
:100480008FEF58076807780719F4F801118AB1CF80
:10049000F90183E0F595E7958A95E1F7E00FF11F03
:1004A0008081880F84169506A606B706F0F0808333
:1004B0002F5F3F4FF8E0EF0EF11C2832310581F637
:1004C000F801448120818181280F3327331F8281E5
:1004D000280F311D8381820F932F911D9927481773
:1004E000190699F681E0818B32CF8160E0CFCF92FF
:1004F000DF92EF92FF920F931F93CF93DF938C01C4
:10050000C62F642F0E947701882341F0F80186816D
:100510008C3009F45DC038F48B30E1F060E070E0BD
:1005200080EC9FE74CC085518230C0F7D2816D2F9F
:1005300070E0762F662766277F778381682B90E0AF
:1005400080E00E948E092DEC3CEC4CEC5DE30E94B7
:10055000450A59C0628170E090E080E00E948E09F7
:100560006B017C01F801D381D7FF0AC0AC019B016C
:1005700060E070E080E89FEB0E947B086B017C01EB
:10058000DF706D2F70E090E080E00E9490092DEC0C
:100590003CEC4CEC5DE30E94450AA70196010E94E9
:1005A0007C08CC2361F026E636E646EE5FE30E9447
:1005B000450A20E030E040E052E40E947C08DF91F0
:1005C000CF911F910F91FF90EF90DF90CF90089502
:1005D000D2816D2F70E090E080E00E948E096B0167
:1005E0007C01F80163816F7070E090E080E00E9410
:1005F00090092DEC3CEC4CEC5DE30E94450AA70110
:1006000096010E947C08D7FFCCCF9058CACFCF92DA
:10061000DF92EF92FF92CF93DF93EC010E9477017C
:10062000882341F08E818B3028F08D3040F0855149
:10063000823030F160E070E080EC9FE71AC06981A1
:1006400070E090E080E00E9490092DEC3CEC4CECD6
:100650005DE30E94450A6B017C01688170E090E0D7
:1006600080E00E9490099B01AC01C701B6010E9485
:100670007C08DF91CF91FF90EF90DF90CF900895AD
:100680006881798176276727762790E080E00E944D
:100690008E092DEC3CEC4CEC5DE30E94450AE9CF61
:1006A000FC01918D228D892F90E0805C9F4F821BF1
:1006B00091098F7399270895FC01918D828D981768
:1006C00031F0828DE80FF11D858D90E008958FEF58
:1006D0009FEF0895FC01918D828D981761F0A28D96
:1006E000AE0FBF2FB11D5D968C91928D9F5F9F7352
:1006F000928F90E008958FEF9FEF0895FC01538D46
:10070000448D252F30E0842F90E0821B930B5417EB
:1007100010F0CF9608950197089584EE94E0892B08
:1007200049F080E090E0892B29F00E94E4048111D7
:100730000C9400000895FC01A48DA80FB92FB11DE1
:10074000A35ABF4F2C91848D90E001968F73992707
:10075000848FA689B7892C93A089B1898C918370E5
:1007600080648C93938D848D981306C00288F389DE
:10077000E02D80818F7D80830895CF93DF93EC01FE
:10078000888D8823B9F0AA89BB89E889F9898C9179
:1007900085FD03C0808186FD0DC00FB607FCF7CF35
:1007A0008C9185FFF2CF808185FFEDCFCE010E9435
:1007B0009B03E9CFDF91CF910895EF92FF920F93C2
:1007C0001F93CF93DF93EC0181E0888F9B8D8C8DFD
:1007D00098131AC0E889F989808185FF15C09FB7F1
:1007E000F894EE89FF896083E889F98980818370B4
:1007F000806480839FBF81E090E0DF91CF911F9163
:100800000F91FF90EF900895F62E0B8D10E00F5F83
:100810001F4F0F731127E02E8C8D8E110CC00FB659
:1008200007FCFACFE889F989808185FFF5CFCE01F1
:100830000E949B03F1CFEB8DEC0FFD2FF11DE35ACE
:10084000FF4FF0829FB7F8940B8FEA89FB89808174
:100850008062CFCFCF92DF92EF92FF921F93CF9320
:10086000DF93EC016A017B01122FE889F98982E0AC
:100870008083C11481EED806E104F104A1F060E0A8
:1008800079E08DE390E0A70196010E94BA0A215019
:1008900031094109510956954795379527952115F5
:1008A00080E1380798F0E889F989108260E874E8F7
:1008B0008EE190E0A70196010E94BA0A2150310909
:1008C000410951095695479537952795EC85FD8542
:1008D0003083EE85FF852083188EEC89FD89108397
:1008E000EA89FB89808180618083EA89FB89808134
:1008F00088608083EA89FB89808180688083EA89B7
:10090000FB8980818F7D8083DF91CF911F91FF9044
:10091000EF90DF90CF9008951F920F920FB60F9235
:1009200011242F938F939F93EF93FF93E0914501B1
:10093000F09146018081E0914B01F0914C0182FDE4
:100940001BC0908180914E018F5F8F7320914F016A
:10095000821741F0E0914E01F0E0EB5CFE4F958F85
:1009600080934E01FF91EF919F918F912F910F9066
:100970000FBE0F901F9018958081F4CF1F920F9299
:100980000FB60F9211242F933F934F935F936F9362
:100990007F938F939F93AF93BF93EF93FF9385E3E1
:1009A00091E00E949B03FF91EF91BF91AF919F91C6
:1009B0008F917F916F915F914F913F912F910F9008
:1009C0000FBE0F901F90189585E391E00E94500391
:1009D00021E0892B09F420E0822F0895E5E3F1E07E
:1009E0001382128288EE93E0A0E0B0E084839583C6
:1009F000A683B78384E091E09183808385EC90E0C7
:100A00009587848784EC90E09787868780EC90E0D8
:100A1000918B808B81EC90E0938B828B82EC90E0C9
:100A2000958B848B86EC90E0978B868B118E128E43
:100A3000138E148E0895AF92BF92CF92DF92EF92F1
:100A4000FF920F931F93CF93DF936C017B018B0178
:100A5000040F151FEB015E01AE18BF08C017D107C8
:100A600059F06991D601ED91FC910190F081E02D52
:100A7000C6010995892B79F7C501DF91CF911F91A7
:100A80000F91FF90EF90DF90CF90BF90AF900895BF
:100A9000FB0101900020E9F73197AF01461B570B8E
:100AA000DC01ED91FC910280F381E02D0994EF923D
:100AB000FF920F931F93CF93DF938C017B01D0E0C4
:100AC000C0E0F701EC0FFD1F6491662361F0D801CF
:100AD000ED91FC910190F081E02DC8010995892BE1
:100AE00011F02196EECFCE01DF91CF911F910F91A2
:100AF000FF90EF900895DC01ED91FC910190F08161
:100B0000E02D099462E171E00C9448050F931F9366
:100B1000CF93DF93EC010E9457058C01CE010E9418
:100B20008205800F911FDF91CF911F910F91089542
:100B30008F929F92AF92BF92EF92FF920F931F936B
:100B4000CF93DF93CDB7DEB7A1970FB6F894DEBF92
:100B50000FBECDBF7C01FA01CB0119A2223008F4EF
:100B60002AE08E010F5D1F4F822E912CB12CA12CFB
:100B7000BF01A50194010E94BA0AF901CA016A30B5
:100B80000CF5605DD8016E938D01232B242B252B52
:100B900079F790E080E0109721F0BD01C7010E9435
:100BA0004805A1960FB6F894DEBF0FBECDBFDF910A
:100BB000CF911F910F91FF90EF90BF90AF909F90BA
:100BC0008F900895695CDECF2115310541F4DC0179
:100BD000ED91FC910190F081E02D642F09940C942B
:100BE00098059A01AB0170E060E00C94E4052F9247
:100BF0003F924F925F926F927F928F929F92AF92AD
:100C0000BF92CF92DF92EF92FF921F93CF93DF9329
:100C1000EC016A017B01722EAB019601CB01B6019A
:100C20000E94B20A65E171E0811126C046015701B8
:100C3000E894B7F82FEF3FEF4FE75FE7C501B40146
:100C40000E94B20A81110CC02FEF3FEF4FE75FE720
:100C5000C501B4010E94E80869E171E0181664F06A
:100C60002FEF3FEF4FE75FE4C701B6010E94400A54
:100C70001816B4F46DE171E0CE01DF91CF911F91B0
:100C8000FF90EF90DF90CF90BF90AF909F908F90AC
:100C90007F906F905F904F903F902F900C944805FD
:100CA0002FEF3FEF4FE75FECC701B6010E94E80866
:100CB00087FDE0CF20E030E0A901C701B6010E9426
:100CC000E808312C212C87FF09C06DE2CE010E947B
:100CD0007B051C01F7FAF094F7F8F09410E060E05F
:100CE00070E080E09FE3711641F020E030E040E2E8
:100CF00051E40E94ED081F5FF6CFA70196010E9404
:100D00007C082B013C010E945F094B015C012AE039
:100D1000BC01A401CE010E9498057C01E20CF31CE9
:100D20001123B1F1C501B4010E948E099B01AC01F0
:100D3000C301B2010E947B084B015C016EE2CE014F
:100D40000E947B05E80EF91E115010F120E030E002
:100D500040E251E4C501B4010E94450A2B013C0167
:100D60000E945F094B014AE050E0CE010E94F1056C
:100D7000E80EF91EB40190E080E00E948E099B010C
:100D8000AC01C301B2010E947B084B015C01DCCFC6
:100D9000C701DF91CF911F91FF90EF90DF90CF902F
:100DA000BF90AF909F908F907F906F905F904F908B
:100DB0003F902F9008950C94F70508950E94AC077A
:100DC0000E94DD060E949B00CDE8D3E00E94A900AE
:100DD0002097E1F30E948D03F9CF1F920F920FB677
:100DE0000F9211242F933F938F939F93AF93BF93B1
:100DF0008091D3019091D401A091D501B091D601F9
:100E00003091D20123E0230F2D3758F50196A11D13
:100E1000B11D2093D2018093D3019093D401A0936C
:100E2000D501B093D6018091D7019091D801A091BE
:100E3000D901B091DA010196A11DB11D8093D701AE
:100E40009093D801A093D901B093DA01BF91AF91EB
:100E50009F918F913F912F910F900FBE0F901F90F8
:100E6000189526E8230F0296A11DB11DD2CF2FB7EA
:100E7000F8946091D3017091D4018091D501909143
:100E8000D6012FBF08953FB7F8948091D701909174
:100E9000D801A091D901B091DA0126B5A89B05C06F
:100EA0002F3F19F00196A11DB11D3FBFBA2FA92FE9
:100EB000982F8827BC01CD01620F711D811D911DE6
:100EC00042E0660F771F881F991F4A95D1F7089552
:100ED0008F929F92AF92BF92CF92DF92EF92FF924A
:100EE0006B017C010E9443074B015C01C114D104DA
:100EF000E104F104E9F00E947A080E9443076819AE
:100F000079098A099B09683E73408105910570F350
:100F100021E0C21AD108E108F10888EE880E83E0CA
:100F2000981EA11CB11CC114D104E104F10429F7DD
:100F3000FF90EF90DF90CF90BF90AF909F908F90F9
:100F400008958230910538F0880F991F880F991FF6
:100F500005970197F1F70895789484B5826084BD70
:100F600084B5816084BD85B5826085BD85B58160AD
:100F700085BDEEE6F0E0808181608083E1E8F0E00D
:100F80001082808182608083808181608083E0E83C
:100F9000F0E0808181608083E1EBF0E0808184601B
:100FA0008083E0EBF0E0808181608083EAE7F0E01D
:100FB0008081846080838081826080838081816081
:100FC00080838081806880831092C100089583307F
:100FD00081F028F4813099F08230A9F008958730AB
:100FE000A9F08830C9F08430B1F4809180008F7D01
:100FF00003C0809180008F7780938000089584B52E
:101000008F7784BD089584B58F7DFBCF8091B0002C
:101010008F778093B00008958091B0008F7DF9CFD5
:10102000CF93DF9390E0FC01E856FF4F2491845565
:101030009F4FFC0184918823C9F090E0880F991F8D
:10104000FC01EC52FF4FA591B491FC01E653FF4F18
:10105000C591D49161110DC09FB7F8948C912095E2
:1010600082238C938881282328839FBFDF91CF918F
:101070000895623051F49FB7F8943C91822F809587
:1010800083238C93E8812E2BEFCF8FB7F894EC91CC
:101090002E2B2C938FBFEACF1F93CF93DF93282F54
:1010A00030E0F901EC57FF4F8491F901E856FF4F0A
:1010B000D491F901E455FF4FC491CC23A9F0162F28
:1010C00081110E94E707EC2FF0E0EE0FFF1FE653BF
:1010D000FF4FA591B4918FB7F894EC91111108C00E
:1010E000D095DE23DC938FBFDF91CF911F910895C0
:1010F000DE2BF8CF08955058BB27AA270E949308EB
:101100000C94060A0E94F80938F00E94FF0920F0AA
:1011100039F49F3F19F426F40C94F5090EF4E09588
:10112000E7FB0C94EF09E92F0E94170A58F3BA174E
:10113000620773078407950720F079F4A6F50C94ED
:10114000390A0EF4E0950B2EBA2FA02D0B01B90130
:1011500090010C01CA01A0011124FF27591B99F02D
:10116000593F50F4503E68F11A16F040A22F232F39
:10117000342F4427585FF3CF469537952795A79589
:10118000F0405395C9F77EF41F16BA0B620B730B30
:10119000840BBAF09150A1F0FF0FBB1F661F771FA1
:1011A000881FC2F70EC0BA0F621F731F841F48F456
:1011B000879577956795B795F7959E3F08F0B0CFDF
:1011C0009395880F08F09927EE0F979587950895C6
:1011D0000E94CB0908F481E008950E9401090C9453
:1011E000060A0E94FF0958F00E94F80940F029F40D
:1011F0005F3F29F00C94EF0951110C943A0A0C94BA
:10120000F5090E94170A68F39923B1F3552391F366
:10121000951B550BBB27AA2762177307840738F065
:101220009F5F5F4F220F331F441FAA1FA9F335D0C2
:101230000E2E3AF0E0E832D091505040E695001C76
:10124000CAF72BD0FE2F29D0660F771F881FBB1F30
:10125000261737074807AB07B0E809F0BB0B802D0E
:10126000BF01FF2793585F4F3AF09E3F510578F03A
:101270000C94EF090C943A0A5F3FE4F3983ED4F3E0
:10128000869577956795B795F7959F5FC9F7880F0E
:10129000911D9695879597F90895E1E0660F771F60
:1012A000881FBB1F621773078407BA0720F0621BF1
:1012B000730B840BBA0BEE1F88F7E09508950E941C
:1012C0001F0A88F09F5798F0B92F9927B751B0F0AF
:1012D000E1F0660F771F881F991F1AF0BA95C9F7BA
:1012E00014C0B13091F00E94390AB1E008950C9415
:1012F000390A672F782F8827B85F39F0B93FCCF3C8
:10130000869577956795B395D9F73EF49095809536
:10131000709561957F4F8F4F9F4F0895E89409C056
:1013200097FB3EF490958095709561957F4F8F4F18
:101330009F4F9923A9F0F92F96E9BB279395F6952E
:10134000879577956795B795F111F8CFFAF4BB0FAC
:1013500011F460FF1BC06F5F7F4F8F4F9F4F16C010
:10136000882311F096E911C0772321F09EE8872F9A
:10137000762F05C0662371F096E8862F70E060E056
:101380002AF09A95660F771F881FDAF7880F9695CF
:10139000879597F90895990F0008550FAA0BE0E873
:1013A000FEEF16161706E807F907C0F01216130627
:1013B000E407F50798F0621B730B840B950B39F467
:1013C0000A2661F0232B242B252B21F408950A26CD
:1013D00009F4A140A6958FEF811D811D089597F90D
:1013E0009F6780E870E060E008959FEF80EC0895CB
:1013F00000240A94161617061806090608950024F4
:101400000A9412161306140605060895092E03946D
:10141000000C11F4882352F0BB0F40F4BF2B11F4E1
:1014200060FF04C06F5F7F4F8F4F9F4F089557FD40
:101430009058440F551F59F05F3F71F04795880F42
:1014400097FB991F61F09F3F79F0879508951216D9
:1014500013061406551FF2CF4695F1DF08C0161685
:1014600017061806991FF1CF869571056105089436
:101470000895E894BB2766277727CB0197F908954D
:101480000E94CB0908F48FEF08950E94580A0C942B
:10149000060A0E94F80938F00E94FF0920F09523FF
:1014A00011F00C94EF090C94F50911240C943A0AEC
:1014B0000E94170A70F3959FC1F3950F50E0551FD6
:1014C000629FF001729FBB27F00DB11D639FAA2799
:1014D000F00DB11DAA1F649F6627B00DA11D661FE8
:1014E000829F2227B00DA11D621F739FB00DA11D09
:1014F000621F839FA00D611D221F749F3327A00DC3
:10150000611D231F849F600D211D822F762F6A2F5E
:1015100011249F5750409AF0F1F088234AF0EE0FC3
:10152000FF1FBB1F661F771F881F91505040A9F7F0
:101530009E3F510580F00C94EF090C943A0A5F3FEE
:10154000E4F3983ED4F3869577956795B795F7952C
:10155000E7959F5FC1F7FE2B880F911D96958795A4
:1015600097F908950E94CB09880B990B0895F89478
:101570000C94E20AA1E21A2EAA1BBB1BFD010DC0AE
:10158000AA1FBB1FEE1FFF1FA217B307E407F50733
:1015900020F0A21BB30BE40BF50B661F771F881F0F
:1015A000991F1A9469F760957095809590959B01A5
:1015B000AC01BD01CF010895EE0FFF1F0590F4911E
:0815C000E02D0994F894FFCF1F
:1015C80000000000DD031B057E03BD0350036A0312
:1015D8005C030D0A006E616E00696E66006F7666C8
:0215E800000001
:00000001FF
