:100000000C943D000C9465000C9465000C94650004
:100010000C9465000C9465000C9465000C946500CC
:100020000C9465000C9465000C9465000C946500BC
:100030000C9465000C9465000C9465000C946500AC
:100040000C94FF030C9465000C9422020C9454024F
:100050000C9465000C9465000C9465000C9465008C
:100060000C9465000C94650053746F72656420767F
:10007000616C75653A200000840211241FBECFEF29
:10008000D8E0DEBFCDBF11E0A0E0B1E0E2E6F9E0EC
:1000900002C005900D92A631B107D9F721E0A6E183
:1000A000B1E001C01D92AC3BB207E1F710E0CDE337
:1000B000D0E004C02197FE010E94A904CC33D107EF
:1000C000C9F70E94F0030C9484040C940000FF9282
:1000D0000F931F93CF93DF93EC01F62E08811981C4
:1000E000C8010E94D000F81621F06F2DC8010E94AF
:1000F000D800CE01DF91CF911F910F91FF9008950D
:10010000CF93DF9300D0CDB7DEB726E040E855E2CD
:1001100060E070E086E191E00E94C0011A821982DD
:100120006AE2CE0101960E94670068E670E086E10F
:1001300091E00E94ED0290E080E00E94D0004AE051
:1001400050E0682F86E191E00E94DD0384E090E0BA
:100150009A83898362EDCE0101960E94670085E053
:1001600090E09A83898364E0CE0101960E94670043
:1001700084E090E00E94D000898385E090E00E94B6
:10018000D0008A8369817A814AE050E086E191E07B
:100190000E94B7030F900F90DF91CF9108950895BB
:1001A000F999FECF92BD81BDF89A992780B508953F
:1001B000262FF999FECF1FBA92BD81BD20BD0FB683
:1001C000F894FA9AF99A0FBE01960895FC01918D60
:1001D000228D892F90E0805C9F4F821B91098F7345
:1001E00099270895FC01918D828D981731F0828DA9
:1001F000E80FF11D858D90E008958FEF9FEF089532
:10020000FC01918D828D981761F0A28DAE0FBF2FEA
:10021000B11D5D968C91928D9F5F9F73928F90E040
:1002200008958FEF9FEF0895FC01538D448D252F86
:1002300030E0842F90E0821B930B541710F0CF9680
:100240000895019708958AE792E0892B49F080E0AC
:1002500090E0892B29F00E947A0281110C94000011
:100260000895FC01A48DA80FB92FB11DA35ABF4F4B
:100270002C91848D90E001968F739927848FA689A5
:10028000B7892C93A089B1898C91837080648C93F9
:10029000938D848D981306C00288F389E02D8081A8
:1002A0008F7D80830895CF93DF93EC01888D882321
:1002B000B9F0AA89BB89E889F9898C9185FD03C0C9
:1002C000808186FD0DC00FB607FCF7CF8C9185FFAE
:1002D000F2CF808185FFEDCFCE010E943101E9CFC1
:1002E000DF91CF910895EF92FF920F931F93CF93D9
:1002F000DF93EC0181E0888F9B8D8C8D98131AC061
:10030000E889F989808185FF15C09FB7F894EE8947
:10031000FF896083E889F9898081837080648083A4
:100320009FBF81E090E0DF91CF911F910F91FF90EF
:10033000EF900895F62E0B8D10E00F5F1F4F0F7397
:100340001127E02E8C8D8E110CC00FB607FCFACF52
:10035000E889F989808185FFF5CFCE010E943101BE
:10036000F1CFEB8DEC0FFD2FF11DE35AFF4FF08223
:100370009FB7F8940B8FEA89FB8980818062CFCF89
:10038000CF92DF92EF92FF921F93CF93DF93EC0116
:100390006A017B01122FE889F98982E08083C11408
:1003A00081EED806E104F104A1F060E079E08DE38C
:1003B00090E0A70196010E9487042150310941096C
:1003C00051095695479537952795211580E13807AE
:1003D00098F0E889F989108260E874E88EE190E08D
:1003E000A70196010E948704215031094109510952
:1003F0005695479537952795EC85FD853083EE8595
:10040000FF852083188EEC89FD891083EA89FB899A
:10041000808180618083EA89FB8980818860808314
:10042000EA89FB89808180688083EA89FB898081F1
:100430008F7D8083DF91CF911F91FF90EF90DF90B0
:10044000CF9008951F920F920FB60F9211242F9301
:100450008F939F93EF93FF93E0912601F0912701F3
:100460008081E0912C01F0912D0182FD1BC09081D3
:1004700080912F018F5F8F7320913001821741F09F
:10048000E0912F01F0E0EA5EFE4F958F80932F01FF
:10049000FF91EF919F918F912F910F900FBE0F9031
:1004A0001F9018958081F4CF1F920F920FB60F9274
:1004B00011242F933F934F935F936F937F938F9369
:1004C0009F93AF93BF93EF93FF9386E191E00E94D8
:1004D0003101FF91EF91BF91AF919F918F917F91EA
:1004E0006F915F914F913F912F910F900FBE0F90A1
:1004F0001F90189586E191E00E94E60021E0892B8B
:1005000009F420E0822F0895E6E1F1E013821282DF
:1005100088EE93E0A0E0B0E084839583A683B78360
:1005200084E091E09183808385EC90E095878487D7
:1005300084EC90E09787868780EC90E0918B808BAD
:1005400081EC90E0938B828B82EC90E0958B848B96
:1005500086EC90E0978B868B118E128E138E148E04
:100560000895AF92BF92CF92DF92EF92FF920F93D6
:100570001F93CF93DF936C017B018B01040F151F39
:10058000EB015E01AE18BF08C017D10759F06991A1
:10059000D601ED91FC910190F081E02DC601099505
:1005A000892B79F7C501DF91CF911F910F91FF90B2
:1005B000EF90DF90CF90BF90AF900895FB01019036
:1005C0000020E9F73197AF01461B570BDC01ED9195
:1005D000FC910280F381E02D0994EF92FF920F933A
:1005E0001F93CF93DF938C017B01D0E0C0E0F70134
:1005F000EC0FFD1F6491662361F0D801ED91FC9131
:100600000190F081E02DC8010995892B11F0219608
:10061000EECFCE01DF91CF911F910F91FF90EF9020
:100620000895DC01ED91FC910190F081E02D099499
:1006300062E171E00C94DE028F929F92AF92BF92C2
:10064000EF92FF920F931F93CF93DF93CDB7DEB757
:10065000A1970FB6F894DEBF0FBECDBF7C01FA01A3
:10066000CB0119A2223008F42AE08E010F5D1F4F42
:10067000822E912CB12CA12CBF01A50194010E94C6
:100680008704F901CA016A300CF5605DD8016E93E8
:100690008D01232B242B252B79F790E080E01097F8
:1006A00021F0BD01C7010E94DE02A1960FB6F894A9
:1006B000DEBF0FBECDBFDF91CF911F910F91FF9095
:1006C000EF90BF90AF909F908F900895695CDECFC0
:1006D000CF92DF92EF92FF920F931F93CF93DF930E
:1006E0002115310581F4DC01ED91FC910190F0813F
:1006F000E02D642FDF91CF911F910F91FF90EF902C
:10070000DF90CF9009942A30310501F52AE077FF78
:100710001DC06A017B01EC016DE20E9411038C0196
:1007200044275527BA014C195D096E097F092AE053
:10073000CE010E941C03800F911FDF91CF911F916A
:100740000F91FF90EF90DF90CF900895DF91CF91C0
:100750001F910F91FF90EF90DF90CF900C941C03AE
:100760009A01AB01770F660B770B0C9468030F931C
:100770001F93CF93DF93EC010E94B0038C01CE0155
:100780000E941803800F911FDF91CF911F910F914D
:1007900008952115310541F4DC01ED91FC910190A2
:1007A000F081E02D642F09940C941C039A01462FCC
:1007B00050E070E060E00C94C9030F931F93CF9357
:1007C000DF93EC010E94D6038C01CE010E94180336
:1007D000800F911FDF91CF911F910F910895089580
:1007E0000E9449040E94EF030E948000C3E2D1E00E
:1007F0000E94CF002097E1F30E942301F9CF1F92BE
:100800000F920FB60F9211242F933F938F939F93C4
:10081000AF93BF938091B4019091B501A091B601BF
:10082000B091B7013091B30123E0230F2D3758F574
:100830000196A11DB11D2093B3018093B401909343
:10084000B501A093B601B093B7018091B801909122
:10085000B901A091BA01B091BB010196A11DB11DD2
:100860008093B8019093B901A093BA01B093BB01F2
:10087000BF91AF919F918F913F912F910F900FBE9C
:100880000F901F90189526E8230F0296A11DB11D09
:10089000D2CF789484B5826084BD84B5816084BDF4
:1008A00085B5826085BD85B5816085BDEEE6F0E0E9
:1008B000808181608083E1E8F0E010828081826045
:1008C0008083808181608083E0E8F0E080818160C6
:1008D0008083E1EBF0E0808184608083E0EBF0E0F6
:1008E000808181608083EAE7F0E08081846080839A
:1008F0008081826080838081816080838081806844
:1009000080831092C1000895F8940C94AF04A1E282
:100910001A2EAA1BBB1BFD010DC0AA1FBB1FEE1F79
:10092000FF1FA217B307E407F50720F0A21BB30BC4
:10093000E40BF50B661F771F881F991F1A9469F740
:1009400060957095809590959B01AC01BD01CF019C
:100950000895EE0FFF1F0590F491E02D0994F8948F
:02096000FFCFC7
:10096200000000007301B10214015301E60000010E
:06097200F2000D0A000076
:00000001FF
