:100000000C94E3020C940B030C940B030C940B0361
:100010000C940B030C940B030C940B030C940B0328
:100020000C940B030C940B030C940B030C940B0318
:100030000C940B030C940B030C940B030C940B0308
:100040000C94DB120C940B030C9416110C944811B5
:100050000C940B030C940B030C940B030C940B03E8
:100060000C94BA0E0C940B037FBFDFEFF7FBFDFE81
:10007000804020100804020100000000003E5B4F99
:100080005B3E3E6B4F6B3E1C3E7C3E1C183C7E3CF8
:10009000181C577D571C1C5E7F5E1C00183C180006
:1000A000FFE7C3E7FF0018241800FFE7DBE7FF3096
:1000B000483A060E2629792926407F050507407F04
:1000C00005253F5A3CE73C5A7F3E1C1C08081C1C77
:1000D0003E7F14227F22145F5F005F5F06097F016D
:1000E0007F006689956A606060606094A2FFA29458
:1000F00008047E040810207E201008082A1C080826
:100100001C2A08081E101010100C1E0C1E0C303873
:100110003E3830060E3E0E06000000000000005F74
:1001200000000007000700147F147F14242A7F2A90
:100130001223130864623649562050000807030052
:10014000001C2241000041221C002A1C7F1C2A089E
:10015000083E080800807030000808080808000001
:1001600060600020100804023E5149453E00427F75
:10017000400072494949462141494D331814127FC4
:100180001027454545393C4A494931412111090764
:100190003649494936464949291E000014000000E5
:1001A00040340000000814224114141414140041B7
:1001B00022140802015909063E415D594E7C121174
:1001C000127C7F494949363E414141227F414141AC
:1001D0003E7F494949417F090909013E4141517327
:1001E0007F0808087F00417F41002040413F017F98
:1001F000081422417F404040407F021C027F7F0460
:1002000008107F3E4141413E7F090909063E4151A8
:10021000215E7F09192946264949493203017F0198
:10022000033F4040403F1F2040201F3F4038403F99
:10023000631408146303047804036159494D4300AF
:100240007F4141410204081020004141417F0402E6
:10025000010204404040404000030708002054547D
:1002600078407F284444383844444428384444285B
:100270007F385454541800087E090218A4A49C78AE
:100280007F0804047800447D40002040403D007F0A
:100290001028440000417F40007C047804787C08EA
:1002A0000404783844444438FC18242418182424BE
:1002B00018FC7C08040408485454542404043F44A3
:1002C000243C4040207C1C2040201C3C4030403CD2
:1002D00044281028444C9090907C4464544C440032
:1002E0000836410000007700000041360800020196
:1002F0000204023C2623263C1EA1A161123A404082
:10030000207A3854545559215555794122545478FE
:1003100042215554784020545579400C1E52721297
:100320003955555559395454545939555454580020
:1003300000457C410002457D420001457C407D1224
:1003400011127DF0282528F07C5455450020545486
:100350007C547C0A097F4932494949323A44444431
:100360003A324A4848303A4141217A3A424020786C
:10037000009DA0A07D3D4242423D3D4040403D3C6D
:1003800024FF2424487E4943662B2FFC2F2BFF0992
:1003900029F620C0887E0903205454794100004486
:1003A0007D413048484A32384040227A007A0A0A71
:1003B000727D0D19317D2629292F282629292926E4
:1003C00030484D4020380808080808080808382F29
:1003D00010C8ACBA2F102834FA00007B00000814B3
:1003E0002A142222142A14085500550055AA55AA89
:1003F00055AAFF55FF55FF000000FF00101010FF29
:1004000000141414FF001010FF00FF1010F010F083
:10041000141414FC001414F700FF0000FF00FF1474
:1004200014F404FC141417101F10101F101F1414C0
:10043000141F00101010F0000000001F101010100A
:100440001F10101010F010000000FF1010101010FE
:1004500010101010FF10000000FF140000FF00FF3C
:1004600000001F10170000FC04F4141417101714D8
:1004700014F404F40000FF00F714141414141414FA
:10048000F700F7141414171410101F101F1414146D
:10049000F4141010F010F000001F101F0000001FD7
:1004A00014000000FC140000F010F01010FF10FF0A
:1004B000141414FF141010101F00000000F010FF9F
:1004C000FFFFFFFFF0F0F0F0F0FFFFFF0000000083
:1004D00000FFFF0F0F0F0F0F3844443844FC4A4A07
:1004E0004A347E02020606027E027E0263554941BC
:1004F000633844443C04407E201E2006027E0202F3
:1005000099A5E7A5991C2A492A1C4C7201724C3006
:100510004A4D4D303048784830BC625A463D3E49DD
:100520004949007E0101017E2A2A2A2A2A44445F81
:10053000444440514A444040444A51400000FF0175
:1005400003E080FF000008086B6B08361236243683
:10055000060F090F060000181800000010100030E8
:1005600040FF0101001F01011E00191D1712003C70
:100570003C3C3C00000000000000000800020100BC
:10058000000304070000000000000000010204084E
:1005900010204080010204081020010204081020ED
:1005A0000404040404040404020202020202030319
:1005B0000303030300000000250028002B000E03A6
:1005C000020E7811170311241FBECFEFD8E0DEBF53
:1005D000CDBF11E0A0E0B1E0E0E4FAE202C0059096
:1005E0000D92A838B107D9F723E0A8E8B1E001C01F
:1005F0001D92A531B207E1F712E0C2EED2E004C0CD
:100600002197FE010E940D15CF3DD107C9F70E9429
:10061000CC120C94E1140C940000089521E040E108
:1006200050E060E170E088E891E00C94060B88E807
:1006300091E00C94490BEF92FF920F931F93CF938D
:10064000DF9326E040E855E260E070E08BE692E060
:100650000E94B41070E060E088E891E00E94FA0522
:10066000EE24E394F12C0FE010E02FE030E050E0B6
:1006700040E070E060E088E891E00E94210601E03F
:1006800010E025E030E048E050E068E070E088E805
:1006900091E00E94D006C8E8D1E01D861C861F8626
:1006A0001E8666E071E0CE010E94E11148E050E054
:1006B00068E070E0CE010E94970B682F70E04AE07E
:1006C00050E08BE692E00E948F12EB8DFC8D40E1B2
:1006D00050E060818BE692E0DF91CF911F910F9106
:1006E000FF90EF900C94B51290E080E0089508958B
:1006F0002F923F924F925F926F927F928F929F9232
:10070000AF92BF92CF92DF92EF92FF920F931F931F
:10071000CF93DF9300D000D000D0CDB7DEB73C013F
:100720006A013E832D83FC82EB825801A41AB50A2C
:10073000B7FE03C0B194A194B1088D809E80861A43
:10074000970A97FE03C09194819491088A149B04A0
:100750005CF0902F812F0D811E819D838E839C2DB7
:100760008D2D6B01692F782F0C151D055CF09D8177
:100770008E817E836D83692F782F902F812F860144
:10078000C92ED82E1601201A310A2B012D813E8147
:10079000421A530A57FE03C0519441945108710103
:1007A00037FE03C03FEFE31AF30AF594E7948D8117
:1007B0009E81861797075CF5A1E0B0E0BA83A98314
:1007C000C016D1064CF1D301ED91FC910484F5855E
:1007D000E02D2B813C81A8016D817E818A149B04D0
:1007E0001CF04D815E81B801C3010995E418F5083C
:1007F000F7FE0AC02D813E8189819A81280F391F19
:100800003E832D83E20CF31C0F5F1F4FD9CF2FEFD8
:100810003FEF3A832983D4CF26960FB6F894DEBFF4
:100820000FBECDBFDF91CF911F910F91FF90EF9041
:10083000DF90CF90BF90AF909F908F907F906F9000
:100840005F904F903F902F9008950895DC01ED91B7
:10085000FC910084F185E02D09940F931F93DC0136
:10086000ED91FC91048CF58DE02D09951F910F9170
:1008700008950F931F93DC01ED91FC91068CF78D89
:10088000E02D09951F910F910895EF92FF920F931C
:100890001F93DC01ED91FC9100A0F1A1E02D0995E1
:1008A0001F910F91FF90EF9008958F929F92AF92BA
:1008B000BF92CF92DF92EF92FF920F931F93CF934D
:1008C000DF93EC015B014A0169017801E881F9815C
:1008D0000284F385E02D0995C80CD91C86010150CE
:1008E0001109E881F9810488F589E02D9501A401B9
:1008F000B501CE010995E881F9810688F789E02DD7
:10090000CE01DF91CF911F910F91FF90EF90DF907B
:10091000CF90BF90AF909F908F9009948F929F92AD
:10092000AF92BF92CF92DF92EF92FF920F931F93FD
:10093000CF93DF93EC015B014A016901E881F98102
:100940000284F385E02D099595012C0D3D1D215064
:100950003109E881F9810488F589E02D7801840165
:10096000A401B501CE010995E881F9810688F789CE
:10097000E02DCE01DF91CF911F910F91FF90EF906D
:10098000DF90CF90BF90AF909F908F9009944F923F
:100990005F926F927F928F929F92AF92BF92CF920F
:1009A000DF92EF92FF920F931F93CF93DF936C012F
:1009B0002B015A0139014801DC01ED91FC910284BF
:1009C000F385E02D0995E201640C751CD601ED91CB
:1009D000FC91C615D7055CF40088F189E02D8701EC
:1009E0009401A501BE01C60109952196EFCF0688A5
:1009F000F789E02DC601DF91CF911F910F91FF90F4
:100A0000EF90DF90CF90BF90AF909F908F907F90AE
:100A10006F905F904F900994EF92FF920F931F9306
:100A2000DC011A960D911C911B9718962D913C9103
:100A30001997ED91FC9100A0F1A1E02D7B0150E010
:100A400040E070E060E009951F910F91FF90EF90FA
:100A500008956F927F928F929F92AF92BF92CF92A2
:100A6000DF92EF92FF920F931F93CF93DF93EC01EE
:100A70006B015A0139014801E881F9810284F3854B
:100A8000E02D0995E881F9810288F389E02D87013D
:100A90009301A501B601CE010995A501480D591D87
:100AA00041505109E881F9810288F389E02D9301D1
:100AB000B601CE010995E881F9810088F189E02D20
:100AC0009401A501B601CE010995C60CD71CB6014B
:100AD00061507109E881F9810088F189E02D940164
:100AE000A501CE010995E881F9810688F789E02DF5
:100AF000CE01DF91CF911F910F91FF90EF90DF908A
:100B0000CF90BF90AF909F908F907F906F900994FF
:100B100008950F931F93CF93DF93FC01A38DB48DA2
:100B2000109709F446C077FD44C057FD42C0808548
:100B30009185681779070CF03CC08285938548172A
:100B40005907BCF5C481D58186898230B9F18330DB
:100B500009F442C0813031F4CE010197841B950B1A
:100B6000AB01BC01CE01079697FD0796E3E0959592
:100B70008795EA95E1F7849FF001859FF00D949F9A
:100B8000F00D1124CB0177FD079643E095958795ED
:100B90004A95E1F78E0F9F1FA80FB91F8C916770C0
:100BA0007727232B09F160597F4FFB016491682B54
:100BB0006C93DF91CF911F910F910895CE01019712
:100BC0008C01061B170BB801868197810197FC01E8
:100BD000E41BF50BAF01C6CF868197810197861B79
:100BE000970BBA01AC01BECF68597F4FFB016491EE
:100BF0006823DECFFC01838D948D009709F1448139
:100C000055819A01295F3F4F37FF02C0295F3F4F4F
:100C100043E0359527954A95E1F70680F781E02D69
:100C20002E9FA0012F9F500D3E9F500D1124672B2A
:100C300021F470E060E00C94E4146FEF70E0FBCFFF
:100C400008956F927F928F929F92AF92BF92CF92B0
:100C5000DF92EF92FF920F931F93CF93DF935C018C
:100C6000EB016A01490138018701DC01ED91FC913A
:100C70006217730719F5641675062CF0962D872DEB
:100C80003A01C92ED82E9601261937092F5F3F4FFA
:100C9000048CF58DE02DA301BE01C5010995DF91FE
:100CA000CF911F910F91FF90EF90DF90CF90BF9069
:100CB000AF909F908F907F906F9008954615570545
:100CC00091F42617370724F0892D4B01C22FD82F16
:100CD0009E01281939092F5F3F4F068CF78DE02DB3
:100CE000A601B401DACF0284F385E02D0995D50180
:100CF000ED91FC910488F589E02D83019401A60112
:100D0000BE01C5010995D501ED91FC910688F789D1
:100D1000E02DC501DF91CF911F910F91FF90EF90D2
:100D2000DF90CF90BF90AF909F908F907F906F900B
:100D30000994FC016370668B8481958126813781DB
:100D4000613039F0633029F09187808733872287BB
:100D5000089531872087938782870895FC01138245
:100D600012828FE091E0918380837583648357833F
:100D700046837187608753874287168A1586148653
:100D80001786168681E0858B848B2FEF3FEF338BA0
:100D9000228B318B208B878B108E128E118E0895B3
:100DA0002F923F924F925F926F927F928F929F927B
:100DB000AF92BF92CF92DF92EF92FF920F931F9369
:100DC000CF93DF93CDB7DEB728970FB6F894DEBF89
:100DD0000FBECDBF98878F833B012A01790181E047
:100DE00090E09C012E193F093A832983882799278F
:100DF0008E199F09DC01AA0FBB1FBE83AD83AF8193
:100E0000B885ED91FC9111970284F385E02DCD0119
:100E10000995A701440D551DAF81B885ED91FC9151
:100E200011970484F585E02D9801B301CD01099552
:100E3000A2014E195F09AF81B885ED91FC91119720
:100E40000484F585E02D9801B301CD010995B70122
:100E5000660D771DAF81B885ED91FC9111970484E3
:100E6000F585E02D9801A201CD010995B3016E1918
:100E70007F09AF81B885ED91FC9111970484F585C8
:100E8000E02D9801A201CD010995312C212C21E002
:100E900030E03C832B83AF81B885ED91FC912E141B
:100EA0003F040CF09EC029813A8137FD0EC031E02D
:100EB000E31AF1088D819E8102969E838D83A9811C
:100EC000BA81A80FB91FBA83A983BFEF2B1A3B0AB7
:100ED0002B813C812E5F3F4F3C832B8389819A81FC
:100EE000820F931F9A8389834101860C971C048487
:100EF000F585E02D98016701C40CD51CA601B4014D
:100F00008F81988509955301A218B308AF81B885E0
:100F1000ED91FC9111970484F585E02D9801A601CF
:100F2000B501CD010995AF81B885ED91FC9111977F
:100F30000484F585E02D98016201CE18DF08A60132
:100F4000B401CD010995AF81B885ED91FC91119760
:100F50000484F585E02D9801A601B501CD01099520
:100F60006101C40CD51CAF81B885ED91FC9111973E
:100F70000484F585E02D9801A6015701A60CB71C45
:100F8000B501CD010995AF81B885ED91FC9111971F
:100F90000484F585E02D9801A6016301CE18DF08D1
:100FA000B601CD010995420182189308AF81B88539
:100FB000ED91FC9111970484F585E02D9801A40131
:100FC000B501CD010995AF81B885ED91FC911197DF
:100FD0000484F585E02D9801A401B601CD010995A1
:100FE0005ACF0688F789E02D8F81988528960FB60D
:100FF000F894DEBF0FBECDBFDF91CF911F910F914F
:10100000FF90EF90DF90CF90BF90AF909F908F9028
:101010007F906F905F904F903F902F9009942F9208
:101020003F924F925F926F927F928F929F92AF9278
:10103000BF92CF92DF92EF92FF920F931F93CF93C5
:10104000DF93CDB7DEB76A970FB6F894DEBF0FBE59
:10105000CDBF9A8F898F7A8369834A01D22E1887F0
:101060000F833701BC2CDC0159962D913C915A9786
:101070002115310509F015C118968D919C9119978C
:10108000681779070CF0D7C11A968D919C91481773
:1010900059070CF0D0C14C2C512CB6E0CB9E600D02
:1010A000711D11247C876B87161617060CF0C3C1BF
:1010B000EA2DF0E0FA87E98793E0EE0FFF1F9A959B
:1010C000E1F7F88BEF87CF01840F951F18161906EB
:1010D0000CF0B1C1A98DBA8D58968C91811104C0C4
:1010E000BFEABD1508F4D394A98DBA8DED91FC919A
:1010F00011970284F385E02DCD010995B5E0DB9EC3
:10110000C0011124E981FA81FC83EB83312C212C6D
:101110009C0128583F4F388F2F8B4A2D50E05E8B13
:101120004D8BEF89F88DE20DF31D44919E828D82E7
:10113000D12CC12C69817A81620D731D7A8B698BE8
:10114000842F90E09C8B8B8BE98DFA8DA081B181EF
:1011500040FF82C0F1E0BF126FC0AF126DC01C969D
:10116000ED91FC912F813885A4014C0D5D1D69899D
:101170007A89898D9A8D0995EB89FC89F595E79592
:101180004E2F5FEFC51AD50A6D817E818D899E89AC
:10119000680F791F7E836D8398E0C916D10481F6AC
:1011A000AFEF2A1A3A0AEB81FC81E40DF51DFC83AE
:1011B000EB83F5E02F16310409F0B3CF2F8138858A
:1011C00026153705B9F0A98DBA8DED91FC91B1E0E6
:1011D000BB1257C0AB1255C069817A816B5F7F4FDC
:1011E0000088F189E02D830128E030E0A401898D99
:1011F0009A8D0995A98DBA8DED91FC91119706886C
:10120000F789E02DCD016A960FB6F894DEBF0FBEC8
:10121000CDBFDF91CF911F910F91FF90EF90DF90A5
:10122000CF90BF90AF909F908F907F906F905F9086
:101230004F903F902F9009941E96ED91FC91EF8076
:10124000F88409851A8592014D815E816B817C81CC
:10125000898D9A8D099590CF2F8138852615370570
:1012600009F48ACF31E0B31207C0A31205C01C965F
:10127000ED91FC91930178CF1E96ED91FC91730155
:10128000E0CF6B857C85641975090684F785E02DB0
:1012900073010F8518899201A401898D9A8D099592
:1012A000A9CFF90134969491329745915491D91A66
:1012B000B7E0DB9E400D511D1124F90125913491B9
:1012C0003C8B2B8BFA0125903490FA013296749066
:1012D00031963491398B329664903196449041E046
:1012E0004C1518F04A1508F07FC0662D062C000C2E
:1012F000770B7C836B83842D042C000C990B9E83CD
:101300008D83A98DBA8DED91FC9111970284F3859F
:10131000E02DCD010995512CD12CC12CEA2DF0E006
:10132000FA87E9872B2D30E03C872B87A401440DF9
:10133000511D47FC5A95588F4F8B69817A81660DF4
:10134000711D67FC7A957E876D877989C71608F0CD
:1013500051CF2C2D30E04D815E81420F531FA98566
:10136000BA854A9FC0014B9F900D5A9F900D112442
:10137000FC01E80DF91DF88BEF87852D612C4F8955
:10138000588D420F531F5E8B4D8B671408F050C071
:1013900044244394480E877041F4C1010196EB89BF
:1013A000FC89E20DF31DD4901C01D7FE19C0A98D54
:1013B000BA8DED91FC91662D70E0B1E0BB1219C0C1
:1013C000AB1217C02D853E85620F731F0484F5850F
:1013D000E02D2F8138854D895E89898D9A8D0995FB
:1013E000DD0C6394842DD1CF1E821D821C821B8252
:1013F00088CF4B815C81640F751FAB85BC856A9F6C
:10140000C0016B9F900D7A9F900D112469817A81A4
:10141000680F791F0684F785E02DEF80F884098531
:101420001A859D014F855889898D9A8D0995D8CF48
:10143000570CC3948ACF6A960FB6F894DEBF0FBEDE
:10144000CDBFDF91CF911F910F91FF90EF90DF9073
:10145000CF90BF90AF909F908F907F906F905F9054
:101460004F903F902F9008958F929F92AF92CF927E
:10147000EF92FF920F931F93CF93DF93EC01262FF0
:10148000898D9A8D009709F051C06A30D1F41D867C
:101490001C868D8948E0849F900111248E859F854C
:1014A000820F931F9F878E8781E090E0DF91CF911D
:1014B0001F910F91FF90EF90CF90AF909F908F90E2
:1014C00008956D3089F3CC88AD888F898823C1F069
:1014D0008C859D8536E0C39E800D911D1124488525
:1014E00059854817590764F44E855F851D861C860B
:1014F00038E0A39EC0011124840F951F9F878E871B
:10150000EA88FB88088919894E855F856C857D8509
:10151000CE010E940F082C898C859D8546E0249F72
:10152000800D911D11249D878C87BECF6A3069F490
:101530001D861C86FC013896E4912D898E859F8539
:10154000E29F800D911D1124ADCF6D3009F4ACCF19
:10155000FC0134963491631708F4A6CF3296E491D7
:10156000E61708F4A1CFFC01329685909490462F9F
:10157000431B342F47E0349F800C911C1124F4014D
:10158000329634913196E4913323A9F1EE2399F107
:10159000CC88F4013596E491AD884F89442301F15C
:1015A0000E2E000CFF0BE30FF11DCE9EA001CF9E6F
:1015B000500D11246C857D85460F571F68857985F0
:1015C000641775076CF44E855F851D861C86FC01CB
:1015D0003896E491AE9E400D511D11245F874E87D1
:1015E000EA88FB88088919894E855F856C857D8529
:1015F000CE010E940F08F4013496E4912C898C8569
:101600009D85E29F800D911D11248DCFCF92DF9299
:10161000EF92FF920F931F93CF93DF938C01EB0117
:101620006A01F22E0E94AE068BE391E0F8019183ED
:101630008083F58EFF2011F1279683E0D695C7951C
:101640008A95E1F7CC9D7001CD9DF00CDC9DF00CEE
:101650001124C7010E94B713F801948F838F00975C
:1016600079F0A70170E060E0DF91CF911F910F91B9
:10167000FF90EF90DF90CF900C94E414148E138EB3
:10168000DF91CF911F910F91FF90EF90DF90CF905E
:101690000895FC018BE391E091838083838D948D89
:1016A000009721F0258D21110C9453140895FC010D
:1016B00077FD3BC057FD39C0A481B5816A177B0710
:1016C000A4F586819781481759077CF5838D948D01
:1016D000009759F1FB01E770FF27E059FF4FE491B4
:1016E0009D01295F3F4F37FF02C0295F3F4FF3E065
:1016F00035952795FA95E1F7249FD001259FB00DE8
:10170000349FB00D112477FF02C0695F7F4F23E043
:10171000759567952A95E1F78A0F9B1F680F791FCA
:10172000DB018C91E82381E009F480E00895FC015D
:101730008689823071F08330D9F0813039F4848128
:1017400095810197841B950BAB01BC01CF010C94D3
:10175000570B8481958101979C01261B370BB9019A
:101760008681978101979C01241B350BA901EECF3F
:10177000868197810197861B970BBA01AC01E6CF52
:101780000F931F93CF93DF93DC011496ED91FC919F
:10179000EF012796D7FD2796F3E0D595C795FA95E3
:1017A000E1F7DB0177FD1796E3E0B595A795EA959C
:1017B000E1F7C49FF001C59FF00DD49FF00D1124F7
:1017C000AE0FBF1FFC01838D948DA80FB91F6770EA
:1017D0007727012B81F060597F4FFB01649190E0E6
:1017E00080E082179307BCF44C91462B4C93AC0FCE
:1017F000BD1F0196F6CF68597F4FFB01649190E0C1
:1018000080E0821793073CF44C9146234C93AC0F35
:10181000BD1F0196F6CFDF91CF911F910F910895D3
:10182000CF92DF92EF92FF920F931F93CF93DF93AC
:10183000FC01A481B581FD013796F7FD3796A3E041
:10184000F595E795AA95E1F7E49FE001E59FD00DB6
:10185000F49FD00D1124AB0177FF02C0495F5F4FA9
:10186000E3E055954795EA95E1F74C0F5D1FFC01C4
:10187000C38DD48DC40FD51F69019B0127703327F9
:10188000232BD1F0677020E0C114D10471F0E62F52
:10189000062E000CFF0BE059FF4FE4912E2BF1E0D8
:1018A000CF1AD1086F5F683079F7388101151105BB
:1018B000C9F1232B28832196C114D10451F176015B
:1018C00083E0F694E7948A95E1F787E0C822DD2467
:1018D00061E00115110509F460E0619570E0A70170
:1018E000CE010E94E414C114D10499F0E0E7F0E0C5
:1018F000960120593F4F90E08491982B31962E17F6
:101900003F07D1F7CE0DDF1D8881012B71F0982B99
:101910009883DF91CF911F910F91FF90EF90DF900F
:10192000CF90089520952323C5CF90959823F0CF8D
:101930000F931F93FA0137FF0AC0A90140955095F4
:10194000E41BF50BF7FD33C031952195310977FD87
:101950002BC0DC0118964D915C911997641775079F
:101960001CF51A964D915C91E417F507ECF4DF0134
:10197000A20FB31F1A161B06BCF4F7FF03C09D018C
:10198000F0E0E0E0DF01A20FB31F4A175B071CF491
:101990009A012E1B3F0BDC0156964C915697411134
:1019A0000DC0AF010E94C00B1F910F910895AF01B0
:1019B000421B530B9A01F0E0E0E0C9CF413071F4D3
:1019C00014964D915C91421B530BDA01AE1BBF0B79
:1019D000FD01AB01BF010E94100CE6CF423089F43B
:1019E00016964D915C911797421B530B4E1B5F0B44
:1019F0001496ED91FC913197DF01A61BB70BBD0149
:101A0000D1CF433089F616964D915C9141505109E2
:101A1000461B570BDFCF0F931F93CF93DF93FB0131
:101A2000BA0137FF0AC0A90140955095E41BF50B98
:101A3000F7FD34C031952195310977FD2AC0DC01CD
:101A40001A964D915C911B976417750714F51896BB
:101A50004D915C91E417F507E4F4DF01A20FB31F89
:101A60001A161B06B4F4F7FF03C09D01F0E0E0E096
:101A7000DF01A20FB31FA417B5071CF09A012E1B9C
:101A80003F0BEC014E89411110C0AB01BF010E9418
:101A9000100CDF91CF911F910F910895AF01421B60
:101AA000530B9A01F0E0E0E0C8CF413061F44C8183
:101AB0005D8141505109EA01C61BD70BBE01AF0140
:101AC0000E94C00BE6CF423071F4AC81BD814E81E3
:101AD0005F8141505109461B570BBD01621B730BBF
:101AE0006E1B7F0BD4CF4330A1F64E815F81421B2A
:101AF000530B4E1B5F0BE4CF8091D5019091D60123
:101B0000891B990B08959091D6018091D5012FEFF3
:101B10003FEF981748F4E92FF0E0E952FE4F20819B
:101B200030E09F5F9093D601C9010895E091D601FE
:101B30008091D501E81730F4F0E0E952FE4F808142
:101B400090E008958FEF9FEF08950895CF93DF936E
:101B50001F92CDB7DEB769832091B2012223F9F03D
:101B60002091B301203258F021E030E0FC013383B2
:101B7000228390E080E00F90DF91CF9108958091D3
:101B8000B401E82FF0E0EB54FE4F998190838F5F12
:101B90008093B4018093B30181E090E0ECCF61E0E9
:101BA000CE0101960E943E0EF7CFCF92DF92EF92C8
:101BB000FF920F931F93CF93DF937C01CB018A0198
:101BC0002091B201222389F0EB016B01C40ED51ED6
:101BD000CC15DD0569F06991D701ED91FC9101907B
:101BE000F081E02DC7010995F3CF642F0E943E0ECE
:101BF000C801DF91CF911F910F91FF90EF90DF907F
:101C0000CF900895E6EAF1E01382128288EE93E025
:101C1000A0E0B0E084839583A683B78387E691E054
:101C200091838083089510926A0281E08093680214
:101C30001092670261E082E10E94891361E083E112
:101C40000E948913E9EBF0E080818E7F80838081A0
:101C50008D7F808388E48093B80085E48093BC0006
:101C60000895ECEBF0E080818A7B808360E082E184
:101C70000E94891360E083E10C948913209119027A
:101C8000260F3327331F21323105E4F420916A02F5
:101C90002430D1F4FC0190E080E0861760F4A0913C
:101CA00019022191AC01455E5D4FA40FB52FB11D06
:101CB0002C930196F2CF80911902680F609319025C
:101CC00080E0089581E0089582E0089585EC809396
:101CD000BC0010926A020895CF93DF9391E0909335
:101CE0006202882361F0C091B800D091BA000E94CE
:101CF000310E0E94130ED093BA00C093B800DF914A
:101D0000CF91089585ED8093BC00809163029091FE
:101D10006402A0916502B09166020796A11DB11DF3
:101D200023E0B695A795979587952A95D1F72091A9
:101D3000BC0024FF1CC0409163025091640260917A
:101D4000650270916602452B462B472B81F3009765
:101D5000A105B10541F02AE22A95F1F700C00197EB
:101D6000A109B109E4CF809161020C946C0E10922C
:101D70006A0208951F920F920FB60F9211242F93AB
:101D80003F934F935F936F937F938F939F93AF9303
:101D9000BF93EF93FF938091B900887F803609F459
:101DA0004CC008F03FC0883209F4A8C018F5803153
:101DB00009F49CC0B8F4882309F4F9C0883009F408
:101DC00095C0FF91EF91BF91AF919F918F917F91BE
:101DD0006F915F914F913F912F910F900FBE0F9098
:101DE0001F901895883109F489C0803251F780938B
:101DF000F70115C0803409F49EC048F48033B9F36C
:101E00008833F9F68093F7010E94660EDACF8035A9
:101E100009F485C0883509F496C0883491F60E948B
:101E2000820ECFCF883909F48CC038F5883729F075
:101E300050F4883611F0803721F683E080936A02EF
:101E40001092F80157C0883809F47BC0803919F026
:101E5000803809F0B6CF8091F801803208F071C067
:101E6000E091F80181E08E0F8093F8018091BB0032
:101E7000F0E0E750FE4F80833DC0803B39F0E0F456
:101E8000803A09F479C0883A09F09BCF84E08093C6
:101E90006A0210921A0210921902E0915F02F09108
:101EA000600209958091190281110FC081E0809331
:101EB000190210921B0209C0803C09F476C0883CCC
:101EC00009F473C0883B09F07CCFE0911A0281E0ED
:101ED0008E0F80931A02F0E0E55EFD4F80818093C3
:101EE000BB0090911A028091190229C08091690269
:101EF0008093BB0085EC8093BC0063CF90913C0243
:101F000080913B02981758F5E0913C0281E08E0FDA
:101F100080933C02F0E0E35CFD4F8081E9CFE091EB
:101F20003C0281E08E0F80933C028091BB00F0E088
:101F3000E35CFD4F808390913C0280913B029817B7
:101F4000C8F285E8D8CFE0913C0281E08E0F809303
:101F50003C028091BB00F0E0E35CFD4F8083809108
:101F6000680281115CCF81E08093670284EA8093EC
:101F7000BC0010926A0225CF0E94660E8091F80183
:101F8000803230F4E091F801F0E0E750FE4F10822B
:101F90006091F80170E0E0915D02F0915E0289EFDE
:101FA00091E009951092F8010CCF85ECE0CF1092EA
:101FB000F70135CFFC01918D228D892F90E0805C57
:101FC0009F4F821B91098F7399270895FC01918D72
:101FD000828D981731F0828DE80FF11D858D90E08C
:101FE00008958FEF9FEF0895FC01918D828D9817D2
:101FF00061F0A28DAE0FBF2FB11D5D968C91928DB9
:102000009F5F9F73928F90E008958FEF9FEF0895E9
:10201000FC01538D448D252F30E0842F90E0821BEE
:10202000930B541710F0CF960895019708958EE6FC
:1020300091E1892B49F080E090E0892B29F00E9402
:102040006E1181110C9400000895FC01A48DA80F5D
:10205000B92FB11DA35ABF4F2C91848D90E00196EA
:102060008F739927848FA689B7892C93A089B1890A
:102070008C91837080648C93938D848D981306C0AB
:102080000288F389E02D80818F7D80830895CF932E
:10209000DF93EC01888D8823B9F0AA89BB89E88990
:1020A000F9898C9185FD03C0808186FD0DC00FB636
:1020B00007FCF7CF8C9185FFF2CF808185FFEDCFB4
:1020C000CE010E942510E9CFDF91CF910895EF92C4
:1020D000FF920F931F93CF93DF93EC0181E0888FE2
:1020E0009B8D8C8D98131AC0E889F989808185FFB2
:1020F00015C09FB7F894EE89FF896083E889F98954
:1021000080818370806480839FBF81E090E0DF9155
:10211000CF911F910F91FF90EF900895F62E0B8DA8
:1021200010E00F5F1F4F0F731127E02E8C8D8E1163
:102130000CC00FB607FCFACFE889F989808185FFCA
:10214000F5CFCE010E942510F1CFEB8DEC0FFD2FC6
:10215000F11DE35AFF4FF0829FB7F8940B8FEA8985
:10216000FB8980818062CFCFCF92DF92EF92FF9286
:102170001F93CF93DF93EC016A017B01122FE88953
:10218000F98982E08083C11481EED806E104F1046C
:10219000A1F060E079E08DE390E0A70196010E9454
:1021A000EB1421503109410951095695479537954E
:1021B0002795211580E1380798F0E889F989108280
:1021C00060E874E88EE190E0A70196010E94EB14AC
:1021D0002150310941095109569547953795279561
:1021E000EC85FD853083EE85FF852083188EEC8994
:1021F000FD891083EA89FB89808180618083EA8977
:10220000FB89808188608083EA89FB89808180687E
:102210008083EA89FB8980818F7D8083DF91CF91E4
:102220001F91FF90EF90DF90CF9008951F920F9233
:102230000FB60F9211242F938F939F93EF93FF93D9
:10224000E0917B02F0917C028081E0918102F0912B
:10225000820282FD1BC09081809184028F5F8F7308
:1022600020918502821741F0E0918402F0E0E55967
:10227000FD4F958F80938402FF91EF919F918F91F5
:102280002F910F900FBE0F901F9018958081F4CF63
:102290001F920F920FB60F9211242F933F934F93DB
:1022A0005F936F937F938F939F93AF93BF93EF93BE
:1022B000FF938BE692E00E942510FF91EF91BF9172
:1022C000AF919F918F917F916F915F914F913F91CE
:1022D0002F910F900FBE0F901F9018958BE692E0F4
:1022E0000E94DA0F21E0892B09F420E0822F089563
:1022F000EBE6F2E01382128288EE93E0A0E0B0E019
:1023000084839583A683B78389E791E09183808353
:1023100085EC90E09587848784EC90E097878687AA
:1023200080EC90E0918B808B81EC90E0938B828BA2
:1023300082EC90E0958B848B86EC90E0978B868B7B
:10234000118E128E138E148E0895AF92BF92CF927B
:10235000DF92EF92FF920F931F93CF93DF936C0165
:102360007B018B01040F151FEB015E01AE18BF0846
:10237000C017D10759F06991D601ED91FC910190F8
:10238000F081E02DC6010995892B79F7C501DF9110
:10239000CF911F910F91FF90EF90DF90CF90BF9062
:1023A000AF900895FB0101900020E9F73197AF014C
:1023B000461B570BDC01ED91FC910280F381E02D6F
:1023C00009946115710511F00C94D21190E080E030
:1023D0000895DC01ED91FC910190F081E02D0994CC
:1023E00068E071E00C94D2118F929F92AF92BF92ED
:1023F000EF92FF920F931F93CF93DF93CDB7DEB78A
:10240000A1970FB6F894DEBF0FBECDBF7C01FA01D5
:10241000CB0119A2223008F42AE08E010F5D1F4F74
:10242000822E912CB12CA12CBF01A50194010E94F8
:10243000EB14F901CA016A300CF5605DD8016E93A6
:102440008D01232B242B252B79F790E080E010972A
:1024500021F0BD01C7010E94D211A1960FB6F894D8
:10246000DEBF0FBECDBFDF91CF911F910F91FF90C7
:10247000EF90BF90AF909F908F900895695CDECFF2
:10248000CF92DF92EF92FF920F931F93CF93DF9340
:102490002115310581F4DC01ED91FC910190F08171
:1024A000E02D642FDF91CF911F910F91FF90EF905E
:1024B000DF90CF9009942A30310501F52AE077FFAB
:1024C0001DC06A017B01EC016DE20E94E9118C01E3
:1024D00044275527BA014C195D096E097F092AE086
:1024E000CE010E94F411800F911FDF91CF911F91B7
:1024F0000F91FF90EF90DF90CF900895DF91CF91F3
:102500001F910F91FF90EF90DF90CF900C94F411FA
:102510009A01AB01770F660B770B0C9440120F9367
:102520001F93CF93DF93EC010E9488128C01CE01A0
:102530000E94F011800F911FDF91CF911F910F9199
:1025400008952115310541F4DC01ED91FC910190D4
:10255000F081E02D642F09940C94F4119A01462F18
:1025600050E070E060E00C94A1120F931F93CF93A2
:10257000DF93EC010E94AE128C01CE010E94F0119B
:10258000800F911FDF91CF911F910F9108950E94AD
:10259000DC140E94C71208950E9425130E94CB12DA
:1025A0000E941B03C7E1D0E10E940D032097E1F3D5
:1025B0000E941710F9CF1F920F920FB60F9211249D
:1025C0002F933F938F939F93AF93BF938091090372
:1025D00090910A03A0910B03B0910C033091080372
:1025E00023E0230F2D3758F50196A11DB11D20932F
:1025F00008038093090390930A03A0930B03B093FD
:102600000C0380910D0390910E03A0910F03B091E4
:1026100010030196A11DB11D80930D0390930E032D
:10262000A0930F03B0931003BF91AF919F918F912F
:102630003F912F910F900FBE0F901F90189526E895
:10264000230F0296A11DB11DD2CF789484B582606C
:1026500084BD84B5816084BD85B5826085BD85B546
:10266000816085BDEEE6F0E0808181608083E1E8F5
:10267000F0E010828081826080838081816080832D
:10268000E0E8F0E0808181608083E1EBF0E0808130
:1026900084608083E0EBF0E0808181608083EAE702
:1026A000F0E080818460808380818260808380818B
:1026B000816080838081806880831092C10008954A
:1026C000833081F028F4813099F08230A9F00895A8
:1026D0008730A9F08830C9F08430B1F4809180004F
:1026E0008F7D03C0809180008F7780938000089554
:1026F00084B58F7784BD089584B58F7DFBCF80919D
:10270000B0008F778093B00008958091B0008F7DE6
:10271000F9CF1F93CF93DF93282F30E0F901E858CA
:10272000FA4F8491F901E457FA4FD491F901E05638
:10273000FA4FC491CC23A9F0162F81110E94601387
:10274000EC2FF0E0EE0FFF1FEC54FA4FA591B4917F
:102750008FB7F894EC91111108C0D095DE23DC936B
:102760008FBFDF91CF911F910895DE2BF8CF0F938C
:102770001F93CF93DF938230910510F482E090E0B5
:10278000E0911303F091140330E020E0B0E0A0E00A
:10279000309799F42115310509F44AC0281B390BEB
:1027A00024303105D8F58A819B816115710589F145
:1027B000FB0193838283FE0111C04081518102811C
:1027C000138148175907E0F04817590799F41097F3
:1027D00061F012960C93129713961C933296CF01C8
:1027E000DF91CF911F910F910895009313031093E0
:1027F0001403F4CF2115310551F04217530738F077
:10280000A901DB019A01BD01DF01F801C1CFEF0190
:10281000F9CF9093140380931303CDCFFE01E20F01
:10282000F31F819391932250310939832883D7CFA5
:102830002091110330911203232B41F420910201C6
:102840003091030130931203209311032091000172
:10285000309101012115310541F42DB73EB740916A
:10286000040150910501241B350BE0911103F091F7
:102870001203E217F307A0F42E1B3F0B28173907AA
:1028800078F0AC014E5F5F4F2417350748F04E0FCC
:102890005F1F5093120340931103819391939FCF35
:1028A000F0E0E0E09CCFCF93DF930097E9F0FC01EC
:1028B000329713821282A0911303B0911403ED0199
:1028C00030E020E01097A1F420813181820F931F26
:1028D00020911103309112032817390709F061C0C4
:1028E000F0931203E0931103DF91CF910895EA0171
:1028F000CE17DF07E8F54A815B819E01411551053E
:10290000B1F7E901FB83EA8349915991C40FD51FBF
:10291000EC17FD0761F4808191810296840F951F69
:10292000E90199838883828193819B838A83F0E084
:10293000E0E012968D919C9113970097B9F52D9137
:102940003C911197CD010296820F931F20911103A4
:10295000309112032817390739F6309751F5109244
:10296000140310921303B0931203A0931103BCCF6E
:10297000D383C28340815181840F951FC817D90723
:1029800061F44E5F5F4F88819981480F591F5183D1
:1029900040838A819B81938382832115310509F0CD
:1029A000B0CFF0931403E09313039ECFFD01DC013D
:1029B000C0CF13821282D7CF81E090E0F8940C94BC
:1029C0001315F8940C941315DC0101C06D9341505C
:1029D0005040E0F70895A1E21A2EAA1BBB1BFD018F
:1029E0000DC0AA1FBB1FEE1FFF1FA217B307E407EE
:1029F000F50720F0A21BB30BE40BF50B661F771F46
:102A0000881F991F1A9469F7609570958095909525
:102A10009B01AC01BD01CF010895EE0FFF1F059092
:102A2000F491E02D099412E0C2EED2E004C0FE0160
:102A30000E940D152196C33ED107C9F7F894FFCF28
:102A400000001503800041000D0A00000000003462
:102A50000AA51174037703C9122504260445042D21
:102A6000043904780325049906880555048E04C7A3
:102A7000040C052106290500000000340AA5117484
:102A800003770389052504260445042D04390478B9
:102A900003250499068805980C0B0DC704FA052137
:102AA00006290500000000A60DD50D7403A50D7CB8
:102AB0000D830D960D000000006710A5110810474A
:082AC00010DA0FF40FE60F001D
:00000001FF
