:100000000C9482020C94AA020C94AA020C94AA02E8
:100010000C94AA020C94AA020C94AA020C94AA02B0
:100020000C944C030C94AA020C94AA020C94AA02FD
:100030000C94AA020C94AA020C94AA020C94AA0290
:100040000C94B0150C94AA020C94E6130C9418149A
:100050000C94AA020C94AA020C94AA020C94AA0270
:100060000C94AA020C94AA021C0026220B220BEE6E
:10007000026608EE02EE02806E0000001E002638C6
:10008000081C040E022A060E020E020032000000B6
:1000900017002860095802B004580258025802108C
:1000A0002D000000130026801180113002900630D0
:1000B000023002006E00000007002600238011308D
:1000C00002900630023002006E00F7071B00261F68
:1000D000015D033E023E021F015D03A06E000000B1
:1000E000060026E02070100E022A060E022602806C
:1000F0006E00E2070B0025800DC006B0011005B0B0
:1001000001B0010082000000050026E02070100E02
:10011000022A060E020E020041000000040026041E
:10012000010C0304011C0704010C03006E00000015
:10013000190026F603BC050802BC050802D401001C
:100140004B0000007573002C204475726174696F58
:100150006E3D007573002C204761703D0052657044
:10016000656174004175746F2D002C2000204C5384
:100170004220666972737400204D53422066697292
:1001800073740020626974732C002C20002C2052A0
:1001900061772D446174613D3078002C20546F6785
:1001A000676C653D31002C2050617269747920665E
:1001B00061696C002C2045787472613D3078002CA8
:1001C00020436F6D6D616E643D3078002041646442
:1001D000726573733D3078002062697473202869FA
:1001E0006E636C2E2067617020616E642073746191
:1001F00072742920726563656976656400204861C0
:1002000073683D30780050726F746F636F6C3D009F
:100210004F766572666C6F7700496620796F75203E
:1002200067657420756E65787065637465642072A7
:100230006573756C74732C2074727920746F2069E7
:100240006E63726561736520746865205245434F23
:1002500052445F4741505F4D4943524F5320696EAE
:1002600020495272656D6F74652E682E0042757458
:100270002069742063616E206265204F4B20666F99
:100280007220736F6D652079657420756E7375705B
:10029000706F727465642070726F746F636F6C73CB
:1002A0002C20616E6420657370656369616C6C7984
:1002B00020666F7220726570656174732E00207500
:1002C00073206B6E6F776E20666F7220696D706C35
:1002D000656D656E7465642070726F746F636F6CAA
:1002E00073206C696B65204E45432C20536F6E79EB
:1002F0002C20524335206574632E2E002075732008
:100300006265747765656E2074776F2064657465C7
:1003100063746564207472616E736D697373696F61
:100320006E20697320736D616C6C657220746861F6
:100330006E20746865206D696E696D616C206761FF
:1003400070206F6620005370616365206F66200027
:100350009D04920484047E047804740471046D0482
:100360006804620458044F04400431042404100457
:100370000C0408040304FB03F103E703E103DC03BB
:10038000CF03C603C103B703AF03A703A2039803B8
:1003900092034F54484552004F70656E4C4153498B
:1003A000520046415354004D6172616E747A005799
:1003B00068796E746572004D616769517565737413
:1003C000004C65676F00426F736557617665004248
:1003D000616E67264F6C756673656E00536F6E793C
:1003E0000053686172700053616D73756E673438C5
:1003F0000053616D73756E674C470053616D737583
:100400006E67005243364100524336005243350076
:100410004B617365696B796F5F4D69747375626960
:10042000736869004B617365696B796F5F4A564306
:10043000004B617365696B796F5F5368617270001F
:100440004B617365696B796F5F44656E6F6E004BCE
:10045000617365696B796F0050616E61736F6E696E
:1004600063004F6E6B796F004E454332004E45433B
:10047000004C47004A56430044656E6F6E00417061
:10048000706C650050756C736544697374616E635C
:10049000650050756C7365576964746800554E4B00
:1004A0004E4F574E000000000800020100000304F8
:1004B00007000000000000000001020408102040B6
:1004C0008001020408102001020408102004040422
:1004D00004040404040202020202020303030303ED
:1004E0000300000000230026002900000000002572
:1004F0000028002B0000000000240027002A000034
:10050000A012481411241FBECFEFD8E0DEBFCDBF2C
:1005100011E0A0E0B1E0E6E1FFE202C005900D923B
:10052000AA32B107D9F722E0AAE2B1E001C01D92D8
:10053000AB3EB207E1F712E0C2E8D2E004C0219777
:10054000FE010E948317C038D107C9F70E94A11588
:100550000C94F8160C940000809143028F3F11F424
:100560002D98089560E00C94CA1682E08093B00044
:100570008093B10084E68093B3008093B40010921E
:10058000B2000895809343028F3F11F4259A089595
:1005900061E00C948E16882349F0809143028F3FCE
:1005A00011F42D9A089561E00C94CA160C94AC02D3
:1005B000CF93FC01A281B381CC918481C823858132
:1005C0009681258136812F3F3F4F19F00196968302
:1005D0008583208121110EC0C1113DC0813A910552
:1005E00030F01786928B818B81E0808B808316821E
:1005F000158231C0213091F4CC2369F1A0892A0FF2
:10060000208BAE0FBF2FB11D8F3F910519F010F059
:100610008FEF90E053968C9382E0E8CF223089F5FB
:10062000A089813A910510F4A73CF8F0A83C10F09D
:1006300081E087878189928990933702809336027F
:1006400080898093350283E080830780F085E02DE8
:10065000309709F00995809144028823B9F081E030
:10066000C11180E0CF910C94CB02C111F4CF91E085
:100670009A0F908BAE0FBF2FB11D53968C9381E0D4
:10068000B5CF233041F7C111E6CFB1CFCF91089557
:100690008FE291E00C94D8021F920F920FB60F9246
:1006A00011242F933F934F935F936F937F938F9377
:1006B0009F93AF93BF93EF93FF930E944803FF91E3
:1006C000EF91BF91AF919F918F917F916F915F91CA
:1006D0004F913F912F910F900FBE0F901F90189543
:1006E000DC01862F11966C931197262F30E0F901CB
:1006F000E754FB4FE4911496EC931497F901E353FC
:10070000FB4FE491F0E0EE0FFF1FEF51FB4F2591FF
:10071000349113963C932E93129760E00C948E16AE
:1007200060E00C947003FC012081233009F41082F6
:100730000895CF93DF93EC010E94B502CE010E9491
:10074000930384E080937000DF91CF9108950F931D
:100750001F93CF93DF93EC01042F122F0E9470039D
:1007600000934402812F0E94C202CE01DF91CF91FB
:100770001F910F910C949903CF93DF93FC01478550
:10078000EB5FFE4F9C0125523F4FEC01C152DF4F02
:10079000DC01A352BF4F4423C1F040E44083F90180
:1007A00011821082198218821D921C92FC01ED5157
:1007B000FF4F10821182128213828D5F9E4FFC01C7
:1007C00011821082DF91CF9108951082F90140814A
:1007D0005181FC01E75FFE4F51834083488159817D
:1007E0003496518340834D915C9111973297518398
:1007F0004083D5CF8AE0849FF001859FF00D1124BE
:100800009B0193E0220F331F9A95E1F7E217F3075C
:1008100078F0869F9001879F300D112483E0440F6C
:10082000551F8A95E1F72417350720F081E00895D8
:1008300080E0089582E00895BF92CF92DF92EF9218
:10084000FF920F931F93CF93DF93EC01FC01EA5FBC
:10085000FE4F008180E0063008F43FC0BB24B39413
:1008600085ECC82E8DE9D82E8CE1E82E81E8F82E93
:1008700010E08B2D90E09C012E5F3F4F2017310739
:10088000DCF42C0F3D1FF901438950E08C0F9D1FB4
:10089000FC01638970E0CE010E94FA03E82FA701F2
:1008A000960163E971E080E091E00E9404176B011A
:1008B0007C01CE26B394DDCFFE01ED51FF4FC08207
:1008C000D182E282F382B09680E290E091838083CD
:1008D000C552DF4F1982188281E0DF91CF911F91BD
:1008E0000F91FF90EF90DF90CF90BF900895FC01A3
:1008F000E95FFE4F208131812617370720F43297B8
:10090000808181608083089522E3FC012E9FC001D5
:100910002F9F900D1124480F591F76956795769556
:100920006795CB01880F991F860F971F841795072E
:1009300050F485E0869F9001879F300D112481E05F
:100940002417350708F480E0089522E3FC012E9F68
:10095000C0012F9F900D1124480F591F7695679560
:1009600076956795CB01880F991F8417950750F4EA
:1009700086E0869F9001879F300D112481E0241727
:10098000350708F480E008954CEE5FEF0C94840482
:100990004CEE5FEF0C94A50444E150E00C94840409
:1009A0002F923F924F925F926F927F928F929F927F
:1009B000AF92BF92CF92DF92EF920F931F93CF939C
:1009C000DF936C01162F1901C42FD0E06396C80F76
:1009D000D91F412C512C32014394812C912C54016C
:1009E0001123F1F00023B1F08881B10190E00E9461
:1009F000C404EE2071F1880C991CAA1CBB1C88232E
:100A000011F0689480F8440C551C661C771C11503A
:100A10002296E6CF8981B10190E00E94CC04E9CF13
:100A2000F601ED51FF4F80829182A282B382DF9165
:100A3000CF911F910F91EF90DF90CF90BF90AF902B
:100A40009F908F907F906F905F904F903F902F90EE
:100A500008958823C1F284289528A628B728D3CFE3
:100A6000EF920F93DC01FB01642F422F9785892FB2
:100A7000807194FF10C027813085E92EEE1CEE2492
:100A8000EE1C01E0811101C000E0CD010E94D00404
:100A90000F91EF90089521853285EFCFEF92FF926D
:100AA0000F931F93CF93DF93CDB7DEB764970FB645
:100AB000F894DEBF0FBECDBF8C01F42EE22E44E1D0
:100AC00050E0CE0101960E94FB162E2D4F2DBE0147
:100AD0006F5F7F4FC8010E94300564960FB6F8948F
:100AE000DEBF0FBECDBFDF91CF911F910F91FF9061
:100AF000EF9008950F931F93CF93DF938C01EB0139
:100B0000FB01339665917491FC01848990E00E9409
:100B1000C404882369F0FE01359665917491F8014B
:100B2000858990E0DF91CF911F910F910C94CC04B7
:100B300080E0DF91CF911F910F9108950F931F9344
:100B4000CF93DF93EB01FC01E552FF4F2081318110
:100B5000233031050CF043C08C01095F1E4FF801B2
:100B6000808191818C329140D0F5CB010E94DC14C0
:100B700066E473E0CE010E94B114F8018081918196
:100B800022E3289FB001299F700D11244AE050E014
:100B9000CE010E949A156CEF72E0CE010E94B11452
:100BA0004AE050E068E97AE3CE010E9486156EEBD8
:100BB00072E0CE010E94E0146DE672E0CE010E9468
:100BC000E01469E172E0CE010E94E014CE010E94BF
:100BD000DC1481E0DF91CF911F910F91089580E0A7
:100BE000F9CF85529F4FDC01ED91FC91EE0FFF1F75
:100BF000E05BFC4F859194910895AF92BF92CF92A4
:100C0000DF92EF92FF920F931F93CF93DF938C01AC
:100C1000EB01E42EFC01EB5FFE4FF08060E172E03F
:100C2000F6FC3AC066E072E0CE010E94B114C80141
:100C30000E94F105BC01CE010E94B114F801E552F9
:100C4000FF4F8081918198012D513F4F6901BB96E3
:100C50005F010097E9F56DEF71E0CE010E94B114DC
:100C6000F601408151816281738120E130E0CE0143
:100C70000E948D1560E2CE010E94D514F5016081BD
:100C800070E06F5F7F4F759567954AE050E0CE0149
:100C90000E94861568ED71E0CE010E94E014EE20FE
:100CA00009F4DDC0F801E552FF4F80819181892B65
:100CB00009F4D5C0BE01C801DF91CF911F910F91FA
:100CC000FF90EF90DF90CF90BF90AF900C949E0577
:100CD00001970297E8F16CEC71E0CE010E94B1142B
:100CE000F801E352FF4F6081718140E150E0CE0195
:100CF0000E949A156FEB71E0CE010E94B114F801C9
:100D0000E152FF4F6081718140E150E0CE010E94CD
:100D10009A15F4FE0FC064EB71E0CE010E94B1148D
:100D2000F801EF51FF4F6081718140E150E0CE0149
:100D30000E949A15F2FE05C066EA71E0CE010E949B
:100D4000B114F3FE05C06BE971E0CE010E94B1144D
:100D5000F0FE09C0F60180819181A281B381892BC7
:100D60008A2B8B2B61F16DE871E0CE010E94B114EA
:100D7000F601408151816281738120E130E0CE0132
:100D80000E948D156AE871E0CE010E94B114F8014D
:100D9000ED5FFE4F608171814AE050E0CE010E941C
:100DA0009A1563E871E0CE010E94B11468E771E022
:100DB000F7FC02C06DE671E0CE010E94B1148F2DE8
:100DC000837089F06AE671E0CE010E94B114F1FEF1
:100DD00005C064E671E0CE010E94B1146DE571E0DA
:100DE000CE010E94B11466E571E0CE010E94B114FB
:100DF000F801E95FFE4F20813181A2E3B0E00E945B
:100E00006917AB01BC012AE030E0CE010E948D15CC
:100E100063E571E0CE010E94B114F5012081F80173
:100E2000749681E0D12CC12C821728F49191C90EBF
:100E3000D11C8F5FF9CF67E471E0CE010E94B1143D
:100E40009601A2E3B0E00E946917AB01BC012AE061
:100E500030E0CE010E948D1564E471E01DCF80E08A
:100E6000DF91CF911F910F91FF90EF90DF90CF9086
:100E7000BF90AF9008958F929F92AF92BF92CF9202
:100E8000DF92EF92FF921F93CF93DF93EC016B0100
:100E90000E94FA154B015C01F12CE12C88E0C80E90
:100EA000D11CE11CF11CC80CD91CEA1CFB1C10E075
:100EB000F89461E088810E94CA168B819C810E940F
:100EC0001F1660E088810E94CA167894111103C031
:100ED00081E00E94CB0289819A81880E991EA11C13
:100EE000B11C0E94FA156C157D058E059F0568F0F2
:100EF000DF91CF911F91FF90EF90DF90CF90BF9047
:100F0000AF909F908F900C94AC0211E0681579051A
:100F10008A059B0530F3CCCF8F929F92AF92BF9200
:100F2000CF92DF92EF92FF924B015C010E94FA1583
:100F30006B017C0124E0C21AD108E108F1080E948B
:100F4000FA156C197D098E099F09681579058A05BE
:100F50009B05A8F3FF90EF90DF90CF90BF90AF90EC
:100F60009F908F900895BC0190E080E00C948C07D6
:100F7000CF93DF93EC01862F869590E088519C4FAC
:100F800070E00E941417CB017A8369832EE1289FB9
:100F9000B001299F700D11246E5C7F4F90E080E0BE
:100FA0006C5271408109910924E630E040E050E044
:100FB0000E944A173C832B8361E08881DF91CF91A7
:100FC0000C948E1666E28AE291E00E94B80760EE09
:100FD00070E28AE291E00E943B0788E398E00E9479
:100FE000B3076EE072E08AE291E00C943B0766E2A0
:100FF0008AE291E00E94B80760E073E28AE291E041
:101000000E943B0780EC98E00E94B30760E372E027
:101010008AE291E00C943B071F93CF93DF93EC019E
:1010200060E371E00E947A05811106C010E0812F13
:10103000DF91CF911F910895FE01EA5FFE4F8081FD
:101040008432A1F723E040E160E371E0CE010E9429
:101050004E058EA968E072E090E00E94C404182F4B
:10106000882321F3FE01ED51FF4F80819181982764
:101070009F3FE1F6349790E091838083B49680E1BE
:1010800090E091838083B89789E190E09183808399
:1010900068ED74E0CE010E947704C9CFCF92DF9251
:1010A000EF92FF92CF93DF93EC01FC01EA5FFE4FDA
:1010B0008081803209F075C08C898A3008F071C057
:1010C00021E04FE06CE171E0CE010E944E05FE018F
:1010D000ED51FF4F80819181A281B38136979C01B0
:1010E0002F713327318320836C017D0185E0F694D5
:1010F000E794D794C7948A95D1F73D2D3370BE01FC
:1011000061527F4FA6015527DB014D935C93BA9640
:101110000190F081E02DAE014D5E5E4FE536F4406A
:10112000E8F5FE01EB5FFE4F208122602083DA01AB
:101130002C912F5F2C9320FF18C0213011F021E05B
:101140002083AE01435F5E4FDA013C9111964C91D2
:101150002C2D2095231719F0208124602083FB017A
:10116000308341833D2D30953370FE01E552FF4FB2
:1011700086E190E0311102C084E090E091838083A9
:10118000CD5FDE4F8FE090E09983888381E0DF912F
:10119000CF91FF90EF90DF90CF900895DA011C92ED
:1011A000E4CF80E0F4CFEF92FF921F93CF93DF93D1
:1011B000EC01FC01EA5FFE4F8081823259F08432FB
:1011C00009F445C010E0812FDF91CF911F91FF906E
:1011D000EF900895FE01E75FFE4FE080F18025E08B
:1011E000E216F10409F061C03297808191818C3E52
:1011F0009C4508F05AC08C896EE072E090E00E9435
:10120000C404182F882309F450C08CA96EE072E042
:1012100090E00E94C4048823B1F2FE01EB5FFE4F10
:1012200091E09083B897DE01A55FBE4F2D913C9170
:10123000119731832083329612962D913C91318300
:101240002083C552DF4FF982E882182FBCCF68E0B7
:1012500071E0CE010E947A05182F882309F4B2CFDD
:1012600023E040E168E071E0CE010E944E05FE01FE
:10127000ED51FF4F80819181A281B3813497492F35
:101280005A2F6B2F77275183408332979927918369
:101290008083B69680E190E091838083C552DF4FD2
:1012A00085E090E0998388838ECF11E08CCFAF9258
:1012B000BF92CF92DF92EF92FF920F931F93CF9343
:1012C000DF93EC01FC01EA5FFE4F8081843669F018
:1012D000C12C8C2DDF91CF911F910F91FF90EF903A
:1012E000DF90CF90BF90AF90089564EF70E0CE0193
:1012F0000E947A05C82E882359F323E040E164EF69
:1013000070E0CE010E944E055E0133EEA30EB11CCB
:10131000F501D0800D2D1181FAE0EF2EF12C023075
:10132000F0E21F07F9F0EDE0EE2EF12C0A3A3AE573
:101330001307C1F07CE0E72EF12C043582E3180797
:1013400089F06EE0E62EF12C0330E1E01E0751F04B
:10135000ABE0EA2EF12C0332FBEC1F0719F45FE03F
:10136000E52EF12CD1268D2D82958F70D82623E283
:1013700040E264EF70E0CE010E944E05F5018081ED
:101380009181A281B381FE01E352FF4F9C0144E0B1
:10139000369527954A95E1F73183208332962A2F97
:1013A00030E031832083282F2A2729273D2D3F70C5
:1013B000482F4F70341719F034E0B6963083FBE0B5
:1013C000EF16F10449F4FE01EB5FFE4F308130610E
:1013D0003083B497118300832B1731F0FE01EB5F4C
:1013E000FE4F808184608083FE01ED5FFE4F80E3CD
:1013F00090E091838083B897F182E0826AE377E09E
:10140000CE010E94770465CF1F93CF93DF93EC0149
:101410008C896EE970E090E00E94C804182F882340
:1014200009F45CC08D8962E074E090E00E94CC0415
:10143000182F882309F452C0FE01EA5FFE4F808115
:10144000843209F050C023E040E160E071E0CE0159
:101450000E943005FE01EB5FFE4F80E88083DE01D5
:10146000AD51BF4F9C9111968C91292F382F482F49
:1014700042954F708F7054E0369527955A95E1F755
:101480002F70392F3F709FE09427982792273917A4
:1014900011F094E89083DE01A95FBE4F6D917C91BD
:1014A000683F714118F4908192609083FE01E3528D
:1014B000FF4F40831182329630E1839FC001112497
:1014C000822B91838083B49680E190E09183808326
:1014D000C552DF4F8AE190E099838883812FDF91A5
:1014E000CF911F91089510E0F9CFAF92BF92CF92A4
:1014F000DF92EF92FF920F931F93CF93DF93EC0154
:10150000FC01EA5FFE4F00810C3319F0043009F052
:10151000B2C08C8960EE70E290E00E94C404182F83
:101520008823B9F1043009F040C0FE01E75FFE4FA7
:10153000E080F18086E0E816F10409F09CC08D8916
:1015400068E378E090E00E94CC04182F882309F12A
:101550008E896EE072E090E00E94C404182F882308
:10156000C1F0FE01EB5FFE4F81E88083B897DE019A
:10157000A55FBE4F8D919C91119791838083329688
:1015800012968D919C9191838083C552DF4FF98291
:10159000E882812FDF91CF911F910F91FF90EF9003
:1015A000DF90CF90BF90AF9008958D8960E770E194
:1015B00090E00E94CC04182F882359F323E04CE1DB
:1015C00060EE70E0CE010E944E055E01EBEFAE1AB8
:1015D000EEEFBE0A80E8F5018083DE01AD51BF4F1A
:1015E0008D919D910D90BC91A02D6C017D0144E0E9
:1015F000F694E794D794C7944A95D1F7B6019E0123
:1016000021523F4FF901D182C0826C017D0154E12A
:10161000F694E794D794C7945A95D1F7225031099C
:10162000F901D182C08244E050E020E0362F3F70C3
:10163000230F34E0769567953A95E1F741505109CB
:10164000A9F782278F709927AA27BB27892B8A2B76
:101650008B2B19F084E8F5018083FE01E552FF4FE2
:1016600086E090E091838083CD5FDE4F8CE190E057
:10167000998388838ECF10E08CCFCF92DF92EF9248
:10168000FF920F931F93CF93DF93EC01FC01EA5F6E
:10169000FE4F8081803751F080E0DF91CF911F9124
:1016A0000F91FF90EF90DF90CF90089521E048E0F8
:1016B0006CEC70E0CE010E944E058E010D511F4F63
:1016C000F80180819181A281B381892B8A2B8B2B98
:1016D00019F721E14FE16CEC70E0CE010E944E055C
:1016E000F801C080D180E280F3802FE441E16CEC0E
:1016F00070E0CE010E944E05F801918182813497FD
:1017000089279827892791838083F801C082D18215
:10171000E282F3823697D182C0823496F182E082EF
:1017200036978BE190E091838083B89688E390E0D0
:1017300091838083CB5FDE4F80E8888381E0ADCFEB
:10174000EF92FF920F931F93CF93DF93EC01FC0175
:10175000EA5FFE4F0081802F8F7B10E08430C1F55F
:101760008C8960E073E290E00E94C404182F882303
:1017700079F18D8990E0043099F560EC78E00E9471
:10178000CC04182F882321F18E8960E372E090E069
:101790000E94C404182F8823D9F0FE01EB5FFE4F8E
:1017A00081E08083B897DE01A55FBE4F8D919C914B
:1017B000119791838083329612968D919C9191839B
:1017C00080833497C75FDE4F8881998191838083BE
:1017D000812FDF91CF911F910F91FF90EF9008958E
:1017E00060E871E10E94CC04182F882389F323E07C
:1017F00040E268EB70E0CE010E944E05FE01ED5123
:10180000FF4F70819181628183813497462F50E030
:1018100051834083472F592FDE01A352BF4F9E01B2
:1018200025523F4F79014E3E37E8530709F523E033
:1018300030E0F7013183208390E08D939C93FE018B
:10184000ED5FFE4F80E290E0918380836AE775E070
:10185000CE010E947704CB5FDE4F888180FFB8CF36
:1018600028E030E0F7013183208380628883B0CFA5
:10187000909579130CC0272F30E02D933C93982F2F
:101880009095691307C087E090E0D701D6CF4D93BC
:101890005C93F5CF29E030E0D7012D933C93608332
:1018A0008183CDCF1F93CF93DF93EC01FC01EA5FDF
:1018B000FE4F80818F7B843031F010E0812FDF91EB
:1018C000CF911F9108958C8960E073E290E00E94AF
:1018D000C404882391F38D8960E871E190E00E944F
:1018E000CC04182F882349F323E040E268EB70E032
:1018F000CE010E944E05FE01ED51FF4F8081918186
:101900003281238190958913D8CF922F9095931788
:10191000A1F238974FE150E051834083329690E036
:10192000918380833296C90190838183B49680E24B
:1019300090E0918380836AE775E0CE010E9477048E
:10194000BDCFCF93DF93FC012185DC01AA5FBE4FA1
:101950008C9140E0281758F5422F417034853111A1
:101960001DC0DF01A20FB11D53968C9192E3899F98
:10197000D0011124CCEEDFEF442311F0C4E1D0E01C
:1019800065857685CB01969587958A0F9B1F8C0F71
:101990009D1F0E941417772773876287828593851E
:1019A000009769F03F5F3817190628F43487842FB1
:1019B000DF91CF91089514862F5F2187F8CF42E001
:1019C000F6CF6F927F928F929F92AF92BF92CF92FB
:1019D000DF92EF92FF920F931F93CF93DF93EC016F
:1019E00081E0898789E793E09E878D871C868E0139
:1019F0000A5F1E4FF80180818E508B3180F080E0AD
:101A0000DF91CF911F910F91FF90EF90DF90CF90DA
:101A1000BF90AF909F908F907F906F9008958C892A
:101A20008D3268F7CE010E94A10C813041F7B12CB4
:101A3000C12CD12C7601A12C9985F80180819817B1
:101A4000A0F5CE010E94A10C982ECE010E94A10CFF
:101A500091100AC0813091F4CC0CDD1CEE1CFF1CEF
:101A60006894C0F8A394E8CFF1E09F1207C08111F9
:101A700005C0CC0CDD1CEE1CFF1CF4CF27E0A2122D
:101A8000BECF8985FE01E80FF11D9389963350F38F
:101A90009C859E5F9C872A853B859217130610F0D4
:101AA0008F5F8987BB24B394DDCFFE01ED51FF4FDB
:101AB000C082D182E282F382C60136E09695879594
:101AC0003A95E1F7BE016D5F7E4F2A2D30E0DE01D1
:101AD000A152BF4FAE0143525F4FB2963F018E01FC
:101AE00005521F4FBB20C9F121503109FB01318341
:101AF00020839E012F513F4FB6016F737727F90165
:101B0000718360838F73992711969C938E934601FE
:101B100057012CE0B694A794979487942A95D1F70F
:101B2000FFE18F229924FA0191828082E2FC04C0B5
:101B3000805C9F4F8D939C9380E9E1FC88E9F301E1
:101B400080838DE190E0F801918380836AED78E0F5
:101B5000CE010E94770481E053CFFB0131832083C3
:101B60002C2D2F7330E011963C932E938F71992773
:101B7000FA0191838083C60188279071892B21F413
:101B8000205C3F4F2D933C9380E8D3FC88E8F30121
:101B9000808380E190E0D7CF8F929F92AF92BF92E7
:101BA000CF92DF92EF92FF920F931F93CF93DF9329
:101BB000EC015C016AEFA61A6EEFB60AD5018C91B2
:101BC0008A518F3278F000E0802FDF91CF911F9102
:101BD0000F91FF90EF90DF90CF90BF90AF909F90CC
:101BE0008F9008958C8968E67AE090E00E94C404A2
:101BF000882349F38D8968E773E090E00E94CC0464
:101C0000082F882301F383E089878CEB91E09E877E
:101C10008D871C86CE010E94A10C8130A1F6CE01D9
:101C20000E94A10C8111CFCFC12CD12C760110E0E4
:101C30009985F5018081981758F5CE010E94A10C75
:101C4000982ECE010E94A10C133059F49812BBCFEC
:101C5000CE010E94A10C882ECE010E94A10C8812F8
:101C6000B2CFF1E09F120AC08111ADCFCC0CDD1CC8
:101C7000EE1CFF1C6894C0F81F5FDACF9110A3CF51
:101C8000813009F0A0CFCC0CDD1CEE1CFF1CF4CF82
:101C9000FE01ED5FFE4F812F90E091838083B0972E
:101CA000C082D182E282F3824C2D50E08D2D90E0F3
:101CB000B2969E0121523F4FBE0163527F4F4B01AE
:101CC000625071091332E8F4A0E8BA2EB082D9014B
:101CD0004D935C93D4018D939C93E0FE02C088E801
:101CE0008083153118F080818061808381E190E0EC
:101CF000FB019183808363E77AE0CE010E94770441
:101D000063CF10E91083D9014D935C93D4018D9377
:101D10009C93DE01AF51BF4FC7019F738D939C937E
:101D2000F7FE02C088E9808382E190E0E1CF5F9214
:101D30006F927F928F929F92AF92BF92CF92DF92DB
:101D4000EF92FF920F931F93CF93DF93EC014C011F
:101D50002AEF821A2EEF920AF4018081982F9F7D3C
:101D60009434A1F0863091F0612C862DDF91CF91D3
:101D70001F910F91FF90EF90DF90CF90BF90AF90A9
:101D80009F908F907F906F905F90089564EA70E0CD
:101D9000CE010E947A05682E882331F3FE01E75FA9
:101DA000FE4F808191819E0123523F4F6901BE0108
:101DB00061527F4F7B01BE975F0184319105D1F461
:101DC000F40120812630B1F4FE01EB5FFE4F21E2E9
:101DD0002083369620813181F60131832083C35FD1
:101DE000DE4F28813981FB0131832083F501918306
:101DF0008083BBCF23E040E264EA70E0CE010E9422
:101E00004E058E010D511F4FF80190818181728026
:101E100043819C01F60130832183F4012081542EFB
:101E20005094BE016D5F7E4F4B01243639F523E49B
:101E300040E164EA70E0CE010E944E05F801808125
:101E40009181751431F09095981719F094E0B2963D
:101E50009083982F872DF7019183808380E390E012
:101E6000F4019183808385E190E0F5019183808383
:101E70006EEB7AE0CE010E94770477CF751013C025
:101E8000272D30E0F70131832083891304C090E0CF
:101E9000F6019183808380E290E0F4019183808356
:101EA00083E190E0E2CFF70170824183EECFEF92C1
:101EB000FF921F93CF93DF93EC0160E970E00E94E3
:101EC0007A05182F882309F44BC07E018AEFE81A9F
:101ED0008EEFF80AD7018C918A3129F08A3219F0F5
:101EE000803209F044C090E0AC014150510957FDE7
:101EF000AC015595479523E060E970E0CE010E9462
:101F00004E05FE01ED51FF4F80819181A281B38189
:101F100034979C012F7733273183208347E0B69590
:101F2000A795979587954A95D1F7329791838083A6
:101F3000B696D7012C9130E0C901019797FDC901F0
:101F40009595879591838083FE01E552FF4F87E148
:101F500090E09183808368E272E0CE010E94770472
:101F6000812FDF91CF911F91FF90EF90089510E0A6
:101F7000F7CF0F931F93CF93DF93EC01FC01EA5F40
:101F8000FE4F8081843239F000E0802FDF91CF91C5
:101F90001F910F9108956CE770E0CE010E947A05C1
:101FA000082F882389F323E040E16CE770E0CE013D
:101FB0000E944E05FE01ED51FF4F108181818095F9
:101FC000181719F084E0B29680836DE672E0CE01B6
:101FD0000E947704FE01E152FF4F812F90E0918330
:101FE0008083329711821082B69680E190E09183CF
:101FF0008083C552DF4F8EE190E099838883C5CFFF
:102000001F93CF93DF93EC01FC01EA5FFE4F8081C9
:10201000843431F010E0812FDF91CF911F9108952A
:1020200068E670E0CE010E947A05182F882391F3AC
:1020300023E040E268E670E0CE010E944E05FE011A
:10204000EB5FFE4F80E88083329780E290E09183DF
:102050008083C552DF4F8CE190E099838883DBCF8A
:10206000DF92EF92FF920F931F93CF93DF93EC01D8
:10207000D62E8A017901E0E0F0E090E080E030E0E7
:10208000DE01AE0FB11D2C91FF5F222339F0320F1C
:102090002E9F800D911D11241C92F0E03323B9F086
:1020A000DE1611F0F23098F0232F2695820F911D45
:1020B000632F70E00E941417DE01A60FB11D3C9340
:1020C000D8013C9131110FC06C9390E080E0EF5F3C
:1020D000DE16B0F681E0DF91CF911F910F91FF9056
:1020E000EF90DF900895D7013C91332369F380E0AE
:1020F000F2CF2F923F924F925F926F927F928F9288
:102100009F92AF92BF92CF92DF92EF92FF920F9386
:102110001F93CF93DF93CDB7DEB7ED970FB6F8944B
:10212000DEBF0FBECDBF6C015C012AEFA21A2EEFFD
:10213000B20AD5018C918231D8F4412C842DED96D0
:102140000FB6F894DEBF0FBECDBFDF91CF911F91C8
:102150000F91FF90EF90DF90CF90BF90AF909F9046
:102160008F907F906F905F904F903F902F90089549
:102170008E010F5F1F4F92E3F80111929A95E9F7D4
:1021800043E060E08250990B242F30E02817390794
:1021900094F42C0D3D1DD90153962C91223368F6F1
:1021A000F801E20FF11D30813F5F3083621708F4C0
:1021B000622F4E5FE9CF1EAA1DAA9E012B5C3F4FE6
:1021C000AE014A5C5F4FC8010E943010882309F4B9
:1021D000B4CF82E3F80111928A95E9F7D5014C91C9
:1021E0004250550B24E060E0822F90E08417950761
:1021F00094F48C0D9D1DFC018389823308F09DCFE2
:10220000F801E80FF11D90819F5F9083681708F433
:10221000682F2E5FE9CF1CAA1BAA9E012D5C3F4FA1
:10222000AE014C5C5F4FC8010E943010482E8823DD
:1022300009F483CFD5011C911695ABA8A110C5C098
:102240001150212F30E0F601ED5FFE4F31832083E6
:10225000C901019797FD4F96FC0135E0F595E7958B
:102260003A95E1F7F8AFEFABFFA9FBAF8DA881106E
:1022700003C0AA2009F461CF9CA982E3989F1001B2
:1022800011246EA8689E30011124889E40011124FB
:10229000A89E50011124F12C23E0522E96012552C4
:1022A0003F4F3AAF29AFC6018D519F4F9DAF8CAFC5
:1022B000612F113208F060E28BA9882309F487C0EE
:1022C000E2E0F0E0A9ADBAADED93FC93E12C00E0C3
:1022D0009501452DC6010E94D004ACADBDAD4D9118
:1022E0005D916D917C91EF2DF0E03696EE0FFF1F22
:1022F000EE0FFF1FEC0DFD1DE552FF4F4083518394
:1023000062837383B0E45B0E1052F394EBADEF1570
:1023100078F6F601E95FFE4F808191819601215F99
:102320003E4F7901803D9740E8F4EFA9F8AD36962D
:10233000EE0FFF1FEE0FFF1FEC0DFD1DE552FF4FCF
:1023400080819181A281B381F70100811181228175
:10235000338180179107A207B30721F43A97808150
:1023600081608083D7014D935D936D937C93139728
:10237000F601E951FF4FD60154962C91549792E300
:10238000299F9001112431832083329655968C9198
:102390005597899FC001112491838083C601815183
:1023A0009F4FFC0171826082329631822082A5515A
:1023B000BF4F349781149104E1F0A114B10489F462
:1023C0008D929C9231822082B9CE12503ACFE1E0B8
:1023D000F0E0A9ADBAADED93FC93E12C01E09401DE
:1023E00078CFB182A0826D927C92DC018D929C921A
:1023F000A5CE6D927C92B182A082A0CECF93DF93C6
:10240000EC018881833009F073C081E0CF32D807B6
:1024100051F089899A89FE01E95FFE4F918380839B
:10242000888931978083CE010E94BC03FE01EB5F57
:10243000FE4F808186FF08C0C552DF4F1982188287
:1024400081E0DF91CF910895CE010E94A00B811110
:10245000F7CFCE010E9457098111F2CFCE010E9421
:102460004E088111EDCFCE010E94570F8111E8CFA8
:10247000CE010E94E10C8111E3CFCE010E94CC0D70
:102480008111DECFCE010E94750A8111D9CFCE0114
:102490000E94D3088111D4CFCE010E94970E8111E2
:1024A000CFCFCE010E94B90F8111CACFCE010E94B9
:1024B00000108111C5CFCE010E94040A8111C0CF46
:1024C000CE010E940C088111BBCFCE010E943D0BB2
:1024D0008111B6CFCE010E94520C8111B1CFCE0135
:1024E0000E9479108111ACCFCE010E941C04A8CFAC
:1024F00080E0A7CF26E040E855E260E070E085E4A8
:1025000092E00E9484132FEF40E062E08FE291E0BE
:102510000C94A7038FE291E00E94FE11882379F0CA
:1025200041E065E472E08FE291E00E94FD0585E400
:1025300092E00E94DC148FE291E00C9493030895E2
:102540008FEF809343028FE291E00E9490031092FC
:102550002A010895FC01918D228D892F90E0805CE5
:102560009F4F821B91098F7399270895FC01918DCC
:10257000828D981731F0828DE80FF11D858D90E0E6
:1025800008958FEF9FEF0895FC01918D828D98172C
:1025900061F0A28DAE0FBF2FB11D5D968C91928D13
:1025A0009F5F9F73928F90E008958FEF9FEF089544
:1025B000FC01538D448D252F30E0842F90E0821B49
:1025C000930B541710F0CF960895019708958EE35A
:1025D00094E1892B49F080E090E0892B29F00E945A
:1025E0003E1481110C9400000895FC01A48DA80FE5
:1025F000B92FB11DA35ABF4F2C91848D90E0019645
:102600008F739927848FA689B7892C93A089B18964
:102610008C91837080648C93938D848D981306C005
:102620000288F389E02D80818F7D80830895CF9388
:10263000DF93EC01888D8823B9F0AA89BB89E889EA
:10264000F9898C9185FD03C0808186FD0DC00FB690
:1026500007FCF7CF8C9185FFF2CF808185FFEDCF0E
:10266000CE010E94F512E9CFDF91CF910895EF924C
:10267000FF920F931F93CF93DF93EC0181E0888F3C
:102680009B8D8C8D98131AC0E889F989808185FF0C
:1026900015C09FB7F894EE89FF896083E889F989AE
:1026A00080818370806480839FBF81E090E0DF91B0
:1026B000CF911F910F91FF90EF900895F62E0B8D03
:1026C00010E00F5F1F4F0F731127E02E8C8D8E11BE
:1026D0000CC00FB607FCFACFE889F989808185FF25
:1026E000F5CFCE010E94F512F1CFEB8DEC0FFD2F4F
:1026F000F11DE35AFF4FF0829FB7F8940B8FEA89E0
:10270000FB8980818062CFCFCF92DF92EF92FF92E0
:102710001F93CF93DF93EC016A017B01122FE889AD
:10272000F98982E08083C11481EED806E104F104C6
:10273000A1F060E079E08DE390E0A70196010E94AE
:102740002817215031094109510956954795379568
:102750002795211580E1380798F0E889F9891082DA
:1027600060E874E88EE190E0A70196010E942817C6
:1027700021503109410951095695479537952795BB
:10278000EC85FD853083EE85FF852083188EEC89EE
:10279000FD891083EA89FB89808180618083EA89D1
:1027A000FB89808188608083EA89FB8980818068D9
:1027B0008083EA89FB8980818F7D8083DF91CF913F
:1027C0001F91FF90EF90DF90CF9008951F920F928E
:1027D0000FB60F9211242F938F939F93EF93FF9334
:1027E000E0915502F09156028081E0915B02F091F8
:1027F0005C0282FD1BC0908180915E028F5F8F73AF
:1028000020915F02821741F0E0915E02F0E0EB5B05
:10281000FD4F958F80935E02FF91EF919F918F9175
:102820002F910F900FBE0F901F9018958081F4CFBD
:102830001F920F920FB60F9211242F933F934F9335
:102840005F936F937F938F939F93AF93BF93EF9318
:10285000FF9385E492E00E94F512FF91EF91BF9102
:10286000AF919F918F917F916F915F914F913F9128
:102870002F910F900FBE0F901F90189585E492E056
:102880000E94AA1221E0892B09F420E0822F0895EA
:10289000E5E4F2E01382128288EE93E0A0E0B0E07B
:1028A00084839583A683B78388E191E091838083B5
:1028B00085EC90E09587848784EC90E09787868705
:1028C00080EC90E0918B808B81EC90E0938B828BFD
:1028D00082EC90E0958B848B86EC90E0978B868BD6
:1028E000118E128E138E148E0895AF92BF92CF92D6
:1028F000DF92EF92FF920F931F93CF93DF936C01C0
:102900007B018B01040F151FEB015E01AE18BF08A0
:10291000C017D10759F06991D601ED91FC91019052
:10292000F081E02DC6010995892B79F7C501DF916A
:10293000CF911F910F91FF90EF90DF90CF90BF90BC
:10294000AF900895FB0101900020E9F73197AF01A6
:10295000461B570BDC01ED91FC910280F381E02DC9
:102960000994EF92FF920F931F93CF93DF938C0103
:102970007B01D0E0C0E0F701EC0FFD1F64916623FE
:1029800061F0D801ED91FC910190F081E02DC8013A
:102990000995892B11F02196EECFCE01DF91CF91D1
:1029A0001F910F91FF90EF900895DC01ED91FC9144
:1029B0000190F081E02D099466E271E00C94A2147C
:1029C0000F931F93CF93DF93EC010E94B1148C01FE
:1029D000CE010E94DC14800F911FDF91CF911F91D7
:1029E0000F9108958F929F92AF92BF92EF92FF92B4
:1029F0000F931F93CF93DF93CDB7DEB7A1970FB699
:102A0000F894DEBF0FBECDBF7C01FA01CB0119A245
:102A1000223008F42AE08E010F5D1F4F822E912C88
:102A2000B12CA12CBF01A50194010E942817F90126
:102A3000CA016A300CF5605DD8016E938D01232BBD
:102A4000242B252B79F790E080E0109721F0BD0131
:102A5000C7010E94A214A1960FB6F894DEBF0FBE64
:102A6000CDBFDF91CF911F910F91FF90EF90BF905D
:102A7000AF909F908F900895695CDECFCF92DF92E8
:102A8000EF92FF920F931F93CF93DF9321153105A0
:102A900081F4DC01ED91FC910190F081E02D642F37
:102AA000DF91CF911F910F91FF90EF90DF90CF902A
:102AB00009942A30310501F52AE077FF1DC06A012B
:102AC0007B01EC016DE20E94D5148C01442755274F
:102AD000BA014C195D096E097F092AE0CE010E94F6
:102AE000F214800F911FDF91CF911F910F91FF90F2
:102AF000EF90DF90CF900895DF91CF911F910F91CC
:102B0000FF90EF90DF90CF900C94F2149A01AB01FC
:102B1000770F660B770B0C943E152115310541F4A8
:102B2000DC01ED91FC910190F081E02D642F09947E
:102B30000C94F2149A01AB0170E060E00C948D15D6
:102B400008950E942A160E94A0150E947A12C7EECC
:102B5000D2E10E948A122097E1F30E94E712F9CF96
:102B60001F920F920FB60F9211242F933F938F93C2
:102B70009F93AF93BF938091E3029091E402A09161
:102B8000E502B091E6023091E20223E0230F2D37F7
:102B900058F50196A11DB11D2093E2028093E30236
:102BA0009093E402A093E502B093E6028091E702DD
:102BB0009091E802A091E902B091EA020196A11D6C
:102BC000B11D8093E7029093E802A093E902B093CD
:102BD000EA02BF91AF919F918F913F912F910F90FA
:102BE0000FBE0F901F90189526E8230F0296A11D87
:102BF000B11DD2CF3FB7F8948091E7029091E802DF
:102C0000A091E902B091EA0226B5A89B05C02F3F2A
:102C100019F00196A11DB11D3FBFBA2FA92F982F02
:102C20008827BC01CD01620F711D811D911D42E0FD
:102C3000660F771F881F991F4A95D1F70895823034
:102C4000910538F0880F991F880F991F05970197F4
:102C5000F1F70895789484B5826084BD84B581606D
:102C600084BD85B5826085BD85B5816085BDEEE694
:102C7000F0E0808181608083E1E8F0E01082808173
:102C800082608083808181608083E0E8F0E08081E1
:102C900081608083E1EBF0E0808184608083E0EB01
:102CA000F0E0808181608083EAE7F0E080818460E9
:102CB0008083808182608083808181608083808145
:102CC000806880831092C1000895833081F028F4D9
:102CD000813099F08230A9F008958730A9F08830CA
:102CE000C9F08430B1F4809180008F7D03C0809161
:102CF00080008F7780938000089584B58F7784BD9E
:102D0000089584B58F7DFBCF8091B0008F7780933D
:102D1000B00008958091B0008F7DF9CFCF93DF93FD
:102D200090E0FC01E754FB4F249183539B4FFC013F
:102D300084918823C9F090E0880F991FFC01EB5023
:102D4000FB4FA591B491FC01E551FB4FC591D49186
:102D500061110DC09FB7F8948C91209582238C93BC
:102D60008881282328839FBFDF91CF910895623007
:102D700051F49FB7F8943C91822F809583238C93D4
:102D8000E8812E2BEFCF8FB7F894EC912E2B2C935C
:102D90008FBFEACF1F93CF93DF93282F30E0F90145
:102DA000EB55FB4F8491F901E754FB4FD491F901A6
:102DB000E353FB4FC491CC23A9F0162F81110E943D
:102DC0006516EC2FF0E0EE0FFF1FE551FB4FA591CC
:102DD000B4918FB7F894EC91111108C0D095DE230F
:102DE000DC938FBFDF91CF911F910895DE2BF8CF39
:102DF000F8940C948917FB01DC0102C005900D9238
:102E000041505040D8F70895DB018F939F930E9463
:102E10007817BF91AF91A29F800D911DA39F900D38
:102E2000B29F900D11240895AA1BBB1B51E107C04E
:102E3000AA1FBB1FA617B70710F0A61BB70B881F4A
:102E4000991F5A95A9F780959095BC01CD010895D9
:102E5000A1E21A2EAA1BBB1BFD010DC0AA1FBB1F9E
:102E6000EE1FFF1FA217B307E407F50720F0A21B10
:102E7000B30BE40BF50B661F771F881F991F1A947D
:102E800069F760957095809590959B01AC01BD01A7
:102E9000CF010895052E97FB1EF400940E94611740
:102EA00057FD07D00E94281707FC03D04EF40C945E
:102EB000611750954095309521953F4F4F4F5F4F8B
:102EC000089590958095709561957F4F8F4F9F4F96
:102ED0000895A29FB001B39FC001A39F700D811DF3
:102EE0001124911DB29F700D811D1124911D089513
:102EF0000E946917A59F900DB49F900DA49F800D0F
:102F0000911D11240895EE0FFF1F0590F491E02DFF
:062F10000994F894FFCFC4
:102F16001A00269E0002049E0029029E0007010058
:102F26006E0000000000000037137514D812171346
:0A2F3600AA12C412B6120D0A000020
:00000001FF
