:100000000C9463000C948B000C948B000C948B006C
:100010000C948B000C948B000C948B000C948B0034
:100020000C948B000C948B000C948B000C948B0024
:100030000C948B000C948B000C948B000C948B0014
:100040000C9416060C948B000C941E050C94500511
:100050000C948B000C948B000C948B000C948B00F4
:100060000C948B000C948B0000000008000201002F
:100070000003040700000000000000000102040863
:100080001020408001020408102001020408102002
:10009000040404040404040402020202020203032E
:1000A00003030303000000002300260029000000D2
:1000B0000000250028002B0000000000240027007D
:1000C0002A00A200800511241FBECFEFD8E0DEBFBA
:1000D000CDBF11E0A0E0B1E0E0E2FFE002C005909A
:1000E0000D92A233B107D9F722E0A2E3B1E001C03B
:1000F0001D92A734B207E1F710E0C3E6D0E004C0D8
:100100002197FE010E948807C136D107C9F70E94D6
:1001100007060C9463070C94000026E040E855E2C3
:1001200060E070E081EA91E00C94BC0482E391E02D
:100130000E94BB03882329F0682F81EA91E00C9488
:10014000F4050895EF920F9383E0E82E04E020E099
:1001500031E043E051E067E071E082E391E00E942A
:10016000BF000F91EF900895862F0C943A07862FC9
:10017000642F0C940C07862F642F0C94D0064F929A
:100180005F926F927F928F929F92AF92BF92CF9227
:10019000DF92EF920F93CF93DF93EC016B014A0153
:1001A000590102960E94DC0387E191E099838883DC
:1001B0002E018CE1480E511C32018CE3680E711C3B
:1001C000C2010E94DC0386E0480E511C64147504D1
:1001D000B9F7FE01EE59FF4F918280823296B182CB
:1001E000A082329600833196E0823797D182C08216
:1001F00038968AE090E091838083329684EF91E094
:1002000091838083339611821082719710821182BC
:1002100012821382C459DF4F1882DF91CF910F9160
:10022000EF90DF90CF90BF90AF909F908F907F9096
:100230006F905F904F9008952F923F924F925F92F0
:100240006F927F928F929F92AF92BF92CF92DF92E6
:10025000EF92FF920F931F93CF93DF93CDB7DEB74B
:1002600028970FB6F894DEBF0FBECDBF98878F8357
:1002700010E05C0126E6A20EB11C7C0132E6E30E22
:10028000F11CD5018C911817A0F4F701A081B18160
:10029000A10FB11DEF81F88580819181FC01208142
:1002A000318142E06C918F819885F90109951F5F3A
:1002B000E8CF312C2F81388529593F4F3C832B8340
:1002C000CF80D88434E6C30ED11C412C512C32018E
:1002D00043948F8198858E599F4F9E838D83AB81E8
:1002E000BC818C91381608F087C0E32CF12CF60104
:1002F000A081B181AE0DBF1DEF81F8858081918114
:10030000FC012081318141E06C918F819885F90158
:100310000995F601A081B181AE0DBF1DEF81F88571
:1003200080819181FC012281338140E06C918F8139
:100330009885F9010995D301C201032C04C0880FE7
:10034000991FAA1FBB1F0A94D2F79A8389834C0175
:1003500080949094212CAF81B885ED91FC91D501CA
:100360008C91281638F5022D10E0AD81BE818D915B
:100370009C91DC01A00FB11F0480F581E02D6C91F0
:100380008F8198850995000F111FEF81F885E00F87
:10039000F11F892B51F48085918529813A81822B27
:1003A000932B918780872394D6CF80859185882150
:1003B0009921F7CFD6018D919C91DC01AE0DBF1D27
:1003C0000280F381E02D41E06C918F819885099541
:1003D000F60180819181E80EF91EAF81B885ED911B
:1003E000FC910190F081E02D40E0D7016C918F816C
:1003F00098850995339473CF28960FB6F894DEBF8D
:100400000FBECDBFDF91CF911F910F91FF90EF9065
:10041000DF90CF90BF90AF909F908F907F906F9024
:100420005F904F903F902F900895FC0190E080E006
:10043000258D368D2617370739F0019636968A3086
:100440009105B1F78FEF9FEF0895CF93DF93DC0114
:1004500026E0629FA00DB11D112490965C934E93EF
:100460005F9721E091962C939197FC01E359FF4F00
:100470000190F081E02DEC01C459DF4F2881222347
:1004800041F0309719F0DC01662329F0DF91CF911C
:1004900008953097D9F35C968C91DF91CF910994B0
:1004A000CF92DF92EF92FF920F931F93CF93DF9340
:1004B000EC01162F042FFC0186E0689FE00DF11D72
:1004C000112411A2878D90A18130910509F180F04E
:1004D0008230910509F443C0039709F445C0DF91C8
:1004E000CF911F910F91FF90EF90DF90CF900895E3
:1004F0004423A9F341E050E0CE010E9425020E946E
:100500006006C85ADF4F688379838A839B83E7CF6D
:100510000E946006FE01E85AFF4FC080D180E28051
:10052000F380AB01BC014C195D096E097F0972961D
:1005300080819181B0E0A0E084179507A607B707F6
:1005400070F442E050E0612FCE01DF91CF911F9116
:100550000F91FF90EF90DF90CF900C94250243E035
:1005600050E00111BCCFEFCF50E040E0ECCF2F9234
:100570003F924F925F926F927F928F929F92AF9233
:10058000BF92CF92DF92EF92FF920F931F93CF9380
:10059000DF9300D000D0CDB7DEB79C838B835C01A6
:1005A000CC9685012FEF3FEFD8015F964D915C917E
:1005B0009097452B49F45C961C925C975E963C9311
:1005C0002E935D9791961C920A5F1F4F081719078B
:1005D00059F7312CEB81FC81EA59FF4FFA83E9830B
:1005E0004B805C80F7E64F0E511C6B807C8020E6D0
:1005F000620E711CA981BA818C91381608F05BC01B
:10060000212CE32CF12CB4E0EB0EF11CEE0CFF1CC2
:10061000EB81FC81EE0EFF1ED2018C90281408F0B5
:1006200048C0F701C080D180022C02C0D694C79484
:100630000A94E2F7389C40011124820C911CB40109
:100640008B819C810E94150297FD09C04C2D417041
:10065000682F8B819C810E9450022394DDCF0196EC
:10066000E1F7C0FEFACFEB81FC8170E060E0848DA1
:10067000811118C0D301ED91FC91E80DF91D808125
:10068000B6E0B69FF001B79FF00D11242B813C819D
:10069000E20FF31F848F968E858E10A2178E41E095
:1006A000C901D9CF6F5F7F4F36966A307105F9F671
:1006B000D4CF33949FCF80E0D50191969C91911136
:1006C000892FB6E0AB0EB11C0A151B05A9F70F90D8
:1006D0000F900F900F90DF91CF911F910F91FF908E
:1006E000EF90DF90CF90BF90AF909F908F907F90D2
:1006F0006F905F904F903F902F900895CF92DF9230
:10070000EF92FF920F931F93CF93DF93EC010E9420
:1007100060068E01045A1F4FF801C080D180E2802C
:10072000F380AB01BC014C195D096E097F093C9651
:1007300080819181B0E0A0E084179507A607B707F4
:10074000C0F4CE010E941C01CE010E94B702C82F46
:100750000E946006F80160837183828393838C2FEB
:10076000DF91CF911F910F91FF90EF90DF90CF908D
:100770000895C0E0F4CF0F931F93CF93DF93EC0164
:100780008C0104591F4F81E0F8018083CE010E9443
:100790007E03882369F089A1882351F08F8D98A169
:1007A000019731F48C8DDF91CF911F910F910895B6
:1007B000F801108280E0F7CFFC01108214821382CE
:1007C00015820895FC01918D228D892F90E0805C27
:1007D0009F4F821B91098F7399270895FC01918D7A
:1007E000828D981731F0828DE80FF11D858D90E094
:1007F00008958FEF9FEF0895FC01918D828D9817DA
:1008000061F0A28DAE0FBF2FB11D5D968C91928DC0
:100810009F5F9F73928F90E008958FEF9FEF0895F1
:10082000FC01538D448D252F30E0842F90E0821BF6
:10083000930B541710F0CF9608950197089586E70B
:1008400095E0892B49F080E090E0892B29F00E9407
:10085000760581110C9400000895FC01A48DA80F69
:10086000B92FB11DA35ABF4F2C91848D90E00196F2
:100870008F739927848FA689B7892C93A089B18912
:100880008C91837080648C93938D848D981306C0B3
:100890000288F389E02D80818F7D80830895CF9336
:1008A000DF93EC01888D8823B9F0AA89BB89E88998
:1008B000F9898C9185FD03C0808186FD0DC00FB63E
:1008C00007FCF7CF8C9185FFF2CF808185FFEDCFBC
:1008D000CE010E942D04E9CFDF91CF910895EF92D0
:1008E000FF920F931F93CF93DF93EC0181E0888FEA
:1008F0009B8D8C8D98131AC0E889F989808185FFBA
:1009000015C09FB7F894EE89FF896083E889F9895B
:1009100080818370806480839FBF81E090E0DF915D
:10092000CF911F910F91FF90EF900895F62E0B8DB0
:1009300010E00F5F1F4F0F731127E02E8C8D8E116B
:100940000CC00FB607FCFACFE889F989808185FFD2
:10095000F5CFCE010E942D04F1CFEB8DEC0FFD2FD2
:10096000F11DE35AFF4FF0829FB7F8940B8FEA898D
:10097000FB8980818062CFCFCF92DF92EF92FF928E
:100980001F93CF93DF93EC016A017B01122FE8895B
:10099000F98982E08083C11481EED806E104F10474
:1009A000A1F060E079E08DE390E0A70196010E945C
:1009B00066072150310941095109569547953795E8
:1009C0002795211580E1380798F0E889F989108288
:1009D00060E874E88EE190E0A70196010E94660746
:1009E0002150310941095109569547953795279569
:1009F000EC85FD853083EE85FF852083188EEC899C
:100A0000FD891083EA89FB89808180618083EA897E
:100A1000FB89808188608083EA89FB898081806886
:100A20008083EA89FB8980818F7D8083DF91CF91EC
:100A30001F91FF90EF90DF90CF9008951F920F923B
:100A40000FB60F9211242F938F939F93EF93FF93E1
:100A5000E091B101F091B2018081E091B701F09194
:100A6000B80182FD1BC090818091BA018F5F8F73A6
:100A70002091BB01821741F0E091BA01F0E0EF55FF
:100A8000FE4F958F8093BA01FF91EF919F918F91C7
:100A90002F910F900FBE0F901F9018958081F4CF6B
:100AA0001F920F920FB60F9211242F933F934F93E3
:100AB0005F936F937F938F939F93AF93BF93EF93C6
:100AC000FF9381EA91E00E942D04FF91EF91BF9185
:100AD000AF919F918F917F916F915F914F913F91D6
:100AE0002F910F900FBE0F901F90189581EA91E003
:100AF0000E94E20321E0892B09F420E0822F08956F
:100B0000E1EAF1E01382128288EE93E0A0E0B0E027
:100B100084839583A683B78381E291E09183808368
:100B200085EC90E09587848784EC90E097878687B2
:100B300080EC90E0918B808B81EC90E0938B828BAA
:100B400082EC90E0958B848B86EC90E0978B868B83
:100B5000118E128E138E148E0895AF92BF92CF9283
:100B6000DF92EF92FF920F931F93CF93DF936C016D
:100B70007B018B01040F151FEB015E01AE18BF084E
:100B8000C017D10759F06991D601ED91FC91019000
:100B9000F081E02DC6010995892B79F7C501DF9118
:100BA000CF911F910F91FF90EF90DF90CF90BF906A
:100BB000AF900895FB0101900020E9F73197AF0154
:100BC000461B570BDC01ED91FC910280F381E02D77
:100BD0000994DC01ED91FC910190F081E02D0994E4
:100BE0006FE271E00C94DA050F931F93CF93DF93BC
:100BF000EC010E94E9058C01CE010E94F005800FF6
:100C0000911FDF91CF911F910F91089508950E9438
:100C10006C060E9406060E948D00CFE1D4E00E947F
:100C200096002097E1F30E941F04F9CF1F920F92C4
:100C30000FB60F9211242F933F938F939F93AF93EF
:100C4000BF9380913F0290914002A0914102B091E8
:100C5000420230913E0223E0230F2D3758F50196D2
:100C6000A11DB11D20933E0280933F02909340024C
:100C7000A0934102B09342028091430290914402BA
:100C8000A0914502B09146020196A11DB11D80932D
:100C9000430290934402A0934502B0934602BF9151
:100CA000AF919F918F913F912F910F900FBE0F9019
:100CB0001F90189526E8230F0296A11DB11DD2CFD3
:100CC0002FB7F89460913F027091400280914102E9
:100CD000909142022FBF0895789484B5826084BDBC
:100CE00084B5816084BD85B5826085BD85B5816030
:100CF00085BDEEE6F0E0808181608083E1E8F0E090
:100D00001082808182608083808181608083E0E8BE
:100D1000F0E0808181608083E1EBF0E0808184609D
:100D20008083E0EBF0E0808181608083EAE7F0E09F
:100D30008081846080838081826080838081816003
:100D400080838081806880831092C1000895833001
:100D500081F028F4813099F08230A9F0089587302D
:100D6000A9F08830C9F08430B1F4809180008F7D83
:100D700003C0809180008F7780938000089584B5B0
:100D80008F7784BD089584B58F7DFBCF8091B000AF
:100D90008F778093B00008958091B0008F7DF9CF58
:100DA000CF93DF9390E0FC01E458FF4F24918057EC
:100DB0009F4FFC0184918823C9F090E0880F991F10
:100DC000FC01E854FF4FA591B491FC01E255FF4F9F
:100DD000C591D49161110DC09FB7F8948C91209565
:100DE00082238C938881282328839FBFDF91CF9112
:100DF0000895623051F49FB7F8943C91822F80950A
:100E000083238C93E8812E2BEFCF8FB7F894EC914E
:100E10002E2B2C938FBFEACF1F93CF93DF93282FD6
:100E200030E0F901E859FF4F8491F901E458FF4F90
:100E3000D491F901E057FF4FC491CC23A9F0162FAC
:100E400081110E94A706EC2FF0E0EE0FFF1FE25584
:100E5000FF4FA591B4918FB7F894EC91111108C090
:100E6000D095DE23DC938FBFDF91CF911F91089542
:100E7000DE2BF8CFCF93DF93282F30E0F901E8592C
:100E8000FF4F8491F901E458FF4FD491F901E057E5
:100E9000FF4FC491CC23A1F081110E94A706EC2F33
:100EA000F0E0EE0FFF1FEC55FF4FA591B491EC91D0
:100EB000ED2381E090E009F480E0DF91CF91089587
:100EC00080E090E0FACFF8940C948E07A1E21A2EFD
:100ED000AA1BBB1BFD010DC0AA1FBB1FEE1FFF1FDE
:100EE000A217B307E407F50720F0A21BB30BE40B2E
:100EF000F50B661F771F881F991F1A9469F7609575
:100F00007095809590959B01AC01BD01CF0108952E
:100F1000EE0FFF1F0590F491E02D0994F894FFCF98
:100F200005040309080706313233343536373839BA
:100F30002A302300000000BB00B700B4000000000E
:100F4000006F04AD0510044F04E203FC03EE030D33
:020F50000A0095
:00000001FF
