:100000000C945D000C9485000C9485000C94850084
:100010000C9485000C9485000C9485000C9485004C
:100020000C9485000C9485000C9485000C9485003C
:100030000C9485000C9485000C9485000C9485002C
:100040000C94F3020C9485000C9485000C948500AC
:100050000C9485000C9485000C9485000C9485000C
:100060000C9485000C94850000000008000201003B
:100070000003040700000000000000000102040863
:100080001020408001020408102001020408102002
:10009000040404040404040402020202020203032E
:1000A0000303030300000000250028002B000000CC
:1000B0000000240027002A00AA0011241FBECFEF51
:1000C000D8E0DEBFCDBF11E0A0E0B1E0EEE9F8E09E
:1000D00002C005900D92AA31B107D9F721E0AAE13B
:1000E000B1E001C01D92AB33B207E1F710E0CDE5FE
:1000F000D0E004C02197FE010E944704CC35D1070F
:10010000C9F70E94E4020C9422040C94000020E041
:1001100042E060E18AE191E00E94840160E071E0E8
:100120008AE191E00C94820241E060E08AE191E092
:100130000E946B010E943D0328EE33E040E050E056
:100140000E942504BA01A9012AE030E08AE191E089
:100150000C94D602CF92EF920F9382E0C82E93E0D8
:10016000E92E04E025E04BE06CE08AE191E00E949A
:1001700020020F91EF90CF90089590E080E00895D5
:100180000895CF93DF93EC0160E08E810E94F40329
:1001900081E090E00E94490361E08E810E94F403B7
:1001A00081E090E00E94490360E08E810E94F403A8
:1001B00084E690E0DF91CF910C944903CF92DF92D7
:1001C000EF92FF920F931F93CF93DF936C017C010B
:1001D00087E0E80EF11CD0E0C0E0062F10E0B80187
:1001E0000C2E02C0759567950A94E2F76170F701CD
:1001F00081917F010E94F4032196C430D10579F7E3
:10020000C601DF91CF911F910F91FF90EF90DF908A
:10021000CF900C94C100CF92DF92EF92FF920F9398
:100220001F93CF93DF936C017C0187E0E80EF11CF4
:10023000D0E0C0E0062F10E0B8010C2E02C075958A
:1002400067950A94E2F76170F70181917F010E943E
:10025000F4032196C830D10579F7C601DF91CF911B
:100260001F910F91FF90EF90DF90CF900C94C10001
:100270001F93CF93DF93EC01162F642F8C810E9484
:10028000F4038D818F3F19F060E00E94F4038F85A5
:10029000612F84FF06C0CE01DF91CF911F910C9496
:1002A0000B0170E084E0759567958A95E1F7CE01C2
:1002B0000E94DE00612FCE01DF91CF911F910C943F
:1002C000DE0040E00C94380161E00E94610180EDA5
:1002D00097E00C944903443008F043E0FC01238983
:1002E000421710F04FEF420FFC01E40FF11D24897B
:1002F000620F60680C946101FC016089262F246004
:10030000208B6C600C9461010F931F93CF93DF934C
:10031000EC01423018F08F8588608F874B8B1C8AE8
:1003200080E48D8B6E8B605C6F8B222329F04130D3
:1003300019F48F8584608F8761E08C810E94B803F7
:100340008D818F3F19F061E00E94B80361E08E81DA
:100350000E94B8038E0198012C1B3D0B8F8584FDF4
:100360000DC084E090E00F5F1F4F281739074CF451
:1003700061E0F80186810E94B803EDCF88E090E04B
:10038000F2CF80E593EC0E94490360E08C810E94EB
:10039000F40360E08E810E94F4038D818F3F19F099
:1003A00060E00E94F4036F8564FD33C063E0CE011A
:1003B0000E94DE0084E991E10E94490363E0CE01DE
:1003C0000E94DE0084E991E10E94490363E0CE01CE
:1003D0000E94DE0086E990E00E94490362E0CE01BF
:1003E0000E94DE006F856062CE010E94610184E0A0
:1003F000888BCE010E947C01CE010E94640182E0C4
:10040000898B66E0CE01DF91CF911F910F910C9403
:1004100061016062CE010E94610184E991E10E9464
:1004200049036F856062CE010E94610186E990E018
:100430000E9449036F856062CE010E946101D2CFA4
:10044000CF92EF920F93FC011382128282E191E02E
:100450009183808364838FEF85834683278300871E
:10046000E186C2861386148615861686178620E0D6
:1004700041E060E1CF010F91EF90CF900C948401A7
:1004800041E00E94380181E090E00895AF92BF9270
:10049000CF92DF92EF92FF920F931F93CF93DF9350
:1004A0006C017B018B01040F151FEB015E01AE187F
:1004B000BF08C017D10759F06991D601ED91FC91A1
:1004C0000190F081E02DC6010995892B79F7C501CE
:1004D000DF91CF911F910F91FF90EF90DF90CF9020
:1004E000BF90AF900895FB0101900020E9F731978C
:1004F000AF01461B570BDC01ED91FC910280F381AB
:10050000E02D09946115710511F00C94730290E0CF
:1005100080E008958F929F92AF92BF92EF92FF92E8
:100520000F931F93CF93DF93CDB7DEB7A1970FB68D
:10053000F894DEBF0FBECDBF7C01FA01CB0119A23A
:10054000223008F42AE08E010F5D1F4F822E912C7D
:10055000B12CA12CBF01A50194010E942504F90131
:10056000CA016A300CF5605DD8016E938D01232BB2
:10057000242B252B79F790E080E0109721F0BD0126
:10058000C7010E947302A1960FB6F894DEBF0FBE9A
:10059000CDBFDF91CF911F910F91FF90EF90BF9052
:1005A000AF909F908F900895695CDECF2115310543
:1005B00041F4DC01ED91FC910190F081E02D642F7C
:1005C00009940C948A0208950E9454030E94E30245
:1005D0000E948700C0E0D0E00E9494002097E1F3E1
:1005E0000E940000F9CF1F920F920FB60F921124B4
:1005F0002F933F938F939F93AF93BF93809133013A
:1006000090913401A0913501B091360130913201C1
:1006100023E0230F2D3758F50196A11DB11D20931E
:1006200032018093330190933401A0933501B0934C
:1006300036018091370190913801A0913901B09134
:100640003A010196A11DB11D8093370190933801A5
:10065000A0933901B0933A01BF91AF919F918F91CF
:100660003F912F910F900FBE0F901F90189526E885
:10067000230F0296A11DB11DD2CF2FB7F894609120
:1006800033017091340180913501909136012FBF73
:1006900008958230910538F0880F991F880F991FAF
:1006A00005970197F1F70895789484B5826084BD29
:1006B00084B5816084BD85B5826085BD85B5816066
:1006C00085BDEEE6F0E0808181608083E1E8F0E0C6
:1006D0001082808182608083808181608083E0E8F5
:1006E000F0E0808181608083E1EBF0E080818460D4
:1006F0008083E0EBF0E0808181608083EAE7F0E0D6
:100700008081846080838081826080838081816039
:1007100080838081806880831092C1000895833037
:1007200081F028F4813099F08230A9F00895873063
:10073000A9F08830C9F08430B1F4809180008F7DB9
:1007400003C0809180008F7780938000089584B5E6
:100750008F7784BD089584B58F7DFBCF8091B000E5
:100760008F778093B00008958091B0008F7DF9CF8E
:10077000CF93DF9390E0FC01E458FF4F2491805722
:100780009F4FFC0184918823C9F090E0880F991F46
:10079000FC01E255FF4FA591B491FC01EC55FF4FD0
:1007A000C591D49161110DC09FB7F8948C9120959B
:1007B00082238C938881282328839FBFDF91CF9148
:1007C0000895623051F49FB7F8943C91822F809540
:1007D00083238C93E8812E2BEFCF8FB7F894EC9185
:1007E0002E2B2C938FBFEACF1F93CF93DF93282F0D
:1007F00030E0F901E859FF4F8491F901E458FF4FC7
:10080000D491F901E057FF4FC491CC23A9F0162FE2
:1008100081110E948F03EC2FF0E0EE0FFF1FEC55CB
:10082000FF4FA591B4918FB7F894EC91111108C0C6
:10083000D095DE23DC938FBFDF91CF911F91089578
:10084000DE2BF8CFF8940C944D04A1E21A2EAA1BCB
:10085000BB1BFD010DC0AA1FBB1FEE1FFF1FA21770
:10086000B307E407F50720F0A21BB30BE40BF50B6D
:10087000661F771F881F991F1A9469F760957095F6
:10088000809590959B01AC01BD01CF010895EE0FBD
:0E089000FF1F0590F491E02D0994F894FFCF1E
:10089E0048656C6C6F2C206D616B657221000000D9
:0A08AE00000040024602BD00C00039
:00000001FF
