:100000000C9459000C9481000C9481000C94810094
:100010000C9481000C9481000C9481000C9481005C
:100020000C9481000C9481000C9481000C9481004C
:100030000C9481000C9481000C9481000C9481003C
:100040000C943A060C9481000C9481000C9481006D
:100050000C9481000C9481000C9481000C9481001C
:100060000C946D040C948100000000080002010053
:100070000003040700000000000000000102040863
:100080001020408001020408102001020408102002
:10009000040404040404040402020202020203032E
:1000A0000303030300000000250028002B00AD001F
:1000B000C30211241FBECFEFD8E0DEBFCDBF11E0D9
:1000C000A0E0B1E0E2E7FFE002C005900D92A433AA
:1000D000B107D9F722E0A4E3B1E001C01D92A3313A
:1000E000B207E1F710E0C9E5D0E004C02197FE01B6
:1000F0000E94B107C735D107C9F70E942B060C949F
:100100008C070C94000084E391E00E94D30184E307
:1001100091E00E94DD0040E060E084E391E00E9415
:10012000310168E071E084E391E00C94C90541E09D
:1001300060E084E391E00E9431010E94840628EE91
:1001400033E040E050E00E948F07BA01A9012AE0A5
:1001500030E084E391E00C941D0622E040E167E288
:1001600084E391E00C94B80090E080E00895089555
:10017000FC01138212828AE191E09183808364837F
:1001800041872287138608950F931F93CF938C0185
:10019000C62FFC01648180E491E00E94A302F80173
:1001A00063856C2B80E491E00E94350280E491E04D
:1001B000CF911F910F910C94C00228E0FC0123877E
:1001C00060E00C94C4000F931F93CF938C01C62F53
:1001D00064600E94C40081E090E00E94EE066C2FF3
:1001E0006B7FC8010E94C40082E390E0CF911F9111
:1001F0000F910C94EE061F93CF93DF93EC01162F13
:100200000E94C400612FCE01DF91CF911F910C9409
:10021000E3000F931F93CF93DF938C01D62FC42F4E
:10022000607F642B0E94FB0080E1D89FB001112405
:100230006C2BC801DF91CF911F910F910C94FB00A3
:1002400040E00C94090161E00E94200180ED97E0FC
:100250000C94EE0662E00E94200180ED97E00C9481
:10026000EE06CF93DF93CDB7DEB728970FB6F8949D
:10027000DEBF0FBECDBF28E0E0E0F1E0DE01119669
:1002800001900D922A95E1F7FC012085241710F4C6
:100290004FEF420F50E0440F551F21E030E02C0F8C
:1002A0003D1F420F531FFA012081620F606828969C
:1002B0000FB6F894DEBF0FBECDBFDF91CF910C9487
:1002C0002001FC016681262F246026836C600C943B
:1002D000200141E00E94090181E090E00895CF9360
:1002E000DF93EC01423018F08D8188608D83488760
:1002F000222329F0413019F48D8184608D8362E3DB
:1003000070E080E090E00E94B5066B85CE010E940F
:10031000C40068EE73E080E090E00E94B50660E300
:10032000CE010E94FB0084E991E10E94EE0660E3A9
:10033000CE010E94FB0084E991E10E94EE0660E399
:10034000CE010E94FB0086E990E00E94EE0660E28A
:10035000CE010E94FB006D816062CE010E942001EF
:1003600084E08E83CE010E946101CE010E942301B0
:1003700082E08F8366E0CE010E942001CE01DF91F2
:10038000CF910C942A01CF93DF93EC0180E491E0AC
:100390000E9491021D8220E04A856985CE01DF918D
:1003A000CF910C946F010C94C301809174019091D2
:1003B0007501891B990B08959091750180917401C5
:1003C0002FEF3FEF981748F4E92FF0E0EA58FE4F7F
:1003D000208130E09F5F90937501C9010895E091FD
:1003E000750180917401E81730F4F0E0EA58FE4F8F
:1003F000808190E008958FEF9FEF08950895CF9347
:10040000DF93EC01E0914C01F0914D013097F1F058
:1004100090917501809174019817C0F090E0292F98
:1004200030E02617370754F4DE01A20FB31F4C91BA
:100430002A583E4FD9014C939F5FF1CF109275011E
:1004400060937401CB01DF91CF910994DF91CF913B
:100450000895E0914E01F0914F01309729F01092EC
:1004600052011092510109940895CF93DF931F9286
:10047000CDB7DEB76983209150012223F9F0209196
:100480005101203258F021E030E0FC013383228317
:1004900090E080E00F90DF91CF910895809152011C
:1004A000E82FF0E0ED5AFE4F998190838F5F8093A3
:1004B00052018093510181E090E0ECCF61E0CE01E8
:1004C00001960E94FF02F7CFCF92DF92EF92FF9248
:1004D0000F931F93CF93DF937C01CB018A0120916F
:1004E0005001222389F0EB016B01C40ED51ECC15FF
:1004F000DD0569F06991D701ED91FC910190F081E2
:10050000E02DC7010995F3CF642F0E94FF02C801B7
:10051000DF91CF911F910F91FF90EF90DF90CF90DF
:100520000895109275011092740110925201109268
:1005300051010E94D40289E292E00E942C038FEFC5
:1005400091E00C94270381E0809350016093730144
:10055000109252011092510108950F93062F21E03D
:100560004091510163E571E0809173010E944D0358
:100570001092520110925101109250010F91089562
:1005800061E00C94AD02E0E4F1E01382128288EEA7
:1005900093E0A0E0B0E084839583A683B78386E2EE
:1005A00091E09183808308951092090281E0809305
:1005B00007021092060261E082E10E945D0761E09D
:1005C00083E10E945D07E9EBF0E080818E7F80830C
:1005D00080818D7F808388E48093B80085E4809358
:1005E000BC000895ECEBF0E080818A7B808360E0C2
:1005F00082E10E945D0760E083E10C945D07209139
:10060000B801260F3327331F21323105E4F420913E
:1006100009022430D1F4FC0190E080E0861760F4F8
:10062000A091B8012191AC0146545E4FA40FB52FA3
:10063000B11D2C930196F2CF8091B801680F6093A1
:10064000B80180E0089581E0089582E008959093D4
:10065000FD018093FC0108959093FF018093FE01BA
:10066000089585EC8093BC00109209020895CF9301
:10067000DF9391E090930102882361F0C091B8006C
:10068000D091BA000E94F2020E94D402D093BA0024
:10069000C093B800DF91CF9108954F925F926F920F
:1006A0007F928F929F92AF92BF92EF92FF920F93A1
:1006B0001F93CF93DF93C82FF62EE72E142FD22F40
:1006C00081E0413260F50E9490064B015C0180910F
:1006D0000902882399F18091020290910302A0916E
:1006E0000402B0910502892B8A2B8B2B81F30E9487
:1006F00090064090020250900302609004027090B5
:100700000502681979098A099B0946165706680681
:100710007906E8F6809100020E94370385E0DF91B8
:10072000CF911F910F91FF90EF90BF90AF909F904E
:100730008F907F906F905F904F90089582E08093AC
:100740000902009307028FEF809396011092DB015C
:100750001093DA019F2DACEDB1E0EF2DFE2D8E2F21
:10076000891B811718F481918D93F9CF109208029B
:1007700080910802CC0FC82BC0930802809106021A
:10078000813009F041C0109206020E9490064B0190
:100790005C01809108028093BB00809102029091DD
:1007A0000302A0910402B0910502892B8A2B8B2BA6
:1007B000B9F48091BC0083FDECCF85EC8093BC0044
:1007C0000E9490064B015C01DD2321F0809109021B
:1007D0008230E1F0809196018F3FC9F580E09FCF94
:1007E0000E949006009102021091030220910402DF
:1007F00030910502681979098A099B0906171707BC
:1008000028073907B0F686CF85EED8CF809102024F
:1008100090910302A0910402B0910502892B8A2BCA
:100820008B2B91F20E94900600910202109103021C
:100830002091040230910502681979098A099B09FF
:10084000061717072807390708F0BECF63CF809136
:100850009601803231F080919601803321F084E05E
:100860005ECF82E05CCF83E05ACF85ED8093BC0001
:100870008091020290910302A0910402B0910502BE
:100880000796A11DB11D23E0B695A795979587956D
:100890002A95D1F72091BC0024FF1CC04091020290
:1008A000509103026091040270910502452B462B82
:1008B000472B81F30097A105B10541F02AE22A9563
:1008C000F1F700C00197A109B109E4CF80910002BE
:1008D0000C9437031092090208951F920F920FB6DD
:1008E0000F9211242F933F934F935F936F937F93B6
:1008F0008F939F93AF93BF93EF93FF938091B90032
:10090000887F803609F44CC008F03FC0883209F473
:10091000A8C018F5803109F49CC0B8F4882309F404
:10092000F9C0883009F495C0FF91EF91BF91AF9164
:100930009F918F917F916F915F914F913F912F91F7
:100940000F900FBE0F901F901895883109F489C041
:10095000803251F78093960115C0803409F49EC00F
:1009600048F48033B9F38833F9F6809396010E94F6
:100970003103DACF803509F485C0883509F496C093
:10098000883491F60E943504CFCF883909F48CC0A1
:1009900038F5883729F050F4883611F0803721F681
:1009A00083E0809309021092970157C0883809F4B8
:1009B0007BC0803919F0803809F0B6CF809197015B
:1009C000803208F071C0E091970181E08E0F809332
:1009D00097018091BB00F0E0E856FE4F80833DC058
:1009E000803B39F0E0F4803A09F479C0883A09F0A4
:1009F0009BCF84E0809309021092B9011092B80154
:100A0000E091FE01F091FF0109958091B8018111FB
:100A10000FC081E08093B8011092BA0109C0803CF8
:100A200009F476C0883C09F473C0883B09F07CCF98
:100A3000E091B90181E08E0F8093B901F0E0E654B6
:100A4000FE4F80818093BB009091B9018091B801E5
:100A500029C0809108028093BB0085EC8093BC0084
:100A600063CF9091DB018091DA01981758F5E091FE
:100A7000DB0181E08E0F8093DB01F0E0E452FE4F5A
:100A80008081E9CFE091DB0181E08E0F8093DB0173
:100A90008091BB00F0E0E452FE4F80839091DB0137
:100AA0008091DA019817C8F285E8D8CFE091DB0190
:100AB00081E08E0F8093DB018091BB00F0E0E45277
:100AC000FE4F80838091070281115CCF81E080938B
:100AD000060284EA8093BC001092090225CF0E948E
:100AE000310380919701803230F4E0919701F0E07A
:100AF000E856FE4F10826091970170E0E091FC0192
:100B0000F091FD0188E991E00995109297010CCFD1
:100B100085ECE0CF1092960135CFAF92BF92CF9285
:100B2000DF92EF92FF920F931F93CF93DF936C01AD
:100B30007B018B01040F151FEB015E01AE18BF088E
:100B4000C017D10759F06991D601ED91FC91019040
:100B5000F081E02DC6010995892B79F7C501DF9158
:100B6000CF911F910F91FF90EF90DF90CF90BF90AA
:100B7000AF900895FB0101900020E9F73197AF0194
:100B8000461B570BDC01ED91FC910280F381E02DB7
:100B900009946115710511F00C94BA0590E080E09C
:100BA00008958F929F92AF92BF92EF92FF920F9310
:100BB0001F93CF93DF93CDB7DEB7A1970FB6F8940D
:100BC000DEBF0FBECDBF7C01FA01CB0119A22230DE
:100BD00008F42AE08E010F5D1F4F822E912CB12C5C
:100BE000A12CBF01A50194010E948F07F901CA0140
:100BF0006A300CF5605DD8016E938D01232B242B98
:100C0000252B79F790E080E0109721F0BD01C70116
:100C10000E94BA05A1960FB6F894DEBF0FBECDBFF5
:100C2000DF91CF911F910F91FF90EF90BF90AF9008
:100C30009F908F900895695CDECF2115310541F4B6
:100C4000DC01ED91FC910190F081E02D642F09947D
:100C50000C94D10508950E94F9060E942A060E946C
:100C60008300C0E0D0E00E9497002097E1F30E944B
:100C70000000F9CF1F920F920FB60F9211242F93FD
:100C80003F938F939F93AF93BF9380910B0290916B
:100C90000C02A0910D02B0910E0230910A0223E0E5
:100CA000230F2D3758F50196A11DB11D20930A027F
:100CB00080930B0290930C02A0930D02B0930E024E
:100CC00080910F0290911002A0911102B091120236
:100CD0000196A11DB11D80930F0290931002A09365
:100CE0001102B0931202BF91AF919F918F913F91EA
:100CF0002F910F900FBE0F901F90189526E8230F8D
:100D00000296A11DB11DD2CF2FB7F89460910B02AE
:100D100070910C0280910D0290910E022FBF0895E8
:100D20003FB7F89480910F0290911002A0911102A8
:100D3000B091120226B5A89B05C02F3F19F001966D
:100D4000A11DB11D3FBFBA2FA92F982F8827BC0125
:100D5000CD01620F711D811D911D42E0660F771F4D
:100D6000881F991F4A95D1F708958F929F92AF924D
:100D7000BF92CF92DF92EF92FF926B017C010E94B3
:100D800090064B015C01C114D104E104F104E9F0C7
:100D90000E948B070E949006681979098A099B09AD
:100DA000683E73408105910570F321E0C21AD108B5
:100DB000E108F10888EE880E83E0981EA11CB11CA2
:100DC000C114D104E104F10429F7FF90EF90DF9002
:100DD000CF90BF90AF909F908F90089582309105F3
:100DE00038F0880F991F880F991F05970197F1F721
:100DF0000895789484B5826084BD84B5816084BD93
:100E000085B5826085BD85B5816085BDEEE6F0E083
:100E1000808181608083E1E8F0E0108280818260DF
:100E20008083808181608083E0E8F0E08081816060
:100E30008083E1EBF0E0808184608083E0EBF0E090
:100E4000808181608083EAE7F0E080818460808334
:100E500080818260808380818160808380818068DE
:100E600080831092C1000895833081F028F481308E
:100E700099F08230A9F008958730A9F08830C9F040
:100E80008430B1F4809180008F7D03C08091800018
:100E90008F7780938000089584B58F7784BD0895FF
:100EA00084B58F7DFBCF8091B0008F778093B000A9
:100EB00008958091B0008F7DF9CF1F93CF93DF937A
:100EC000282F30E0F901E859FF4F8491F901E458E7
:100ED000FF4FD491F901E057FF4FC491CC23A9F003
:100EE000162F81110E943407EC2FF0E0EE0FFF1F48
:100EF000EC55FF4FA591B4918FB7F894EC91111177
:100F000008C0D095DE23DC938FBFDF91CF911F9176
:100F10000895DE2BF8CF0895F8940C94B707A1E25A
:100F20001A2EAA1BBB1BFD010DC0AA1FBB1FEE1F63
:100F3000FF1FA217B307E407F50720F0A21BB30BAE
:100F4000E40BF50B661F771F881F991F1A9469F72A
:100F500060957095809590959B01AC01BD01CF0186
:100F60000895EE0FFF1F0590F491E02D0994F89479
:020F7000FFCFB1
:100F7200000040001400540048656C6C6F2C206D1A
:100F8200616B657221000000000069018D05B400EB
:100F9200B7000000000035026402B400FE01D50172
:040FA200DC01EF017E
:00000001FF
