:100000000C945E000C9486000C9486000C94860080
:100010000C9486000C9486000C9486000C94860048
:100020000C9486000C9486000C9486000C94860038
:100030000C9486000C9486000C9486000C94860028
:100040000C9452030C9486000C9486000C94860049
:100050000C9486000C9486000C9486000C94860008
:100060000C9486000C948600000000080002010039
:100070000003040700000000000000000102040863
:100080001020408001020408102001020408102002
:10009000040404040404040402020202020203032E
:1000A0000303030300000000250028002B000000CC
:1000B0000000240027002A00B800C20011241FBE3F
:1000C000CFEFD8E0DEBFCDBF11E0A0E0B1E0E0ECC3
:1000D000FCE002C005900D92A630B107D9F721E0EF
:1000E000A6E0B1E001C01D92A932B207E1F710E02D
:1000F000CDE5D0E004C02197FE010E944D06CC352D
:10010000D107C9F70E9443030C94EE050C9400003C
:1001100086E091E00E94D90064E186E091E00C94D1
:10012000F702CF93DF93D0E0C0E080910801909177
:100130000901C817D907C8F486E091E00E94390385
:1001400024EB30E540E050E0BE0186E091E00E9403
:100150008B0286E091E00E945D0168E770E080E03C
:1001600090E00E94C1032196E0CFDF91CF910895E6
:1001700022E530E046E050E068E070E086E091E0A3
:100180000C94690286E091E00C94C600CF93DF9353
:10019000EC0189859A850E9465058E819F8197FD76
:1001A00005C060E0DF91CF910C945E04DF91CF91A8
:1001B0000895CF93DF93EC018E819F8197FD0CC052
:1001C00061E00E945E0460E08E810E949A0481E0FA
:1001D0008983DF91CF910895198280E0FACFEF9261
:1001E000FF920F931F93CF93DF93EC017B018985DF
:1001F0009A850E9465059E858B85981701F184E09C
:1002000090E08E9D80018F9D100D9E9D100D1124FC
:100210001D830C83C8010E94C9049A8789870097AF
:1002200089F0A80170E060E00E94F105FB82EA829B
:10023000DF91CF911F910F91FF90EF90089583E090
:1002400090E0DFCF1D821C821B821A82F1CFFC015D
:10025000B685A3859B0186E0369527958A95E1F7BB
:1002600023702687CB0134E0969587953A95E1F780
:1002700083708387AB015695479556954795437094
:100280004487962F9370958791E06F3F710511F029
:1002900008F090E0908341855285452B69F031E06C
:1002A000BA1330E091E0281390E0391729F0628109
:1002B0007381CF010C94EF000895CF92DF92EF92FB
:1002C000FF920F931F93CF93DF93CDB7DEB729979C
:1002D0000FB6F894DEBF0FBECDBF8C01DC011996BE
:1002E0008D919C91892B09F473C00E949C03F801A5
:1002F000C784D088E188F2886C157D058E059F053E
:1003000020F46787708B818B928BF801C784D0882B
:10031000E188F2886C197D098E099F096C32714061
:100320008105910510F3F894D80114968D919C9154
:1003300015979A8389831996ED91FC917F01BFEF00
:10034000EB1AFB0A80818987F80190810388F48980
:10035000E02DD80155968C91992309F448C09081DD
:10036000982B98879081809589238F838F818E83A6
:1003700088E08D8358856F8149853D812E818981F3
:100380009A81D701508347FD252F3A952083262F48
:1003900039F0441F00C000006083000000C0F2CFAD
:1003A00038E04D9160830000019761F7D8015496C1
:1003B000FC93EE93539749873D832E839A838983D9
:1003C00078940E949C03F8016787708B818B928BD5
:1003D00029960FB6F894DEBF0FBECDBFDF91CF9147
:1003E0001F910F91FF90EF90DF90CF900895908133
:1003F000982B98879081809589238F838F818C8318
:1004000088E08B8358856F8149853B812C81898168
:100410009A81D701508347FD252F00C000C020835B
:1004200000C000C000C000C000C060830000262FD4
:100430003A9541F0441F000000C000C000C000C059
:1004400000C0E8CF38E04D9100C0608300C0019744
:1004500009F7D8015496FC93EE93539749873B8351
:100460002C83ACCF0F931F93CF93DF93EC01162F08
:10047000072F8981882339F08E819F8197FD03C0E2
:1004800060E00E945E041E830F838981882341F00F
:1004900061E0812F0E945E0460E0812F0E949A0437
:1004A000812F902FFC01E057FF4FE491F0E0EE0F19
:1004B000FF1FEC55FF4F259134913C8B2B8BFC019A
:1004C000E458FF4FE491ED8BDF91CF911F910F9195
:1004D0000895EF92FF920F931F93CF93DF93EC0158
:1004E0007B018A01198218861A8619861F86188A46
:1004F000198A1A8AB9010E942701B701CE010E9408
:10050000EF00B801CE01DF91CF911F910F91FF90C5
:10051000EF900C9432028F929F92AF92BF92CF9243
:10052000DF92EF92FF921F93CF93DF93FC018281C2
:10053000938168177907A8F54A01AA24BB24C82D1E
:10054000C32ED42EE52EFF241C2DD22F8085882388
:1005500061F0889E40011124C92D8C9D60011124F9
:100560001D2D829FD0011124DB2FA685E184F2840A
:100570009385A91322C0CB01880F991F680F791F9B
:100580006E0D7F1DA385A60FB72FB11DCC93A4853B
:10059000A60FB72FB11D1C938585680F711DFB0138
:1005A000D083DF91CF911F91FF90EF90DF90CF909C
:1005B000BF90AF909F908F900895660F771F660F42
:1005C000771F6E0D7F1D252F33274427552788233E
:1005D00049F090E0829F7001839FF00C929FF00C95
:1005E00011242F2DA60FB72FB11D2C93CBCFFF9227
:1005F0000F931F93CF93DF93EC01FF24F394F60E38
:1006000028852F1581F109851A85215041F16F3F09
:10061000E1F430E050E040E06FEF7FEF80E090E009
:100620000E942E06B901F8014C815D81CF01801B2B
:10063000910B84179507B0F44081469FC001479FF6
:10064000900D112490833196EFCF8F2D90E0982F4D
:1006500088270197622F70E00E94F805E4CF70E0D0
:1006600060E0E1CFF886DF91CF911F910F91FF906D
:100670000895FC014481558170E060E08185928598
:100680000C94F10508950E94FA030E9442030E940F
:100690008800C0E0D0E00E9491002097E1F30E9422
:1006A0000000F9CF1F920F920FB60F9211242F93D3
:1006B0003F938F939F93AF93BF9380911D01909130
:1006C0001E01A0911F01B091200130911C0123E077
:1006D000230F2D3758F50196A11DB11D20931C0144
:1006E00080931D0190931E01A0931F01B0932001E0
:1006F0008091210190912201A0912301B0912401C8
:100700000196A11DB11D8093210190932201A09318
:100710002301B0932401BF91AF919F918F913F919D
:100720002F910F900FBE0F901F90189526E8230F62
:100730000296A11DB11DD2CF3FB7F894809121013F
:1007400090912201A0912301B091240126B5A89B8C
:1007500005C02F3F19F00196A11DB11D3FBFBA2F53
:10076000A92F982F8827BC01CD01620F711D811D13
:10077000911D42E0660F771F881F991F4A95D1F798
:1007800008958F929F92AF92BF92CF92DF92EF9295
:10079000FF926B017C010E949C034B015C01C11420
:1007A000D104E104F104E9F00E94C8040E949C0312
:1007B000681979098A099B09683E7340810591058A
:1007C00070F321E0C21AD108E108F10888EE880E22
:1007D00083E0981EA11CB11CC114D104E104F104F2
:1007E00029F7FF90EF90DF90CF90BF90AF909F9050
:1007F0008F900895789484B5826084BD84B58160BB
:1008000084BD85B5826085BD85B5816085BDEEE618
:10081000F0E0808181608083E1E8F0E010828081F7
:1008200082608083808181608083E0E8F0E0808165
:1008300081608083E1EBF0E0808184608083E0EB85
:10084000F0E0808181608083EAE7F0E0808184606D
:1008500080838081826080838081816080838081C9
:10086000806880831092C1000895833081F028F45D
:10087000813099F08230A9F008958730A9F088304E
:10088000C9F08430B1F4809180008F7D03C08091E5
:1008900080008F7780938000089584B58F7784BD22
:1008A000089584B58F7DFBCF8091B0008F778093C2
:1008B000B00008958091B0008F7DF9CFCF93DF9382
:1008C00090E0FC01E458FF4F249180579F4FFC01BA
:1008D00084918823C9F090E0880F991FFC01E255AC
:1008E000FF4FA591B491FC01EC55FF4FC591D491F8
:1008F00061110DC09FB7F8948C91209582238C9341
:100900008881282328839FBFDF91CF91089562308B
:1009100051F49FB7F8943C91822F809583238C9358
:10092000E8812E2BEFCF8FB7F894EC912E2B2C93E0
:100930008FBFEACF1F93CF93DF93282F30E0F901C9
:10094000E859FF4F8491F901E458FF4FD491F90120
:10095000E057FF4FC491CC23A9F0162F81110E94BC
:100960003504EC2FF0E0EE0FFF1FEC55FF4FA59183
:10097000B4918FB7F894EC91111108C0D095DE2393
:10098000DC938FBFDF91CF911F910895DE2BF8CFBD
:1009900008950F931F93CF93DF938230910510F446
:1009A00082E090E0E0912701F091280130E020E022
:1009B000B0E0A0E0309799F42115310509F44AC060
:1009C000281B390B24303105D8F58A819B816115AC
:1009D000710589F1FB0193838283FE0111C040817F
:1009E00051810281138148175907E0F048175907D0
:1009F00099F4109761F012960C93129713961C932A
:100A00003296CF01DF91CF911F910F9108950093FE
:100A1000270110932801F4CF2115310551F0421719
:100A2000530738F0A901DB019A01BD01DF01F8018C
:100A3000C1CFEF01F9CF9093280180932701CDCF4B
:100A4000FE01E20FF31F8193919322503109398304
:100A50002883D7CF2091250130912601232B41F403
:100A6000209102013091030130932601209325014A
:100A700020910001309101012115310541F42DB77C
:100A80003EB74091040150910501241B350BE091C4
:100A90002501F0912601E217F307A0F42E1B3F0B6E
:100AA0002817390778F0AC014E5F5F4F24173507E0
:100AB00048F04E0F5F1F509326014093250181930C
:100AC00091939FCFF0E0E0E09CCFCF93DF9300972E
:100AD000E9F0FC01329713821282A0912701B091B4
:100AE0002801ED0130E020E01097A1F42081318150
:100AF000820F931F20912501309126012817390775
:100B000009F061C0F0932601E0932501DF91CF91B8
:100B10000895EA01CE17DF07E8F54A815B819E015F
:100B200041155105B1F7E901FB83EA8349915991D8
:100B3000C40FD51FEC17FD0761F4808191810296E7
:100B4000840F951FE90199838883828193819B8318
:100B50008A83F0E0E0E012968D919C9113970097C4
:100B6000B9F52D913C911197CD010296820F931FFB
:100B700020912501309126012817390739F6309741
:100B800051F51092280110922701B0932601A093ED
:100B90002501BCCFD383C28340815181840F951F2F
:100BA000C817D90761F44E5F5F4F88819981480F5C
:100BB000591F518340838A819B81938382832115AE
:100BC000310509F0B0CFF0932801E09327019ECFC3
:100BD000FD01DC01C0CF13821282D7CFF8940C94B0
:100BE0005306DC0101C06D9341505040E0F7089579
:100BF000AA1BBB1B51E107C0AA1FBB1FA617B70743
:100C000010F0A61BB70B881F991F5A95A9F780955E
:100C10009095BC01CD010895A1E21A2EAA1BBB1B21
:100C2000FD010DC0AA1FBB1FEE1FFF1FA217B307B8
:100C3000E407F50720F0A21BB30BE40BF50B661FCE
:100C4000771F881F991F1A9469F760957095809592
:100C500090959B01AC01BD01CF010895052E97FB36
:100C60001EF400940E94450657FD07D00E940C0612
:100C700007FC03D04EF40C944506509540953095F2
:100C800021953F4F4F4F5F4F0895909580957095F8
:100C900061957F4F8F4F9F4F0895EE0FFF1F059077
:100CA000F491E02D099410E0CDE5D0E004C0FE0100
:100CB0000E944D062196CE35D107C9F7F894FFCF93
:060CC00000002901800084
:00000001FF
