:100000000C945B000C9483000C9483000C9483008C
:100010000C9483000C9483000C9483000C945C0279
:100020000C9483000C9483000C9483000C94830044
:100030000C9483000C9483000C9483000C94830034
:100040000C9439050C9483000C94C5030C94F703AD
:100050000C9483000C9483000C9483000C94830014
:100060000C9483000C94830020636D00010204084B
:100070001020408001020408102001020408102012
:10008000040404040404040402020202020203033E
:1000900003030303000000002300260029000000E2
:1000A0000000250028002B0000000000240027008D
:1000B0002A00AB00270411241FBECFEFD8E0DEBF1B
:1000C000CDBF11E0A0E0B1E0E2EDFCE002C00590A0
:1000D0000D92A631B107D9F721E0A6E1B1E001C048
:1000E0001D92A13DB207E1F710E0CBE5D0E004C0DE
:1000F0002197FE010E946106C935D107C9F70E9408
:100100002A050C9428060C94000026E040E855E2ED
:1001100060E070E08BE291E00C94630350E040E01B
:1001200063E086E191E00E94B701CB010E94830267
:100130004AE050E0BC018BE291E00E94230568E6B2
:1001400070E08BE291E00E94B80464E670E080E029
:1001500090E00C94A80528EC30E04AE069E086E1E4
:1001600091E00C942B010F931F93CF93DF93EC013D
:10017000EA85FB8580819C81892B8083EE81FF81CC
:1001800080819C81892B80838CE090E00E94E10536
:10019000EE81FF8190818C818095892380838A897B
:1001A000882339F0EA85FB8590818C8180958923AD
:1001B0008083E885F98580819D81892331F080E005
:1001C000DF91CF911F910F9108950E948305AB019C
:1001D000BC018C859D85B0E0A0E08855994EAF4F5D
:1001E000BF4F840F951FA61FB71F8E879F87A88BB1
:1001F000B98BE885F98580819D81892361F40E940E
:1002000083050E851F852889398906171707280752
:10021000390778F7D4CF0E9483052C853D85620F7E
:10022000731F811D911D6E877F87888B998B81E05D
:10023000C7CF6F5F7F4F49E3469F9001479F300DC7
:1002400011242E384FE6340710F02DE83FE6FC016C
:100250003587248708950F931F93CF93DF93EC0185
:10026000A62FB0E0FD01E459FF4FE491EC83842F09
:1002700090E0FC01E459FF4FE491ED83A058BF4F9B
:10028000FD015491E52FF0E0EE0FFF1FE256FF4F06
:10029000059114911F830E83FC01E058FF4FE491F8
:1002A000F0E0EE0FFF1FEC56FF4F85919491998778
:1002B0008887FD01A491EA2FF0E0EE0FFF1FE855BB
:1002C000FF4F859194919B878A8781E0641380E03A
:1002D0008A8BB901CE010E941901EA85FB858081D4
:1002E0009C81892B8083EE81FF8190818C81809518
:1002F00089238083DF91CF911F910F9108950F93F0
:100300001F93CF93DF93EC016115710511F00E94EB
:100310001901CE010E94B300811107C090E080E076
:10032000DF91CF911F910F910895E885F985808124
:100330009D81892361F00E9483050E851F85288990
:100340003989061717072807390778F7E7CF0E947A
:1003500083052C853D85A901455051092E853F8592
:10036000FA01E21BF30BCF01860F971FD9CF6F92D3
:100370007F928F929F92AF92BF92CF92DF92EF9235
:10038000FF920F931F93CF93DF93CDB7DEB77C011E
:10039000762ECDB6DEB6862F90E0880F991F2DB74A
:1003A0003EB7281B390B0FB6F8943EBF0FBE2DBFCA
:1003B0000DB71EB70F5F1F4FEDB7FEB71282118248
:1003C0004115510521F0BA01C7010E941901612CA4
:1003D000671408F054C00E9483054B015C0170E073
:1003E00060E0C7010E947F01009709F446C06620C3
:1003F000A9F0A62DB0E0AA0FBB1F1296A00FB11F47
:10040000462D9D0124503109F901208131812817A1
:10041000390728F43E932E93415099F740E0E42F9A
:10042000F0E0EE0FFF1FE00FF11F918380836394D4
:10043000671470F60E948305681979098A099B0977
:10044000603375478105910518F60E94830520E306
:10045000820E25E7921EA11CB11C861A970AA80AD3
:10046000B90AC501B4012AE09695879577956795F5
:100470002A95D1F70E94A805ABCF7A94D9CFE894FA
:1004800070F8070D111DF8016081718190E080E026
:100490000FB6F894DEBE0FBECDBEDF91CF911F9197
:1004A0000F91FF90EF90DF90CF90BF90AF909F9013
:1004B0008F907F906F9008951F920F920FB60F92BA
:1004C00011242F933F934F935F936F937F938F9359
:1004D0009F93AF93BF93EF93FF93E0912901F09126
:1004E0002A010995FF91EF91BF91AF919F918F9153
:1004F0007F916F915F914F913F912F910F900FBE20
:100500000F901F90189569E370E00E942B06CB01B5
:100510000895FC01918D228D892F90E0805C9F4F82
:10052000821B91098F7399270895FC01918D828D0B
:10053000981731F0828DE80FF11D858D90E00895B8
:100540008FEF9FEF0895FC01918D828D981761F0D8
:10055000A28DAE0FBF2FB11D5D968C91928D9F5FC6
:100560009F73928F90E008958FEF9FEF0895FC01A5
:10057000538D448D252F30E0842F90E0821B930B08
:10058000541710F0CF960895019708958DE194E0E7
:10059000892B49F080E090E0892B29F00E941D040E
:1005A00081110C9400000895FC01A48DA80FB92FAF
:1005B000B11DA35ABF4F2C91848D90E001968F738B
:1005C0009927848FA689B7892C93A089B1898C91AA
:1005D000837080648C93938D848D981306C00288F9
:1005E000F389E02D80818F7D80830895CF93DF9301
:1005F000EC01888D8823B9F0AA89BB89E889F9893B
:100600008C9185FD03C0808186FD0DC00FB607FC6F
:10061000F7CF8C9185FFF2CF808185FFEDCFCE01A2
:100620000E94D402E9CFDF91CF910895EF92FF921B
:100630000F931F93CF93DF93EC0181E0888F9B8D05
:100640008C8D98131AC0E889F989808185FF15C0BF
:100650009FB7F894EE89FF896083E889F9898081E2
:100660008370806480839FBF81E090E0DF91CF91B1
:100670001F910F91FF90EF900895F62E0B8D10E0D3
:100680000F5F1F4F0F731127E02E8C8D8E110CC042
:100690000FB607FCFACFE889F989808185FFF5CF8D
:1006A000CE010E94D402F1CFEB8DEC0FFD2FF11D96
:1006B000E35AFF4FF0829FB7F8940B8FEA89FB89CA
:1006C00080818062CFCFCF92DF92EF92FF921F9313
:1006D000CF93DF93EC016A017B01122FE889F9893E
:1006E00082E08083C11481EED806E104F104A1F018
:1006F00060E079E08DE390E0A70196010E943F065B
:10070000215031094109510956954795379527954B
:10071000211580E1380798F0E889F989108260E8AE
:1007200074E88EE190E0A70196010E943F062150F7
:100730003109410951095695479537952795EC851B
:10074000FD853083EE85FF852083188EEC89FD8939
:100750001083EA89FB89808180618083EA89FB8933
:10076000808188608083EA89FB89808180688083BA
:10077000EA89FB8980818F7D8083DF91CF911F91F2
:10078000FF90EF90DF90CF9008951F920F920FB6D9
:100790000F9211242F938F939F93EF93FF93E091E8
:1007A0003B01F0913C018081E0914101F0914201D7
:1007B00082FD1BC09081809144018F5F8F732091D7
:1007C0004501821741F0E0914401F0E0E55DFE4F04
:1007D000958F80934401FF91EF919F918F912F917D
:1007E0000F900FBE0F901F9018958081F4CF1F922D
:1007F0000F920FB60F9211242F933F934F935F9355
:100800006F937F938F939F93AF93BF93EF93FF93D8
:100810008BE291E00E94D402FF91EF91BF91AF91E2
:100820009F918F917F916F915F914F913F912F9108
:100830000F900FBE0F901F9018958BE291E00E94D1
:10084000890221E0892B09F420E0822F0895EBE250
:10085000F1E01382128288EE93E0A0E0B0E084839E
:100860009583A683B78384E091E09183808385ECB0
:1008700090E09587848784EC90E09787868780EC6A
:1008800090E0918B808B81EC90E0938B828B82EC5B
:1008900090E0958B848B86EC90E0978B868B118E05
:1008A000128E138E148E0895AF92BF92CF92DF9264
:1008B000EF92FF920F931F93CF93DF936C017B0115
:1008C0008B01040F151FEB015E01AE18BF08C017A6
:1008D000D10759F06991D601ED91FC910190F08119
:1008E000E02DC6010995892B79F7C501DF91CF91DC
:1008F0001F910F91FF90EF90DF90CF90BF90AF903E
:100900000895FB0101900020E9F73197AF01461BE4
:10091000570BDC01ED91FC910280F381E02D0994ED
:10092000EF92FF920F931F93CF93DF938C017B0184
:10093000D0E0C0E0F701EC0FFD1F6491662361F089
:10094000D801ED91FC910190F081E02DC80109954D
:10095000892B11F02196EECFCE01DF91CF911F911F
:100960000F91FF90EF90089562E171E00C94810483
:100970000F931F93CF93DF93EC010E9490048C019F
:10098000CE010E94B404800F911FDF91CF911F917F
:100990000F9108958F929F92AF92BF92EF92FF9224
:1009A0000F931F93CF93DF93CDB7DEB7A1970FB609
:1009B000F894DEBF0FBECDBF7C01FA01CB0119A2B6
:1009C000223008F42AE08E010F5D1F4F822E912CF9
:1009D000B12CA12CBF01A50194010E943F06F90191
:1009E000CA016A300CF5605DD8016E938D01232B2E
:1009F000242B252B79F790E080E0109721F0BD01A2
:100A0000C7010E948104A1960FB6F894DEBF0FBE05
:100A1000CDBFDF91CF911F910F91FF90EF90BF90CD
:100A2000AF909F908F900895695CDECF21153105BE
:100A300041F4DC01ED91FC910190F081E02D642FF7
:100A400009940C94CA049A01AB0170E060E00C9424
:100A5000160508950E94EC050E9429050E94850054
:100A6000C6ECD2E00E948E002097E1F30E94C602FD
:100A7000F9CF1F920F920FB60F9211242F933F932D
:100A80008F939F93AF93BF938091C9019091CA01B7
:100A9000A091CB01B091CC013091C80123E0230F8C
:100AA0002D3758F50196A11DB11D2093C8018093E3
:100AB000C9019093CA01A093CB01B093CC0180915E
:100AC000CD019091CE01A091CF01B091D0010196BE
:100AD000A11DB11D8093CD019093CE01A093CF01B4
:100AE000B093D001BF91AF919F918F913F912F9182
:100AF0000F900FBE0F901F90189526E8230F0296B7
:100B0000A11DB11DD2CF3FB7F8948091CD01909136
:100B1000CE01A091CF01B091D00126B5A89B05C010
:100B20002F3F19F00196A11DB11D3FBFBA2FA92F6C
:100B3000982F8827BC01CD01620F711D811D911D69
:100B400042E0660F771F881F991F4A95D1F70895D5
:100B50008F929F92AF92BF92CF92DF92EF92FF92CD
:100B60006B017C010E9483054B015C01C114D1041F
:100B7000E104F104E9F00E9427060E948305681948
:100B800079098A099B09683E73408105910570F3D4
:100B900021E0C21AD108E108F10888EE880E83E04E
:100BA000981EA11CB11CC114D104E104F10429F761
:100BB000FF90EF90DF90CF90BF90AF909F908F907D
:100BC00008958230910538F0880F991F880F991F7A
:100BD00005970197F1F70895789484B5826084BDF4
:100BE00084B5816084BD85B5826085BD85B5816031
:100BF00085BDEEE6F0E0808181608083E1E8F0E091
:100C00001082808182608083808181608083E0E8BF
:100C1000F0E0808181608083E1EBF0E0808184609E
:100C20008083E0EBF0E0808181608083EAE7F0E0A0
:100C30008081846080838081826080838081816004
:100C400080838081806880831092C1000895089518
:100C5000F8940C946706AA1BBB1B51E107C0AA1F9E
:100C6000BB1FA617B70710F0A61BB70B881F991F4D
:100C70005A95A9F780959095BC01CD010895A1E200
:100C80001A2EAA1BBB1BFD010DC0AA1FBB1FEE1F06
:100C9000FF1FA217B307E407F50720F0A21BB30B51
:100CA000E40BF50B661F771F881F991F1A9469F7CD
:100CB00060957095809590959B01AC01BD01CF0129
:100CC0000895EE0FFF1F0590F491E02D0994F8941C
:020CD000FFCF54
:100CD2000000000016035404B702F6028902A302C0
:060CE20095020D0A00005E
:00000001FF
