:100000000C945D000C9485000C9485000C94850084
:100010000C9485000C9485000C9485000C9485004C
:100020000C9485000C9485000C9485000C94B6000B
:100030000C9485000C9485000C9485000C9485002C
:100040000C94F4020C9485000C9485000C948500AB
:100050000C9485000C9485000C9485000C9485000C
:100060000C9485000C94850000000008000201003B
:100070000003040700000000000000000102040863
:100080001020408001020408102001020408102002
:10009000040404040404040402020202020203032E
:1000A0000303030300000000250028002B000000CC
:1000B0000000240027002A00B20011241FBECFEF49
:1000C000D8E0DEBFCDBF11E0A0E0B1E0EAEDF9E09D
:1000D00002C005900D92A030B107D9F721E0A0E051
:1000E000B1E001C01D92A233B207E1F710E0CDE507
:1000F000D0E004C02197FE010E94D604CC35D10780
:10010000C9F70E94E5020C946B040C94000069E0AE
:1001100070E080E091E00C940B02CF93DF93D0E08D
:10012000C0E0BE0180E091E00E9448026FE070E014
:1001300080E090E00E9463032196C53BD10589F7DA
:10014000C4EBD0E0BE0180E091E00E9448026FE085
:1001500070E080E090E00E946303219798F7DF91C0
:10016000CF91089580E091E00C9471011F920F925D
:100170000FB60F9211242F933F934F935F936F937A
:100180007F938F939F93AF93BF93EF93FF93809150
:10019000040187FF27C0109285001092840080918F
:1001A00004018F5F8093040180910401082E000CEC
:1001B000990B209103012817190629F024F080914A
:1001C00004018C30DCF180918400909185000496CC
:1001D00080349C4908F47BC0809184009091850014
:1001E000049677C080910401082E000C990B209191
:1001F00003012817190699F294F2E09104018E2F59
:10020000EE0F990BFC01EE0FFF1FE80FF91FEB5FDC
:10021000FE4F808186FFC3CFE09104018E2FEE0F49
:10022000990BFC01EE0FFF1FE80FF91FEB5FFE4F6C
:10023000808160E08F730E943C04B1CF20918400E4
:1002400030918500E09104018E2FEE0F990BFC0197
:10025000EE0FFF1FE80FF91FEB5FFE4F81819281C8
:10026000820F931F9093890080938800E09104018E
:100270008E2FEE0F990BFC01EE0FFF1FE80FF91FF9
:10028000EB5FFE4F808186FF11C0E09104018E2F4D
:10029000EE0F990BFC01EE0FFF1FE80FF91FEB5F4C
:1002A000FE4F808161E08F730E943C04FF91EF91CB
:1002B000BF91AF919F918F917F916F915F914F917E
:1002C0003F912F910F900FBE0F901F90189580E4D3
:1002D0009CE990938900809388008FEF80930401BC
:1002E000E5CFFC01909103019C3098F481E0890FE7
:1002F000809303019083892F90E0FC01EE0FFF1F94
:10030000E80FF91FEB5FFE4F88EB9BE09283818340
:1003100008958FEF80830895DF92EF92FF920F93FD
:100320001F93CF93DF93EC01D62E7A018901888148
:100330008C3008F067C061E08D2D0E940004888138
:10034000282F30E0F901EE0FFF1FE20FF31FEB5FE4
:10035000FE4F9D2D9F736081607C692B608320E23E
:1003600032E02E193F0937FF02C02D5F3F4F359510
:10037000279535952795298320E639E0201B310BF9
:1003800037FF02C02D5F3F4F35952795359527954F
:100390002A832CE0622F0E947E04829FB0011124E8
:1003A00030E020E0AB01420F531FFA01EE0FFF1FB8
:1003B000E40FF51FEB5FFE4F908196FD16C02F5F97
:1003C0003F4F2C30310571F781110FC01092800022
:1003D00082E0809381001092850010928400B19A8F
:1003E00080916F00826080936F00E8818E2F90E093
:1003F000FC01EE0FFF1FE80FF91FEB5FFE4F80813E
:10040000806480838881DF91CF911F910F91FF904D
:10041000EF90DF90089520E639E040E252E00C943E
:100420008C01DC01EC91EC3090F511968C911197D8
:1004300028E830E0281B310987FD3395220F331F50
:10044000220F331F6217730784F012968C9128E5F0
:1004500032E0281B310987FD3395220F331F220F0D
:10046000331F621773070CF49B0122503109220FCE
:10047000331F4FB7F8948E2F90E0FC01EE0FFF1F53
:10048000E80FF91FEB5FFE4F328321834FBF0895C2
:10049000AF92BF92CF92DF92EF92FF920F931F9392
:1004A000CF93DF93EC01603282E078070CF03EC01E
:1004B000653B710514F064EB70E0898148E8A42E77
:1004C000B12CA81AB10887FDB394AA0CBB1CAA0CC6
:1004D000BB1C0B2C000CCC08DD0877FF02C070E0C1
:1004E00060E0072E000C880B990B2A8108E512E0CA
:1004F000021B110927FD1395000F111F000F111F7B
:10050000012E000C220B330B3F932F931F930F935D
:1005100014EBE12EF12C00E010E020E030E0A90126
:100520000E94A3020F900F900F900F90CE01DF91C9
:10053000CF911F910F91FF90EF90DF90CF90BF90E0
:10054000AF900C9411024F925F926F927F92AF9294
:10055000BF92CF92DF92EF92FF920F931F93CF93B0
:10056000DF93CDB7DEB729013A019B01AC01241915
:1005700035094609570989899A89AB89BC89BC0123
:10058000CD016A197B098C099D090E946E04A8019E
:10059000970124193509460957090E948A04CA019E
:1005A000B9016A0D7B1D8C1D9D1DDF91CF911F919F
:1005B0000F91FF90EF90DF90CF90BF90AF907F9022
:1005C0006F905F904F90089508950E949C030E9441
:1005D000E4020E948700C0E0D0E00E948D002097D6
:1005E000E1F30E940000F9CF1F920F920FB60F9215
:1005F00011242F933F938F939F93AF93BF93809139
:100600002A0190912B01A0912C01B0912D013091E4
:10061000290123E0230F2D3758F50196A11DB11DA7
:100620002093290180932A0190932B01A0932C0100
:10063000B0932D0180912E0190912F01A091300156
:10064000B09131010196A11DB11D80932E019093AF
:100650002F01A0933001B0933101BF91AF919F91D1
:100660008F913F912F910F900FBE0F901F90189573
:1006700026E8230F0296A11DB11DD2CF3FB7F894F3
:1006800080912E0190912F01A0913001B091310104
:1006900026B5A89B05C02F3F19F00196A11DB11DDD
:1006A0003FBFBA2FA92F982F8827BC01CD01620F19
:1006B000711D811D911D42E0660F771F881F991FD4
:1006C0004A95D1F708958F929F92AF92BF92CF92A1
:1006D000DF92EF92FF926B017C010E943E034B017F
:1006E0005C01C114D104E104F104E9F00E946A0440
:1006F0000E943E03681979098A099B09683E734084
:100700008105910570F321E0C21AD108E108F108D2
:1007100088EE880E83E0981EA11CB11CC114D10480
:10072000E104F10429F7FF90EF90DF90CF90BF90A4
:10073000AF909F908F900895789484B5826084BD27
:1007400084B5816084BD85B5826085BD85B58160D5
:1007500085BDEEE6F0E0808181608083E1E8F0E035
:100760001082808182608083808181608083E0E864
:10077000F0E0808181608083E1EBF0E08081846043
:100780008083E0EBF0E0808181608083EAE7F0E045
:1007900080818460808380818260808380818160A9
:1007A00080838081806880831092C10008958330A7
:1007B00081F028F4813099F08230A9F008958730D3
:1007C000A9F08830C9F08430B1F4809180008F7D29
:1007D00003C0809180008F7780938000089584B556
:1007E0008F7784BD089584B58F7DFBCF8091B00055
:1007F0008F778093B00008958091B0008F7DF9CFFE
:10080000CF93DF9390E0FC01E458FF4F2491805791
:100810009F4FFC0184918823C9F090E0880F991FB5
:10082000FC01E255FF4FA591B491FC01EC55FF4F3F
:10083000C591D49161110DC09FB7F8948C9120950A
:1008400082238C938881282328839FBFDF91CF91B7
:100850000895623051F49FB7F8943C91822F8095AF
:1008600083238C93E8812E2BEFCF8FB7F894EC91F4
:100870002E2B2C938FBFEACF1F93CF93DF93282F7C
:1008800030E0F901E859FF4F8491F901E458FF4F36
:10089000D491F901E057FF4FC491CC23A9F0162F52
:1008A00081110E94D703EC2FF0E0EE0FFF1FEC55F3
:1008B000FF4FA591B4918FB7F894EC91111108C036
:1008C000D095DE23DC938FBFDF91CF911F910895E8
:1008D000DE2BF8CF0895F8940C94EB04DB018F9392
:1008E0009F930E94A904BF91AF91A29F800D911D7B
:1008F000A39F900DB29F900D11240895991B79E04C
:1009000004C0991F961708F0961B881F7A95C9F79F
:1009100080950895052E97FB1EF400940E94A10473
:1009200057FD07D00E94B40407FC03D04EF40C948A
:10093000A10450954095309521953F4F4F4F5F4F03
:10094000089590958095709561957F4F8F4F9F4F3B
:1009500008950E94DC04A59F900DB49F900DA49F64
:10096000800D911D11240895A1E21A2EAA1BBB1B14
:10097000FD010DC0AA1FBB1FEE1FFF1FA217B3076B
:10098000E407F50720F0A21BB30BE40BF50B661F81
:10099000771F881F991F1A9469F760957095809545
:1009A00090959B01AC01BD01CF010895EE0FFF1F93
:1009B0000590F491E02D0994A29FB001B39FC0016E
:1009C000A39F700D811D1124911DB29F700D811D7B
:0A09D0001124911D0895F894FFCF43
:00000001FF
