:100000000C945D000C9485000C9485000C94850084
:100010000C9485000C9485000C9485000C9485004C
:100020000C9485000C9485000C9485000C9485003C
:100030000C9485000C9485000C9485000C9485002C
:100040000C94A5030C9485000C9454020C94860225
:100050000C9485000C9485000C9485000C9485000C
:100060000C9485000C94850000000008000201003B
:100070000003040700000000000000000102040863
:100080001020408001020408102001020408102002
:10009000040404040404040402020202020203032E
:1000A0000303030300000000250028002B000000CC
:1000B0000000240027002A00B60211241FBECFEF43
:1000C000D8E0DEBFCDBF11E0A0E0B1E0E2E9FAE0A8
:1000D00002C005900D92A631B107D9F721E0A6E143
:1000E000B1E001C01D92A03CB207E1F710E0CDE500
:1000F000D0E004C02197FE010E944105CC35D10714
:10010000C9F70E9496030C941C050C94000061E052
:100110008AE00E94B10461E08AE00E94ED040E943E
:10012000E20026E040E855E260E070E08AE191E01C
:100130000C94F201CF9380911801882381F09FB72E
:10014000F894809118018130C1F58DB38093160128
:100150002DB380911701809582238DBB9FBF81E5D0
:100160008CBD1DBC60E08AE00E94ED0485E58EBD7B
:1001700000000DB407FEFDCFCEB561E08AE00E941D
:10018000ED0480911801882351F09FB7F8942091D5
:10019000180180911601213099F48DBB9FBF40E179
:1001A00050E06C2F8AE191E00E94830368EE73E0D7
:1001B00080E090E0CF910C94140490931601CFCF7F
:1001C0008FBFEDCFCF93CFB7F894809119018111F4
:1001D00027C0EAE9F0E08491E6E8F0E09491E82FA6
:1001E000F0E0EE0FFF1FE255FF4FA591B491EC91A7
:1001F000E92321F461E08AE00E94ED0461E08AE0F5
:100200000E94B1048CB580618CBD8CB580648CBDBE
:1002100061E08DE00E94B10461E08BE00E94B104D6
:10022000809119018F5F80931901CFBFCF910895FD
:10023000FC01918D228D892F90E0805C9F4F821B65
:1002400091098F7399270895FC01918D828D9817DC
:1002500031F0828DE80FF11D858D90E008958FEFCC
:100260009FEF0895FC01918D828D981761F0A28D0A
:10027000AE0FBF2FB11D5D968C91928D9F5F9F73C6
:10028000928F90E008958FEF9FEF0895FC01538DBA
:10029000448D252F30E0842F90E0821B930B541760
:1002A00010F0CF960895019708958CEA92E0892B7B
:1002B00049F080E090E0892B29F00E94AC02811186
:1002C0000C9400000895FC01A48DA80FB92FB11D56
:1002D000A35ABF4F2C91848D90E001968F7399277C
:1002E000848FA689B7892C93A089B1898C9183705A
:1002F00080648C93938D848D981306C00288F38953
:10030000E02D80818F7D80830895CF93DF93EC0172
:10031000888D8823B9F0AA89BB89E889F9898C91ED
:1003200085FD03C0808186FD0DC00FB607FCF7CFA9
:100330008C9185FFF2CF808185FFEDCFCE010E94A9
:100340006301E9CFDF91CF910895EF92FF920F9370
:100350001F93CF93DF93EC0181E0888F9B8D8C8D71
:1003600098131AC0E889F989808185FF15C09FB765
:10037000F894EE89FF896083E889F9898081837028
:10038000806480839FBF81E090E0DF91CF911F91D7
:100390000F91FF90EF900895F62E0B8D10E00F5FF8
:1003A0001F4F0F731127E02E8C8D8E110CC00FB6CE
:1003B00007FCFACFE889F989808185FFF5CFCE0166
:1003C0000E946301F1CFEB8DEC0FFD2FF11DE35A7D
:1003D000FF4FF0829FB7F8940B8FEA89FB898081E9
:1003E0008062CFCFCF92DF92EF92FF921F93CF9395
:1003F000DF93EC016A017B01122FE889F98982E021
:100400008083C11481EED806E104F104A1F060E01C
:1004100079E08DE390E0A70196010E941F0521502D
:100420003109410951095695479537952795211569
:1004300080E1380798F0E889F989108260E874E86B
:100440008EE190E0A70196010E941F05215031091D
:10045000410951095695479537952795EC85FD85B6
:100460003083EE85FF852083188EEC89FD8910830B
:10047000EA89FB89808180618083EA89FB898081A8
:1004800088608083EA89FB89808180688083EA892B
:10049000FB8980818F7D8083DF91CF911F91FF90B9
:1004A000EF90DF90CF9008951F920F920FB60F92AA
:1004B00011242F938F939F93EF93FF93E0912A0141
:1004C000F0912B018081E0913001F091310182FDAA
:1004D0001BC09081809133018F5F8F732091340115
:1004E000821741F0E0913301F0E0E65EFE4F958F18
:1004F00080933301FF91EF919F918F912F910F90F6
:100500000FBE0F901F9018958081F4CF1F920F920D
:100510000FB60F9211242F933F934F935F936F93D6
:100520007F938F939F93AF93BF93EF93FF938AE152
:1005300091E00E946301FF91EF91BF91AF919F9174
:100540008F917F916F915F914F913F912F910F907C
:100550000FBE0F901F9018958AE191E00E9418013C
:1005600021E0892B09F420E0822F0895EAE1F1E0EF
:100570001382128288EE93E0A0E0B0E0848395833A
:10058000A683B78384E091E09183808385EC90E03B
:100590009587848784EC90E09787868780EC90E04D
:1005A000918B808B81EC90E0938B828B82EC90E03E
:1005B000958B848B86EC90E0978B868B118E128EB8
:1005C000138E148E0895AF92BF92CF92DF92EF9266
:1005D000FF920F931F93CF93DF936C017B018B01ED
:1005E000040F151FEB015E01AE18BF08C017D1073D
:1005F00059F06991D601ED91FC910190F081E02DC7
:10060000C6010995892B79F7C501DF91CF911F911B
:100610000F91FF90EF90DF90CF90BF90AF90089533
:10062000FB0101900020E9F73197AF01461B570B02
:10063000DC01ED91FC910280F381E02D099462E1EF
:1006400071E00C9410038F929F92AF92BF92EF9241
:10065000FF920F931F93CF93DF93CDB7DEB7A19790
:100660000FB6F894DEBF0FBECDBF7C01FA01CB01FF
:1006700019A2223008F42AE08E010F5D1F4F822E4E
:10068000912CB12CA12CBF01A50194010E941F0542
:10069000F901CA016A300CF5605DD8016E938D01D5
:1006A000232B242B252B79F790E080E0109721F065
:1006B000BD01C7010E941003A1960FB6F894DEBFDA
:1006C0000FBECDBFDF91CF911F910F91FF90EF90A3
:1006D000BF90AF909F908F900895695CDECF2115F9
:1006E000310541F4DC01ED91FC910190F081E02DA8
:1006F000642F09940C9423039A01462F50E070E074
:1007000060E00C946F030F931F93CF93DF93EC0182
:100710000E947C038C01CE010E941F03800F911F59
:10072000DF91CF911F910F91089508950E944D047C
:100730000E9495030E948700C5E5D1E00E949A00BF
:100740002097E1F30E945501F9CF1F920F920FB647
:100750000F9211242F933F938F939F93AF93BF9347
:100760008091B8019091B901A091BA01B091BB01FB
:100770003091B70123E0230F2D3758F50196A11DC5
:10078000B11D2093B7018093B8019093B901A09354
:10079000BA01B093BB018091BC019091BD01A091C1
:1007A000BE01B091BF010196A11DB11D8093BC0196
:1007B0009093BD01A093BE01B093BF01BF91AF91D3
:1007C0009F918F913F912F910F900FBE0F901F908F
:1007D000189526E8230F0296A11DB11DD2CF3FB771
:1007E000F8948091BC019091BD01A091BE01B0919F
:1007F000BF0126B5A89B05C02F3F19F00196A11D8A
:10080000B11D3FBFBA2FA92F982F8827BC01CD015A
:10081000620F711D811D911D42E0660F771F881FB9
:10082000991F4A95D1F708958F929F92AF92BF92E8
:10083000CF92DF92EF92FF926B017C010E94EF0357
:100840004B015C01C114D104E104F104E9F00E9400
:100850001B050E94EF03681979098A099B09683E04
:1008600073408105910570F321E0C21AD108E108B7
:10087000F10888EE880E83E0981EA11CB11CC114FB
:10088000D104E104F10429F7FF90EF90DF90CF90BD
:10089000BF90AF909F908F900895789484B58260B8
:1008A00084BD84B5816084BD85B5826085BD85B514
:1008B000816085BDEEE6F0E0808181608083E1E8C3
:1008C000F0E01082808182608083808181608083FB
:1008D000E0E8F0E0808181608083E1EBF0E08081FE
:1008E00084608083E0EBF0E0808181608083EAE7D0
:1008F000F0E0808184608083808182608083808159
:10090000816080838081806880831092C100089517
:10091000833081F028F4813099F08230A9F0089575
:100920008730A9F08830C9F08430B1F4809180001C
:100930008F7D03C0809180008F7780938000089521
:1009400084B58F7784BD089584B58F7DFBCF80916A
:10095000B0008F778093B00008958091B0008F7DB4
:10096000F9CFCF93DF9390E0FC01E458FF4F24913F
:1009700080579F4FFC0184918823C9F090E0880F35
:10098000991FFC01E255FF4FA591B491FC01EC5574
:10099000FF4FC591D49161110DC09FB7F8948C9110
:1009A000209582238C938881282328839FBFDF9101
:1009B000CF910895623051F49FB7F8943C91822F03
:1009C000809583238C93E8812E2BEFCF8FB7F894FB
:1009D000EC912E2B2C938FBFEACF1F93CF93DF93F5
:1009E000282F30E0F901E859FF4F8491F901E458CC
:1009F000FF4FD491F901E057FF4FC491CC23A9F0E8
:100A0000162F81110E948804EC2FF0E0EE0FFF1FDB
:100A1000EC55FF4FA591B4918FB7F894EC9111115B
:100A200008C0D095DE23DC938FBFDF91CF911F915B
:100A30000895DE2BF8CF0895F8940C944705A1E2B1
:100A40001A2EAA1BBB1BFD010DC0AA1FBB1FEE1F48
:100A5000FF1FA217B307E407F50720F0A21BB30B93
:100A6000E40BF50B661F771F881F991F1A9469F70F
:100A700060957095809590959B01AC01BD01CF016B
:100A80000895EE0FFF1F0590F491E02D0994F8945E
:020A9000FFCF96
:100A920000000000A501E3024601850118013201B0
:060AA20024010D0A000012
:00000001FF
