:100000000C9449050C9471050C9471050C947105C0
:100010000C9471050C9471050C9471050C94710588
:100020000C9471050C9471050C9471050C94710578
:100030000C9471050C9471050C9471050C94710568
:100040000C94FC170C9471050C9471050C947105BB
:100050000C9471050C9471050C9471050C94710548
:100060000C9452160C94710548656C6C6F2C206DC5
:10007000616B6572210000000000003E5B4F5B3E3B
:100080003E6B4F6B3E1C3E7C3E1C183C7E3C181C5D
:10009000577D571C1C5E7F5E1C00183C1800FFE754
:1000A000C3E7FF0018241800FFE7DBE7FF30483AFA
:1000B000060E2629792926407F050507407F05255C
:1000C0003F5A3CE73C5A7F3E1C1C08081C1C3E7FE4
:1000D00014227F22145F5F005F5F06097F017F00AB
:1000E0006689956A606060606094A2FFA2940804CB
:1000F0007E040810207E201008082A1C08081C2AEC
:1001000008081E101010100C1E0C1E0C30383E3843
:1001100030060E3E0E06000000000000005F0000EA
:100120000007000700147F147F14242A7F2A12235B
:100130001308646236495620500008070300001C6B
:100140002241000041221C002A1C7F1C2A08083E74
:100150000808008070300008080808080000606087
:100160000020100804023E5149453E00427F4000F5
:1001700072494949462141494D331814127F1027CD
:10018000454545393C4A494931412111090736491C
:10019000494936464949291E0000140000004034F0
:1001A00000000008142241141414141400412214F5
:1001B0000802015909063E415D594E7C1211127C1C
:1001C0007F494949363E414141227F4141413E7F7D
:1001D000494949417F090909013E414151737F085D
:1001E00008087F00417F41002040413F017F081403
:1001F00022417F404040407F021C027F7F04081064
:100200007F3E4141413E7F090909063E4151215E41
:100210007F09192946264949493203017F01033FD5
:100220004040403F1F2040201F3F4038403F631464
:1002300008146303047804036159494D43007F4166
:1002400041410204081020004141417F04020102A3
:1002500004404040404000030708002054547840C8
:100260007F284444383844444428384444287F385C
:100270005454541800087E090218A4A49C787F08DE
:1002800004047800447D40002040403D007F102859
:10029000440000417F40007C047804787C0804041A
:1002A000783844444438FC1824241818242418FCB2
:1002B0007C08040408485454542404043F44243C57
:1002C0004040207C1C2040201C3C4030403C4428C6
:1002D0001028444C9090907C4464544C4400083660
:1002E00041000000770000004136080002010204CE
:1002F000023C2623263C1EA1A161123A4040207AEE
:100300003854545559215555794122545478422135
:100310005554784020545579400C1E52721239556C
:100320005555593954545459395554545800004569
:100330007C410002457D420001457C407D12111246
:100340007DF0282528F07C545545002054547C54D9
:100350007C0A097F4932494949323A4444443A3295
:100360004A4848303A4141217A3A42402078009D3B
:10037000A0A07D3D4242423D3D4040403D3C24FFE7
:100380002424487E4943662B2FFC2F2BFF0929F696
:1003900020C0887E090320545479410000447D41E7
:1003A0003048484A32384040227A007A0A0A727D40
:1003B0000D19317D2629292F28262929292630485B
:1003C0004D4020380808080808080808382F10C8C9
:1003D000ACBA2F102834FA00007B000008142A144D
:1003E0002222142A14085500550055AA55AA55AAC8
:1003F000FF55FF55FF000000FF00101010FF001414
:100400001414FF001010FF00FF1010F010F014146F
:1004100014FC001414F700FF0000FF00FF1414F494
:1004200004FC141417101F10101F101F1414141F95
:1004300000101010F0000000001F101010101F100E
:10044000101010F010000000FF101010101010100D
:100450001010FF10000000FF140000FF00FF00005C
:100460001F10170000FC04F414141710171414F4D0
:1004700004F40000FF00F714141414141414F7000B
:10048000F7141414171410101F101F141414F4145C
:100490001010F010F000001F101F0000001F1400CB
:1004A0000000FC140000F010F01010FF10FF1414F6
:1004B00014FF141010101F00000000F010FFFFFFC9
:1004C000FFFFF0F0F0F0F0FFFFFF0000000000FF82
:1004D000FF0F0F0F0F0F3844443844FC4A4A4A3488
:1004E0007E02020606027E027E026355494163389F
:1004F00044443C04407E201E2006027E020299A550
:10050000E7A5991C2A492A1C4C7201724C304A4DAD
:100510004D303048784830BC625A463D3E494949E2
:10052000007E0101017E2A2A2A2A2A44445F44448B
:1005300040514A444040444A51400000FF0103E01A
:1005400080FF000008086B6B083612362436060F51
:10055000090F06000018180000001010003040FFBE
:100560000101001F01011E00191D1712003C3C3C37
:100570003C00000000002200FF21000103070F1FC4
:100580003F7F0080C0E0F0F8FCFEDB40A4A62EAF69
:100590002000A1C8D300408DAED580A80000600027
:1005A00000000000000000000000000000E000006B
:1005B000000000000000000000000001E00000005A
:1005C0000000000000000000000001F0000000003A
:1005D00000000000000000000003F0000000000028
:1005E000000000000000000007F000000000000014
:1005F0000000000000000007F800000000000000FC
:100600000000000000000FF800000003C0007E00A2
:100610000001E0007F0FF800000003C000FE0000B2
:1006200001E000FFEFF800000003C000FE00000141
:10063000E000FFFFF800000003C000F00000000F22
:10064000007FFE7FC0000003C000F00000000F002C
:100650003FFE7FF83FF1FBCFFCFEF3BC3DEFE01F18
:10066000FE7FFF7FFBFFDFFEFEFFBC3DEFE01FC60E
:10067000FFFF7FFBFFDFFEFEFFBC3DEFE00FE3C7A8
:10068000FE787BC3DE1EF0FFBC3DEF0007FF87FC5A
:10069000787BC3DE1EF0F83C3DEF0001FFFFF00069
:1006A0007BC3C01EF0F03C3DEF0001F37FE03FFB59
:1006B000C3CFFEF0F03C3DEF0003E33F807FFBC380
:1006C000DFFEF0F03C3DEF0007E73C00787BC3DE47
:1006D0001EF0F03C3DEF0007FFBE00787BC3DE1E3E
:1006E000F0F03C3DEF0007FFFE00787BC3DE1EF01C
:1006F000F03C3DEF000FFFFE007FFBFFDFFEF0F060
:100700003FFDEFE00FFFFF007FFBFFDFFEF0F03F5C
:10071000FDEFE00FF9FF003E79F9CF9EF0F01F3DAD
:10072000E7E01FF1FF0000000000000000000000F3
:10073000001F80FF007FFFFFFFFFFFFFFFFFFFE0C5
:100740001C007F007FFFFFFFFEB46D888D18E00066
:10075000001F007FFFFFFFFE95AD7DB577E0000035
:100760000F007FFFFFFFFEA5AD9D8D19E000000685
:10077000007FFFFFFFFEB5ADEDB57EE0000000009D
:100780000001800000000000000000000380000065
:100790000000000000000007C00000000000000092
:1007A000000007C00000000000000000000FC000B3
:1007B00000000000000000001FE00000000000003A
:1007C0000000001FE00000000000000000003FE00B
:1007D0000000000000000000003FF00000000000EA
:1007E000000000007FF0000000000000001FF87F04
:1007F000F0000000000000003FFE7FF0000000005D
:100800000000003FFF7FF0000000000000001FFF1D
:10081000FBE0000000000000000FFFF9FFC0000037
:10082000000000000FFFF9FFF800000000000007C3
:10083000FFF1FFFF00000000000003FC73FFFF80DA
:10084000000000000001FE3FFFFF800000000000EC
:1008500000FF1E0FFF000000000000007FFE1FFCD5
:10086000000000000000003FFFFFF8000000000053
:1008700000000FDFFFE0000000000000001F19FF74
:10088000C0000000000000003F3CFF00000000002E
:100890000000007E7CF800000000000000007FFEE9
:1008A0007C0000000000000000FFFFFC00000000D2
:1008B00000000000FFFFFE0000000000000000FF3D
:1008C000FFFE0000000000000001FFEFFE0000003E
:1008D0000000000001FFCFFE000000000000000348
:1008E000FF07FE0000000000000003FC07FE000000
:1008F000000000000003F003FE0000000000000004
:10090000018000FE000000000000000000007E00EA
:100910000000000000000000003E00000000000099
:10092000000000000C000000000000078000FC0038
:100930000003C0000000078001FC000003C00000AD
:1009400000078001FC000003C0000000078001E0F8
:100950000000001E000000078001E00000001E00F3
:100960007FE3F79FF9FDE7787BDFC0FFF7FFBFFD6F
:10097000FDFF787BDFC0FFF7FFBFFDFDFF787BDF6A
:10098000C0F0F787BC3DE1FF787BDE00F0F787BC65
:100990003DE1F0787BDE0000F787803DE1E0787B89
:1009A000DE007FF7879FFDE1E0787BDE00FFF787C1
:1009B000BFFDE1E0787BDE00F0F787BC3DE1E07849
:1009C0007BDE00F0F787BC3DE1E0787BDE00F0F7EE
:1009D00087BC3DE1E0787BDE00FFF7FFBFFDE1E093
:1009E0007FFBDFC0FFF7FFBFFDE1E07FFBDFC07CE7
:1009F000F3F39F3DE1E03E7BCFC00000000000002C
:100A00000000000000FFFFFFFFFFFFFFFFFFFFC030
:100A1000FFFFFFFFFD68DB111A31C0FFFFFFFFFD85
:100A20002B5AFB6AEFC0FFFFFFFFFD4B5B3B1A3306
:100A3000C0FFFFFFFFFD6B5BDB6AFDC0000000082D
:100A40000002010000030407000000000000000095
:100A50000102040810204080010204081020010255
:100A60000408102004040404040404040202020222
:100A70000202030303030303000000002500280013
:100A80002B0000000000240027002A0074059514A4
:100A90009E0511241FBECFEFD8E0DEBFCDBF11E011
:100AA000A0E0B1E0E8EBF5E302C005900D92A437B9
:100AB000B107D9F722E0A4E7B1E001C01D92AF3839
:100AC000B207E1F715E0C8E4D5E004C02197FE01C4
:100AD0000E94C91AC634D107C9F70E94ED170C94B9
:100AE0009D1A0C94000008958F929F92AF92BF922E
:100AF000CF92DF92EF92FF920F9380EA882E86E8E2
:100B0000982EAA24A394B12C90E8C92E9AE1D92E4C
:100B100096E0E92EF12C0FEF28EB31E040E460E89D
:100B200084E791E00E94610D0F91FF90EF90DF90BC
:100B3000CF90BF90AF909F908F90089584E791E001
:100B40000C94AC0DEF92FF920F931F9301E021E004
:100B50004CE362E084E791E00E94190F811101C02B
:100B6000FFCF84E791E00E94FB0E61E084E791E013
:100B70000E94470C81E090E090938701809386016A
:100B800090938501809384011092810110928001DD
:100B9000109283011092820168E670E084E791E090
:100BA0000E94D617EE24E394F12C0EE110E024E627
:100BB00030E044E150E070E060E084E791E00E94C2
:100BC0009E0784E791E01F910F91FF90EF900C94A6
:100BD0009C1290E080E0089508952F923F924F92EA
:100BE0005F926F927F928F929F92AF92BF92CF92BD
:100BF000DF92EF92FF920F931F93CF93DF9300D07A
:100C000000D000D0CDB7DEB73C016A013E832D8312
:100C1000FC82EB825801A41AB50AB7FE03C0B19456
:100C2000A194B1088D809E80861A970A97FE03C012
:100C30009194819491088A149B045CF0902F812FE9
:100C40000D811E819D838E839C2D8D2D6B01692FBF
:100C5000782F0C151D055CF09D818E817E836D8340
:100C6000692F782F902F812F8601C92ED82E16013B
:100C7000201A310A2B012D813E81421A530A57FE58
:100C800003C0519441945108710137FE03C03FEFF6
:100C9000E31AF30AF594E7948D819E8186179707EE
:100CA0005CF5A1E0B0E0BA83A983C016D1064CF18F
:100CB000D301ED91FC910484F585E02D2B813C81DD
:100CC000A8016D817E818A149B041CF04D815E8198
:100CD000B801C3010995E418F508F7FE0AC02D8193
:100CE0003E8189819A81280F391F3E832D83E20C32
:100CF000F31C0F5F1F4FD9CF2FEF3FEF3A832983AC
:100D0000D4CF26960FB6F894DEBF0FBECDBFDF91CD
:100D1000CF911F910F91FF90EF90DF90CF90BF90F8
:100D2000AF909F908F907F906F905F904F903F908B
:100D30002F9008950895DC01ED91FC910084F185D8
:100D4000E02D09940F931F93DC01ED91FC91048C2D
:100D5000F58DE02D09951F910F9108950F931F9325
:100D6000DC01ED91FC91068CF78DE02D09951F912A
:100D70000F910895EF92FF920F931F93DC01ED9175
:100D8000FC9100A0F1A1E02D09951F910F91FF901A
:100D9000EF9008958F929F92AF92BF92CF92DF9281
:100DA000EF92FF920F931F93CF93DF93EC015B01C0
:100DB0004A0169017801E881F9810284F385E02D17
:100DC0000995C80CD91C860101501109E881F981E7
:100DD0000488F589E02D9501A401B501CE0109959E
:100DE000E881F9810688F789E02DCE01DF91CF9166
:100DF0001F910F91FF90EF90DF90CF90BF90AF9039
:100E00009F908F9009948F929F92AF92BF92CF92B2
:100E1000DF92EF92FF920F931F93CF93DF93EC013A
:100E20005B014A016901E881F9810284F385E02DC3
:100E3000099595012C0D3D1D21503109E881F9815D
:100E40000488F589E02D78018401A401B501CE0163
:100E50000995E881F9810688F789E02DCE01DF91B7
:100E6000CF911F910F91FF90EF90DF90CF90BF90A7
:100E7000AF909F908F9009944F925F926F927F9264
:100E80008F929F92AF92BF92CF92DF92EF92FF929A
:100E90000F931F93CF93DF936C012B015A013901FC
:100EA0004801DC01ED91FC910284F385E02D099568
:100EB000E201640C751CD601ED91FC91C615D705B5
:100EC0005CF40088F189E02D87019401A501BE0141
:100ED000C60109952196EFCF0688F789E02DC60156
:100EE000DF91CF911F910F91FF90EF90DF90CF9006
:100EF000BF90AF909F908F907F906F905F904F903A
:100F00000994EF92FF920F931F93DC011A960D91B3
:100F10001C911B9718962D913C911997ED91FC917E
:100F200000A0F1A1E02D7B0150E040E070E060E026
:100F300009951F910F91FF90EF9008956F927F9206
:100F40008F929F92AF92BF92CF92DF92EF92FF92D9
:100F50000F931F93CF93DF93EC016B015A0139017B
:100F60004801E881F9810284F385E02D0995E88143
:100F7000F9810288F389E02D87019301A501B6016B
:100F8000CE010995A501480D591D41505109E8812F
:100F9000F9810288F389E02D9301B601CE0109950C
:100FA000E881F9810088F189E02D9401A501B6015D
:100FB000CE010995C60CD71CB60161507109E881B4
:100FC000F9810088F189E02D9401A501CE010995F0
:100FD000E881F9810688F789E02DCE01DF91CF9174
:100FE0001F910F91FF90EF90DF90CF90BF90AF9047
:100FF0009F908F907F906F90099408956F927F9249
:101000008F929F92AF92BF92CF92DF92EF92FF9218
:101010000F931F93CF93DF935C01EB016A014901AA
:1010200038018701DC01ED91FC916217730719F516
:10103000641675062CF0962D872D3A01C92ED82EF0
:101040009601261937092F5F3F4F048CF58DE02D4F
:10105000A301BE01C5010995DF91CF911F910F91A9
:10106000FF90EF90DF90CF90BF90AF909F908F90C8
:101070007F906F9008954615570591F4261737070E
:1010800024F0892D4B01C22FD82F9E012819390930
:101090002F5F3F4F068CF78DE02DA601B401DACF0C
:1010A0000284F385E02D0995D501ED91FC9104882A
:1010B000F589E02D83019401A601BE01C5010995C2
:1010C000D501ED91FC910688F789E02DC501DF91EE
:1010D000CF911F910F91FF90EF90DF90CF90BF9035
:1010E000AF909F908F907F906F900994FC016370F8
:1010F000668B8481958126813781613039F0633038
:1011000029F0918780873387228708953187208748
:10111000938782870895FC01138212828AE091E00E
:101120009183808375836483578346837187608747
:1011300053874287168A158614861786168681E09D
:10114000858B848B2FEF3FEF338B228B318B208B62
:10115000878B108E128E118E08953F924F925F9260
:101160006F927F928F929F92AF92BF92CF92DF92B7
:10117000EF92FF920F931F93CF93DF93CDB7DEB71C
:101180002A970FB6F894DEBF0FBECDBF9A87898726
:101190007E836D8358874F8329013701DC01ED91F0
:1011A000FC910284F385E02D0995C801079697FD0F
:1011B00007969C0193E0359527959A95E1F73A8338
:1011C0002983912C812CB12CA12C312C8F819885D5
:1011D0008A0D9B1D9C838B83A614B704ACF5F12C60
:1011E000E12CE016F10644F5C70187709927330C0E
:1011F000892B59F4F70183E0F595E7958A95E1F796
:10120000E80DF91DE40DF51D349037FE11C0A985D8
:10121000BA85ED91FC9111970484F585E02D960136
:101220004B815C816D817E816E0D7F1DCD010995A5
:10123000BFEFEB1AFB0AD5CF2FEFA21AB20A8981B2
:101240009A81880E991EC2CFA985BA85ED91FC912D
:1012500011970688F789E02DCD012A960FB6F894EC
:10126000DEBF0FBECDBFDF91CF911F910F91FF90D9
:10127000EF90DF90CF90BF90AF909F908F907F9036
:101280006F905F904F903F9009942F923F924F92B2
:101290005F926F927F928F929F92AF92BF92CF9206
:1012A000DF92EF92FF920F931F93CF93DF93CDB70F
:1012B000DEB76A970FB6F894DEBF0FBECDBF9A8F28
:1012C000898F7A8369834A01D22E18870F83370169
:1012D000BC2CDC0159962D913C915A972115310572
:1012E00009F015C118968D919C9119976817790787
:1012F0000CF0D7C11A968D919C91481759070CF0A4
:10130000D0C14C2C512CB6E0CB9E600D711D112428
:101310007C876B87161617060CF0C3C1EA2DF0E028
:10132000FA87E98793E0EE0FFF1F9A95E1F7F88BB4
:10133000EF87CF01840F951F181619060CF0B1C165
:10134000A98DBA8D58968C91811104C0BFEABD1544
:1013500008F4D394A98DBA8DED91FC911197028474
:10136000F385E02DCD010995B5E0DB9EC001112488
:10137000E981FA81FC83EB83312C212C9C012A58D2
:101380003F4F388F2F8B4A2D50E05E8B4D8BEF896E
:10139000F88DE20DF31D44919E828D82D12CC12CDB
:1013A00069817A81620D731D7A8B698B842F90E03D
:1013B0009C8B8B8BE98DFA8DA081B18140FF82C01F
:1013C000F1E0BF126FC0AF126DC01C96ED91FC91A1
:1013D0002F813885A4014C0D5D1D69897A89898D1D
:1013E0009A8D0995EB89FC89F595E7954E2F5FEF6E
:1013F000C51AD50A6D817E818D899E89680F791FF6
:101400007E836D8398E0C916D10481F6AFEF2A1A66
:101410003A0AEB81FC81E40DF51DFC83EB83F5E0DA
:101420002F16310409F0B3CF2F81388526153705E3
:10143000B9F0A98DBA8DED91FC91B1E0BB1257C006
:10144000AB1255C069817A816B5F7F4F0088F1894B
:10145000E02D830128E030E0A401898D9A8D099563
:10146000A98DBA8DED91FC9111970688F789E02D31
:10147000CD016A960FB6F894DEBF0FBECDBFDF91E7
:10148000CF911F910F91FF90EF90DF90CF90BF9081
:10149000AF909F908F907F906F905F904F903F9014
:1014A0002F9009941E96ED91FC91EF80F8840985A8
:1014B0001A8592014D815E816B817C81898D9A8D27
:1014C000099590CF2F8138852615370509F48ACFE5
:1014D00031E0B31207C0A31205C01C96ED91FC9138
:1014E000930178CF1E96ED91FC917301E0CF6B854F
:1014F0007C85641975090684F785E02D73010F85D5
:1015000018899201A401898D9A8D0995A9CFF901B5
:1015100034969491329745915491D91AB7E0DB9E55
:10152000400D511D1124F901259134913C8B2B8BD9
:10153000FA0125903490FA013296749031963491E4
:10154000398B329664903196449041E04C1518F0F6
:101550004A1508F07FC0662D062C000C770B7C83A3
:101560006B83842D042C000C990B9E838D83A98D95
:10157000BA8DED91FC9111970284F385E02DCD0198
:101580000995512CD12CC12CEA2DF0E0FA87E9877E
:101590002B2D30E03C872B87A401440D511D47FCC7
:1015A0005A95588F4F8B69817A81660D711D67FC42
:1015B0007A957E876D877989C71608F051CF2C2DD3
:1015C00030E04D815E81420F531FA985BA854A9F45
:1015D000C0014B9F900D5A9F900D1124FC01E80D06
:1015E000F91DF88BEF87852D612C4F89588D420F9F
:1015F000531F5E8B4D8B671408F050C044244394F6
:10160000480E877041F4C1010196EB89FC89E20D17
:10161000F31DD4901C01D7FE19C0A98DBA8DED9190
:10162000FC91662D70E0B1E0BB1219C0AB1217C07F
:101630002D853E85620F731F0484F585E02D2F8173
:1016400038854D895E89898D9A8D0995DD0C639465
:10165000842DD1CF1E821D821C821B8288CF4B819C
:101660005C81640F751FAB85BC856A9FC0016B9F51
:10167000900D7A9F900D112469817A81680F791FEE
:101680000684F785E02DEF80F88409851A859D0191
:101690004F855889898D9A8D0995D8CF570CC39459
:1016A0008ACF6A960FB6F894DEBF0FBECDBFDF912A
:1016B000CF911F910F91FF90EF90DF90CF90BF904F
:1016C000AF909F908F907F906F905F904F903F90E2
:1016D0002F9008958F929F92AF92CF92EF92FF92A8
:1016E0000F931F93CF93DF93EC01262F898D9A8D53
:1016F000009709F051C06A30D1F41D861C868D898F
:1017000048E0849F900111248E859F85820F931F4E
:101710009F878E8781E090E0DF91CF911F910F919D
:10172000FF90EF90CF90AF909F908F9008956D3085
:1017300089F3CC88AD888F898823C1F08C859D85FD
:1017400036E0C39E800D911D1124488559854817A8
:10175000590764F44E855F851D861C8638E0A39E7C
:10176000C0011124840F951F9F878E87EA88FB880C
:10177000088919894E855F856C857D85CE010E941B
:1017800045092C898C859D8546E0249F800D911DFF
:1017900011249D878C87BECF6A3069F41D861C8614
:1017A000FC013896E4912D898E859F85E29F800DFE
:1017B000911D1124ADCF6D3009F4ACCFFC013496EE
:1017C0003491631708F4A6CF3296E491E61708F433
:1017D000A1CFFC01329685909490462F431B342F65
:1017E00047E0349F800C911C1124F401329634910F
:1017F0003196E4913323A9F1EE2399F1CC88F401D9
:101800003596E491AD884F89442301F10E2E000CEA
:10181000FF0BE30FF11DCE9EA001CF9E500D1124B2
:101820006C857D85460F571F688579856417750718
:101830006CF44E855F851D861C86FC013896E4910C
:10184000AE9E400D511D11245F874E87EA88FB88AC
:10185000088919894E855F856C857D85CE010E943A
:101860004509F4013496E4912C898C859D85E29F8D
:10187000800D911D11248DCF611101C061E0FC012B
:10188000648B411101C041E0FC01458B0895462F56
:101890000C943C0C8091B601882361F09FB7F894BA
:1018A0002091B6018091B401213019F48DBB9FBF06
:1018B00008958FBF0895CF93CFB7F8948091B70163
:1018C000811127C0EEE6FAE08491EAE5FAE094910E
:1018D000E82FF0E0EE0FFF1FEE57F54FA591B49102
:1018E000EC91E92321F461E08AE00E94441961E06F
:1018F0008AE00E9408198CB580618CBD8CB580642B
:101900008CBD61E08DE00E94081961E08BE00E94CF
:1019100008198091B7018F5F8093B701CFBFCF9136
:101920000895FC0177FD64C080859185681779076B
:101930000CF05EC057FD5CC082859385481759073F
:101940000CF056C086898230B1F0833029F18130A5
:1019500041F484819581841B950BAB01BC016150DE
:1019600071092130310509F108F443C022303105F5
:1019700009F463C0089584819581DC01A61BB70B2F
:10198000BD016150710986819781DC01A41BB50BF3
:10199000AD0141505109E5CF86819781861B970B98
:1019A000BA01AC0141505109DCCFCA0157FD07967D
:1019B000A3E095958795AA95E1F7A481B5818A9FC3
:1019C00090018B9F300D9A9F300D1124620F731F71
:1019D000078CF0A1E02DE60FF71F4770552721E097
:1019E00030E001C0220F4A95EAF78081822B808384
:1019F0000895CA0157FD079633E0959587953A9566
:101A0000E1F7A481B5818A9F90018B9F300D9A9F49
:101A1000300D1124620F731F078CF0A1E02DE60F2B
:101A2000F71F4770552781E090E001C0880F4A9565
:101A3000EAF7809590818923DACFCA0157FD07968E
:101A400023E0959587952A95E1F7A481B5818A9F32
:101A500090018B9F300D9A9F300D1124620F731FE0
:101A6000078CF0A1E02DE60FF71F4770552721E006
:101A700030E001C0220F4A95EAF780818227B7CF74
:101A80002091B601222381F03FB7F8942091B6014E
:101A9000213069F42DB32093B4014DB32091B501E9
:101AA000209524232DBB3FBF8CBD9DBD0895309351
:101AB000B401FACF8EBD00000DB407FEFDCF8EB588
:101AC00008954F925F926F927F928F929F92AF9202
:101AD000BF92CF92DF92EF92FF920F93CF93DF935B
:101AE000CDB7DEB73C01290150E070E00E948B08C1
:101AF00086E391E0F30191838083148E138E411469
:101B0000510421F488EB482E81E0582EF301568EC3
:101B1000458E10A2178E8FEF84A385A386A387A37B
:101B200000A7C5AAD6AAE7AAF0AE81AE92AEA3AE30
:101B3000B4AE80E586AF17AEDF91CF910F91FF90E5
:101B4000EF90DF90CF90BF90AF909F908F907F905D
:101B50006F905F904F90089526E331E0FC01318350
:101B60002083878D90A1009711F00C940F1A08958F
:101B70001F93CF93DF93EC01162F8D8D9E8D0097D1
:101B800009F169A1062E000C770B0E947D148D8D42
:101B90009E8DDC01ED91FC910190F081E02D60E0E3
:101BA00009958D8D9E8DDC01ED91FC910190F08168
:101BB000E02D612F09958D8D9E8DDF91CF911F9125
:101BC0000C949214EDA5FEA590818BA98095892394
:101BD00080838B8D9C8D892B31F0862FDF91CF9167
:101BE0001F910C945A0D28E030E090E8E9A5FAA581
:101BF00089A9412F4923C1F04081842B8083EBA523
:101C0000FCA580814AA9842B8083EBA5FCA540819B
:101C10008AA980958423808396952150310931F7D4
:101C2000DF91CF911F910895408180958423E6CF65
:101C30001F93CF93DF93EC01162F8D8D9E8D009710
:101C4000C9F04DA95EA96FA978AD0E946F1466EA2C
:101C5000111167EACE010E94B80D8D8D9E8D0097FF
:101C6000C9F049AD5AAD6BAD7CADDF91CF911F91FD
:101C70000C946F148B8D9C8D892B21F08EAD9FADB4
:101C80000E94400DEFA5F8A990818CA98095892329
:101C90008083DDCFEFA5F8A980819CA9892B808363
:101CA0008B8D9C8D892B29F0DF91CF911F910C9406
:101CB0004A0CDF91CF911F910895CF92DF92EF925E
:101CC000FF921F93CF93DF93EC016B01142F8D8D47
:101CD0009E8D009709F44FC069A1062E000C770B6A
:101CE0000E947D148D8D9E8DDC01ED91FC91019003
:101CF000F081E02D60E009957601CC24C394D12CCD
:101D000011508D8D9E8D1F3F69F1B0E2CB16D1042D
:101D1000B8F00E94921469A1062E000C770B8D8DED
:101D20009E8D0E947D148D8D9E8DDC01ED91FC9128
:101D30000190F081E02D60E00995CC24C394D12C72
:101D40008D8D9E8DF7016491DC01ED91FC910190E8
:101D5000F081E02D0995BFEFCB1ADB0AEFEFEE1A09
:101D6000FE0ACECFDF91CF911F91FF90EF90DF90D1
:101D7000CF900C949214EDA5FEA590818BA980952F
:101D8000892380837B01115070F1F70184912B8DA1
:101D90003C8D232B31F00E945A0DFFEFEF1AFF0A02
:101DA000F2CF28E030E040E8E9A5FAA599A9582F3C
:101DB0005423A9F05081952B9083EBA5FCA590812D
:101DC0005AA9952B9083EBA5FCA550819AA99095D3
:101DD0009523908346952150310931F7DECF50810C
:101DE00090959523E9CFDF91CF911F91FF90EF90D0
:101DF000DF90CF900895FC01868197819C01295F37
:101E00003F4F37FF02C0295F3F4F83E0359527954D
:101E10008A95E1F784819581289FA001299F500D23
:101E2000389F500D112470E060E0878D90A10C94D4
:101E3000A01A8F929F92AF92BF92CF92DF92EF92B1
:101E4000FF920F931F93CF93DF93EC01862EB42E56
:101E5000A22E902E8F8D98A1892B39F1CE010E9450
:101E6000FB0E8E819F816C817D81813291050CF00A
:101E700046C0AC014052510957FF02C04F5F5F4F4F
:101E8000559547956357710977FF02C06F5F7F4F84
:101E900075956795CC24C394D12CA0E2EA2EF12C41
:101EA00003E710E02CE935E045C02E813F81C901F0
:101EB000079697FD079623E0959587952A95E1F774
:101EC0002C813D81AC01429FC001439F900D529FE8
:101ED000900D11240E94731998A38F8F892B09F0FC
:101EE000BDCF80E0DF91CF911F910F91FF90EF90D8
:101EF000DF90CF90BF90AF909F908F900895AC01EE
:101F00004054510957FF02C04F5F5F4F55954795A9
:101F10006255710977FF02C06F5F7F4F75956795B6
:101F2000CC24C394D12C80E4E82EF12C02E510E0FF
:101F30002CE737E0CE010E94AD088AA22D8D3E8DA0
:101F40002115310509F4A2C09B2DB11006C08E8168
:101F50009F81809709F098C09CE399A3992009F488
:101F60004BC1C9010E945D14AA20F1F088A587FD2C
:101F70001BC061E00E94081961E088A50E94441915
:101F800061E070E080E090E00E946B1860E088A55E
:101F90000E9444196AE070E080E090E00E946B18B3
:101FA00061E088A50E9444192D8D3E8D21153105D3
:101FB00009F4E6C04DA95EA96FA978ADC9010E94D8
:101FC0006F1444E068E975E0CE010E945D0E6E81F9
:101FD0006150CE010E94B80D44E064E975E0CE0185
:101FE0000E945D0E8AA160E1813009F064E1CE01BA
:101FF0000E94B80D44E060E975E0CE010E945D0EDC
:102000008FE88DAF8C819D818038910509F0C8C023
:102010008E819F818034910509F0CEC08AA18130E4
:1020200009F0DAC08FE98DAF12E16AEDCE010E94AE
:10203000B80D612FCE010E94B80D61E8CE010E945B
:10204000B80D6DADCE010E94B80D69EDCE010E94B4
:10205000B80D8AA162E2813009F061EFCE010E94E1
:10206000B80D46E06AE875E0CE010E945D0E8D8DE8
:102070009E8D009709F4B2C049AD5AAD6BAD7CADF1
:102080000E946F1481E02ECF9DE367CF61E08EA1A7
:102090000E94081961E08FA10E9408198EA1082EE4
:1020A000000C990BFC01EC59F54FE491F0E0EE0FB8
:1020B000FF1FE858F54F259134913EA72DA7FC014D
:1020C000E05BF54FE491EBAB8FA1082E000C990B70
:1020D000FC01EC59F54FE491F0E0EE0FFF1FE858DA
:1020E000F54FA591B491B8ABAFA7FC01E05BF54FFC
:1020F000E491ECAB8C91E82BEC938B8D9C8D892B30
:1021000031F0992009F430CF0E945B0C2DCF61E0B3
:102110008CA10E94081961E08DA10E9408198CA170
:10212000082E000C990BFC01EC59F54FE491F0E0FE
:10213000EE0FFF1FE858F54F259134913AA729A7D4
:10214000FC01E05BF54FE491E9AB8DA1082E000C9A
:10215000990BFC01EC59F54FE491F0E0EE0FFF1FF5
:10216000E858F54FA591B491BCA7ABA7FC01E05B83
:10217000F54FE491EAAB8C91E095E823EC93F4CE33
:102180008B8D9C8D892B21F08EAD9FAD0E94400DD3
:10219000EFA5F8A990818CA980958923808311CF20
:1021A0008036910569F48E819F81409729F48AA138
:1021B000813021F480E18DAF12E037CF8FEAFBCF81
:1021C00080349105C9F78E819F818097A9F78AA1F4
:1021D000813011F480E127CF8FEC25CFEFA5F8A94E
:1021E00080819CA9892B80838B8D9C8D892B09F400
:1021F00049CF0E944A0C46CFA110B8CEDBCE0F9338
:102200001F93CF93DF93DC0157FD46C016968D9147
:102210009C911797481759070CF03EC077FF04C0F0
:10222000260F371F70E060E01496CD91DC91159772
:10223000CB01820F931FC817D9071CF49E01261BE0
:10224000370B1216130644F5FA0157FD379683E053
:10225000F595E7958A95E1F7EC9FC001ED9F900D0C
:10226000FC9F900D1124680F791F5F96ED91FC91F2
:10227000E60FF71F4770552781E090E001C0880FF7
:102280004A95EAF7482F0130110559F0A8F02E0FB2
:102290003F1F02301105E1F0DF91CF911F910F91A7
:1022A00008952E0F3F1FE217F307B1F38191DF016D
:1022B0001197842B8C93F7CF80952E0F3F1FE21739
:1022C000F30751F39191DF01119798239C93F7CF76
:1022D000E217F30709F38191DF01119784278C93AB
:1022E000F7CFEF92FF920F931F93CF93DF93EC0101
:1022F00077FD76C0EC80FD806E157F050CF070C018
:1023000057FF04C0240F351F50E040E08E819F81AD
:10231000FA01E20FF31F8E179F071CF49C01241B88
:10232000350B121613060CF05BC0922F842F869586
:10233000869586958E9DD0018F9DB00D11246A0FD4
:102340007B1FAF8DB8A1A60FB71F477049F188E07A
:10235000841B482F682F70E0FB01EE57FA4FE49181
:10236000281708F063C0621B71092FEF30E002C02C
:10237000359527956A95E2F7E2230130110539F08A
:10238000B0F10230110561F58C91E82702C08C9103
:10239000E82BEC93941720F12C813D81A20FB31F01
:1023A000E92FE41BE83078F00230110521F58E2F7B
:1023B0009C9190959C932C813D81A20FB31F8850D6
:1023C0008830B0F7E770EE2359F0F0E0E658FA4FA6
:1023D000E49101301105F9F010F10230110519F105
:1023E000DF91CF911F910F91FF90EF900895E095AD
:1023F0008C91E823CECF81E00115110509F480E02E
:1024000081959E2F8C932C813D81A20FB31F9850F4
:102410009830C0F7D7CF8C91E82BEC93E1CFE095C3
:102420008C91E823FACF8C91E827F7CF0130110582
:1024300009F4ADCFE0F20230110509F4A5CFAE0DDD
:10244000BF1DAECF0F931F93FA01DC0156964C913E
:102450005697423089F0433039F14130F9F41496FF
:102460004D915C91DA01AE1BBF0BFD013197AB01C1
:10247000BF010E94711115C014964D915C91DA0153
:10248000A61BB70BBD01DC0116964D915C91DA01DC
:10249000AE1BBF0BFD013197621B730BAF010E9496
:1024A000FF101F910F91089516964D915C91DA01DE
:1024B000A61BB70BBD01621B730BD9CF0F931F93E4
:1024C000FA01DC0156964C915697423091F0433018
:1024D00049F1413009F514964D915C91DA01AE1B3A
:1024E000BF0BFD01E21BF30BAB01BF010E94FF100C
:1024F00016C014964D915C91DA01A61BB70BBD0175
:1025000061507109DC0116964D915C91DA01AE1BA8
:10251000BF0BFD01E21BF30BAF010E9471111F9174
:102520000F91089516964D915C91DA01A61BB70B99
:10253000BD0161507109D8CFCF92DF92EF92FF9227
:102540000F931F93CF93DF93EC018D8D9E8D00979A
:1025500009F479C04DA95EA96FA978AD0E946F14E6
:1025600044E066E775E0CE010E945D0E8C819D819E
:102570008034910509F077C060E2CE010E94B80D69
:102580006C81615ECE010E94B80D2E813F81C90130
:10259000079697FD079623E0959587952A95E1F78D
:1025A0002C813D81829F7001839FF00C929FF00CE3
:1025B00011240F8D18A18D8D9E8DE00EF11E0097B8
:1025C00009F46DC069A1062E000C770B0E947D14E2
:1025D0008D8D9E8DDC01ED91FC910190F081E02DBF
:1025E00060E40995680101E010E08D8D9E8DEC148A
:1025F000FD0409F43FC000321105B0F00E949214AE
:1026000069A1062E000C770B8D8D9E8D0E947D1486
:102610008D8D9E8DDC01ED91FC910190F081E02D7E
:1026200060E4099501E010E08D8D9E8DF6016191C9
:102630006F01DC01ED91FC910190F081E02D099595
:102640000F5F1F4FD2CF8B8D9C8D892B21F08EADCC
:102650009FAD0E94400DEFA5F8A990818CA98095AF
:10266000892380837DCF60E0CE010E94B80D6C810C
:10267000615088CF0E9492148D8D9E8D009709F431
:1026800043C049AD5AAD6BAD7CADDF91CF911F9189
:102690000F91FF90EF90DF90CF900C946F14EDA509
:1026A000FEA580819BA9892B8083E016F10621F38A
:1026B000F80181918F012B8D3C8D232B19F00E9405
:1026C0005A0DF3CF28E030E040E8E9A5FAA599A932
:1026D000582F5423A9F05081952B9083EBA5FCA58E
:1026E00090815AA9952B9083EBA5FCA550819AA9BE
:1026F00090959523908346952150310931F7D5CF98
:10270000508190959523E9CFEFA5F8A980819CA9E8
:10271000892B80838B8D9C8D892B51F0DF91CF91FC
:102720001F910F91FF90EF90DF90CF900C944A0C87
:10273000DF91CF911F910F91FF90EF90DF90CF909D
:1027400008958091EC019091ED01891B990B0895FA
:102750009091ED018091EC012FEF3FEF981748F435
:10276000E92FF0E0E251FE4F208130E09F5F90932F
:10277000ED01C9010895E091ED018091EC01E817A8
:1027800030F4F0E0E251FE4F808190E008958FEF49
:102790009FEF08950895CF93DF93EC01E091C4017A
:1027A000F091C5013097F1F09091ED018091EC012D
:1027B0009817C0F090E0292F30E02617370754F41F
:1027C000DE01A20FB31F4C9122513E4FD9014C9311
:1027D0009F5FF1CF1092ED016093EC01CB01DF918F
:1027E000CF910994DF91CF910895E091C601F091C6
:1027F000C701309729F01092CA011092C9010994BB
:102800000895CF93DF931F92CDB7DEB769832091F0
:10281000C8012223F9F02091C901203258F021E0AB
:1028200030E0FC013383228390E080E00F90DF9161
:10283000CF9108958091CA01E82FF0E0E553FE4F53
:10284000998190838F5F8093CA018093C90181E051
:1028500090E0ECCF61E0CE0101960E94E414F7CF46
:10286000CF92DF92EF92FF920F931F93CF93DF935C
:102870007C01CB018A012091C801222389F0EB0160
:102880006B01C40ED51ECC15DD0569F06991D70129
:10289000ED91FC910190F081E02DC7010995F3CFF6
:1028A000642F0E94E414C801DF91CF911F910F9112
:1028B000FF90EF90DF90CF9008951092ED0110926D
:1028C000EC011092CA011092C9010E94A61485EF72
:1028D00093E10E9411158BEC93E10C940C15CB0144
:1028E000BA010C94D11481E08093C8016093EB018C
:1028F0001092CA011092C90108950C9473140F9399
:10290000062F21E04091C9016BEC71E08091EB0151
:102910000E9432151092CA011092C9011092C8018A
:102920000F91089561E00C947F14E8EBF1E01382BD
:10293000128288EE93E0A0E0B0E084839583A683C2
:10294000B78382E691E0918380830895109281029B
:1029500081E080937F0210927E0261E082E10E941A
:10296000441961E083E10E944419E9EBF0E08081C1
:102970008E7F808380818D7F808388E48093B80000
:1029800085E48093BC000895ECEBF0E080818A7BC5
:10299000808360E082E10E94441960E083E10C944E
:1029A00044199B01AC0160E074E284EF90E00E9466
:1029B000A71A205131094109510956954795379574
:1029C00027952093B800089520913002260F3327D1
:1029D000331F21323105E4F4209181022430D1F4F7
:1029E000FC0190E080E0861760F4A0913002219114
:1029F000AC014E5C5D4FA40FB52FB11D2C93019619
:102A0000F2CF80913002680F6093300280E0089529
:102A100081E0089582E00895909375028093740296
:102A200008959093770280937602089585EC8093C1
:102A3000BC00109281020895CF93DF9391E09093B0
:102A40007902882361F0C091B800D091BA000E9449
:102A5000C4140E94A614D093BA00C093B800DF91AA
:102A6000CF9108954F925F926F927F928F929F9233
:102A7000AF92BF92EF92FF920F931F93CF93DF938A
:102A8000C82FF62EE72E142FD22F81E0413260F5A9
:102A90000E9446184B015C0180918102882399F1C4
:102AA00080917A0290917B02A0917C02B0917D028C
:102AB000892B8A2B8B2B81F30E94461840907A0237
:102AC00050907B0260907C0270907D0268197909B9
:102AD0008A099B094616570668067906E8F680912A
:102AE00078020E941C1585E0DF91CF911F910F9114
:102AF000FF90EF90BF90AF909F908F907F906F90DE
:102B00005F904F90089582E08093810200937F024E
:102B10008FEF80930E0210925302109352029F2D5A
:102B2000A4E5B2E0EF2DFE2D8E2F891B811718F43E
:102B300081918D93F9CF1092800280918002CC0F09
:102B4000C82BC093800280917E02813009F041C081
:102B500010927E020E9446184B015C018091800217
:102B60008093BB0080917A0290917B02A0917C02BD
:102B7000B0917D02892B8A2B8B2BB9F48091BC00FC
:102B800083FDECCF85EC8093BC000E9446184B017E
:102B90005C01DD2321F0809181028230E1F080919F
:102BA0000E028F3FC9F580E09FCF0E94461800912A
:102BB0007A0210917B0220917C0230917D0268198B
:102BC00079098A099B090617170728073907B0F6FC
:102BD00086CF85EED8CF80917A0290917B02A0912A
:102BE0007C02B0917D02892B8A2B8B2B91F20E9463
:102BF000461800917A0210917B0220917C0230915C
:102C00007D02681979098A099B09061717072807A1
:102C1000390708F0BECF63CF80910E02803231F0C9
:102C200080910E02803321F084E05ECF82E05CCFA1
:102C300083E05ACF85ED8093BC0080917A02909119
:102C40007B02A0917C02B0917D020796A11DB11D6F
:102C500023E0B695A795979587952A95D1F720916A
:102C6000BC0024FF1CC040917A0250917B0260910D
:102C70007C0270917D02452B462B472B81F30097F8
:102C8000A105B10541F02AE22A95F1F700C00197AC
:102C9000A109B109E4CF809178020C941C1510921F
:102CA000810208951F920F920FB60F9211242F9355
:102CB0003F934F935F936F937F938F939F93AF93C4
:102CC000BF93EF93FF938091B900887F803609F41A
:102CD0004CC008F03FC0883209F4A8C018F5803114
:102CE00009F49CC0B8F4882309F4F9C0883009F4C9
:102CF00095C0FF91EF91BF91AF919F918F917F917F
:102D00006F915F914F913F912F910F900FBE0F9058
:102D10001F901895883109F489C0803251F780934B
:102D20000E0215C0803409F49EC048F48033B9F314
:102D30008833F9F680930E020E941615DACF80359B
:102D400009F485C0883509F496C0883491F60E944C
:102D50001A16CFCF883909F48CC038F5883729F096
:102D600050F4883611F0803721F683E08093810299
:102D700010920F0257C0883809F47BC0803919F0CF
:102D8000803809F0B6CF80910F02803208F071C010
:102D9000E0910F0281E08E0F80930F028091BB00C3
:102DA000F0E0E05FFD4F80833DC0803B39F0E0F410
:102DB000803A09F479C0883A09F09BCF84E0809387
:102DC00081021092310210923002E0917602F0916D
:102DD000770209958091300281110FC081E08093C4
:102DE00030021092320209C0803C09F476C0883C5F
:102DF00009F473C0883B09F07CCFE091310281E097
:102E00008E0F80933102F0E0EE5CFD4F8081809365
:102E1000BB00909131028091300229C080918002E4
:102E20008093BB0085EC8093BC0063CF90915302EC
:102E300080915202981758F5E091530281E08E0F6D
:102E400080935302F0E0EC5AFD4F8081E9CFE0918E
:102E5000530281E08E0F809353028091BB00F0E01B
:102E6000EC5AFD4F80839091530280915202981743
:102E7000C8F285E8D8CFE091530281E08E0F8093AD
:102E800053028091BB00F0E0EC5AFD4F80838091AB
:102E90007F0281115CCF81E080937E0284EA80937F
:102EA000BC001092810225CF0E94161580910F025E
:102EB000803230F4E0910F02F0E0E05FFD4F1082CD
:102EC00060910F0270E0E0917402F091750280E170
:102ED00092E0099510920F020CCF85ECE0CF109292
:102EE0000E0235CFAF92BF92CF92DF92EF92FF9258
:102EF0000F931F93CF93DF936C017B018B01040F22
:102F0000151FEB015E01AE18BF08C017D10759F0BD
:102F10006991D601ED91FC910190F081E02DC601FF
:102F20000995892B79F7C501DF91CF911F910F91F9
:102F3000FF90EF90DF90CF90BF90AF900895FB018E
:102F400001900020E9F73197AF01461B570BDC01D8
:102F5000ED91FC910280F381E02D0994EF92FF92B4
:102F60000F931F93CF93DF938C017B01D0E0C0E0E0
:102F7000F701EC0FFD1F6491662361F0D801ED911C
:102F8000FC910190F081E02DC8010995892B11F089
:102F90002196EECFCE01DF91CF911F910F91FF903F
:102FA000EF90089560E771E00C949F170F931F93C3
:102FB000CF93DF93EC010E94AE178C01CE010E94EB
:102FC000D217800F911FDF91CF911F910F9108951C
:102FD0000E94981A0E94E81708950E94A4180E945F
:102FE000EC170E94A205C0E0D0E00E947305209774
:102FF000E1F30E940000F9CF1F920F920FB60F92DB
:1030000011242F933F938F939F93AF93BF938091FE
:10301000830290918402A0918502B0918602309142
:10302000820223E0230F2D3758F50196A11DB11D13
:10303000209382028093830290938402A09385025E
:10304000B09386028091870290918802A0918902B4
:10305000B0918A020196A11DB11D809387029093C1
:103060008802A0938902B0938A02BF91AF919F9189
:103070008F913F912F910F900FBE0F901F90189539
:1030800026E8230F0296A11DB11DD2CF3FB7F894B9
:103090008091870290918802A0918902B0918A0262
:1030A00026B5A89B05C02F3F19F00196A11DB11DA3
:1030B0003FBFBA2FA92F982F8827BC01CD01620FDF
:1030C000711D811D911D42E0660F771F881F991F9A
:1030D0004A95D1F708958F929F92AF92BF92CF9267
:1030E000DF92EF92FF926B017C010E9446184B0128
:1030F0005C01C114D104E104F104E9F00E947219E9
:103100000E944618681979098A099B09683E73402C
:103110008105910570F321E0C21AD108E108F10898
:1031200088EE880E83E0981EA11CB11CC114D10446
:10313000E104F10429F7FF90EF90DF90CF90BF906A
:10314000AF909F908F900895789484B5826084BDED
:1031500084B5816084BD85B5826085BD85B581609B
:1031600085BDEEE6F0E0808181608083E1E8F0E0FB
:103170001082808182608083808181608083E0E82A
:10318000F0E0808181608083E1EBF0E08081846009
:103190008083E0EBF0E0808181608083EAE7F0E00B
:1031A000808184608083808182608083808181606F
:1031B00080838081806880831092C100089583306D
:1031C00081F028F4813099F08230A9F00895873099
:1031D000A9F08830C9F08430B1F4809180008F7DEF
:1031E00003C0809180008F7780938000089584B51C
:1031F0008F7784BD089584B58F7DFBCF8091B0001B
:103200008F778093B00008958091B0008F7DF9CFC3
:10321000CF93DF9390E0FC01E05BF54F24918C5954
:10322000954FFC0184918823C9F090E0880F991F85
:10323000FC01EE57F54FA591B491FC01E858F54F0C
:10324000C591D49161110DC09FB7F8948C912095D0
:1032500082238C938881282328839FBFDF91CF917D
:103260000895623051F49FB7F8943C91822F809575
:1032700083238C93E8812E2BEFCF8FB7F894EC91BA
:103280002E2B2C938FBFEACF1F93CF93DF93282F42
:1032900030E0F901E45CF54F8491F901E05BF54F12
:1032A000D491F901EC59F54FC491CC23A9F0162F14
:1032B00081110E94DF18EC2FF0E0EE0FFF1FE8589D
:1032C000F54FA591B4918FB7F894EC91111108C006
:1032D000D095DE23DC938FBFDF91CF911F910895AE
:1032E000DE2BF8CF08950F931F93CF93DF93823097
:1032F000910510F482E090E0E0918D02F0918E0251
:1033000030E020E0B0E0A0E0309799F421153105DD
:1033100009F44AC0281B390B24303105D8F58A81BD
:103320009B816115710589F1FB0193838283FE0105
:1033300011C0408151810281138148175907E0F083
:103340004817590799F4109761F012960C93129749
:1033500013961C933296CF01DF91CF911F910F915D
:10336000089500938D0210938E02F4CF211531053C
:1033700051F04217530738F0A901DB019A01BD0152
:10338000DF01F801C1CFEF01F9CF90938E02809356
:103390008D02CDCFFE01E20FF31F81939193225056
:1033A000310939832883D7CF20918B0230918C0249
:1033B000232B41F4209102013091030130938C02C0
:1033C00020938B02209100013091010121153105DC
:1033D00041F42DB73EB74091040150910501241BE3
:1033E000350BE0918B02F0918C02E217F307A0F409
:1033F0002E1B3F0B2817390778F0AC014E5F5F4F4B
:103400002417350748F04E0F5F1F50938C024093EE
:103410008B02819391939FCFF0E0E0E09CCFCF931C
:10342000DF930097E9F0FC01329713821282A0919A
:103430008D02B0918E02ED0130E020E01097A1F4F2
:1034400020813181820F931F20918B0230918C0259
:103450002817390709F061C0F0938C02E0938B02C2
:10346000DF91CF910895EA01CE17DF07E8F54A8191
:103470005B819E0141155105B1F7E901FB83EA83A8
:1034800049915991C40FD51FEC17FD0761F4808154
:1034900091810296840F951FE90199838883828127
:1034A00093819B838A83F0E0E0E012968D919C915A
:1034B00013970097B9F52D913C911197CD01029684
:1034C000820F931F20918B0230918C0228173907AD
:1034D00039F6309751F510928E0210928D02B0930A
:1034E0008C02A0938B02BCCFD383C28340815181D5
:1034F000840F951FC817D90761F44E5F5F4F88810D
:103500009981480F591F518340838A819B819383FE
:1035100082832115310509F0B0CFF0938E02E0933C
:103520008D029ECFFD01DC01C0CF13821282D7CF66
:1035300081E090E0F8940C94CF1AF8940C94CF1A90
:10354000DC0101C06D9341505040E0F70895A1E2C5
:103550001A2EAA1BBB1BFD010DC0AA1FBB1FEE1F0D
:10356000FF1FA217B307E407F50720F0A21BB30B58
:10357000E40BF50B661F771F881F991F1A9469F7D4
:1035800060957095809590959B01AC01BD01CF0130
:103590000895EE0FFF1F0590F491E02D099415E0BA
:1035A000C8E4D5E004C0FE010E94C91A2196C934BE
:0835B000D107C9F7F894FFCF21
:1035B80000008F028000000000006A0B7217E90506
:1035C800EC05EA179A069B06BA06A206AE06ED05B2
:1035D8009A067608FD07CA0603073C078107FE0717
:1035E8009E07000000006A0B7217E905EC05910CB4
:1035F8009A069B06BA06A206AE06ED059A06760856
:10360800180E5E1222123C078107FE079E07000073
:10361800000001143014E905CA13A113A813BB1341
:043628000D0A000087
:00000001FF
