:100000000C9424020C944C020C944C020C944C0260
:100010000C944C020C944C020C944C020C944C0228
:100020000C944C020C944C020C944C020C944C0218
:100030000C944C020C944C020C944C020C944C0208
:100040000C94AA0C0C944C020C94C6090C94F8095C
:100050000C944C020C944C020C944C020C944C02E8
:100060000C944C020C944C022D2D2D2D2D2D2D2D4C
:100070002D2D2D2D2D2D2D2D2D2D2D2D2D2D2D2DB0
:100080002D2D2D2D2D2D2D2D2D2D2D2D0A00526593
:10009000736F6C7574696F6E3A202020004D617823
:1000A0002056616C75653A20202020004D696E2035
:1000B00056616C75653A2020202000556E69717577
:1000C000652049443A2020202000447269766572F8
:1000D000205665723A20202000416C746974756462
:1000E0006520286D2900556E69746C657373205006
:1000F000657263656E74202825290047617320525C
:100100006573697374616E636520286F686D732908
:1001100000456E7669726F6E6D656E74616C20500D
:100120006172746963756C617465204D6174746586
:10013000722031302E30202870706D2900456E7687
:1001400069726F6E6D656E74616C20506172746956
:1001500063756C617465204D617474657220322E14
:1001600035202870706D2900456E7669726F6E6D4E
:10017000656E74616C20506172746963756C617432
:1001800065204D617474657220312E3020287070A6
:100190006D29005374616E646172642050617274E1
:1001A0006963756C617465204D617474657220318A
:1001B000302E30202870706D29005374616E646198
:1001C000726420506172746963756C617465204D4E
:1001D000617474657220322E35202870706D29008C
:1001E0005374616E646172642050617274696375E6
:1001F0006C617465204D617474657220312E3020FD
:100200002870706D29004571756976616C656E7432
:100210002F657374696D6174656420434F322028C3
:1002200070706D2900436172626F6E2044696F784F
:10023000696465202870706D29004E6974726F675B
:10024000656E204F78696465732028496E6465780F
:100250002900566F6C6174696C65204F7267616E1E
:10026000696320436F6D706F756E64732028496EEB
:100270006465782900546F74616C20566F6C6174EA
:10028000696C65204F7267616E696320436F6D70A2
:100290006F756E647320287070622900436F6C6FF5
:1002A00072202852474241290043757272656E746C
:1002B00020286D412900566F6C74616765202856AF
:1002C00029004F626A6563742054656D702028436D
:1002D0002900416D6269656E742054656D70202837
:1002E00043290052656C61746976652048756D69B3
:1002F000646974792028252900526F746174696FCC
:100300006E20766563746F72004C696E6561722051
:10031000416363656C65726174696F6E20286D2F2F
:10032000733229004772617669747920286D2F73C2
:1003300032290044697374616E63652028636D29F6
:1003400000507265737375726520286850612900CA
:100350004C6967687420286C757829004779726F3A
:1003600073636F70696320287261642F7329004F73
:100370007269656E746174696F6E20286465677256
:1003800065657329004D61676E6574696320287522
:10039000542900416363656C65726174696F6E20F6
:1003A000286D2F73322900547970653A202020205F
:1003B00020202020200053656E736F723A20202089
:1003C00020202020002D2D2D2D2D2D2D2D2D2D2DBE
:1003D0002D2D2D2D2D2D2D2D2D2D2D2D2D2D2D2D4D
:1003E0002D2D2D2D2D2D2D2D2D000000000800026E
:1003F00001000003040700000000000000000102EB
:1004000004081020408001020408102001020408A2
:100410001020040404040404040402020202020280
:100420000303030303030000000023002600290048
:1004300000000000250028002B0000000000240020
:1004400027002A00FE02280A11241FBECFEFD8E0A1
:10045000DEBFCDBF11E0A0E0B1E0EAEAF3E202C006
:1004600005900D92A036B107D9F722E0A0E6B1E0E1
:1004700001C01D92AE32B207E1F712E0C4E2D2E051
:1004800004C02197FE010E94CD11C232D107C9F7E5
:100490000E94990C0C9499110C940000EF92FF9219
:1004A0000F931F93CF93DF93CDB7DEB7E0970FB6CF
:1004B000F894DEBF0FBECDBF26E040E855E260E015
:1004C00070E084E891E00E94640980E691E00E9477
:1004D000260686E3E82E81E0F82EFA82E98200E61D
:1004E00011E0F801868997899C838B83808D918D9B
:1004F000A28DB38D8D839E83AF83B887CE01019685
:100500000E947307FAA6E9A6F801868997899CA735
:100510008BA7808D918DA28DB38D8DA79EA7AFA740
:10052000B8ABBE016F5F7F4FCE0189960E94660611
:10053000BE016F5F7F4F84E891E00E94D20AE0968F
:100540000FB6F894DEBF0FBECDBFDF91CF911F91E4
:100550000F91FF90EF900895CF92DF92EF92FF926C
:10056000CF93DF93CDB7DEB7AC970FB6F894DEBF6D
:100570000FBECDBF86E391E09EA38DA3809176014F
:100580009091770198A78FA380917801909179013C
:10059000A0917A01B0917B0189A79AA7ABA7BCA7CC
:1005A000BE016F5F7F4FCE0185960E946D05CD889D
:1005B000DE88EF88F88CA7019601C701B6010E947A
:1005C0006F10811108C022E030E0B701A60184E875
:1005D00091E00E94860C60ED77E080E090E00E9460
:1005E000250DAC960FB6F894DEBF0FBECDBFDF91E0
:1005F000CF91FF90EF90DF90CF900895AF92BF9290
:10060000CF92DF92EF92FF920F931F93AA24AA94A6
:10061000BA2C6501EE24EA94FE2C870126E046E11F
:1006200062E080E691E00E94EC051F910F91FF903F
:10063000EF90DF90CF90BF90AF900895DC011596BA
:100640006C93159716964C93169770E0FB01E25049
:10065000FC4FE4911796EC9317976E5E7B4FFB016E
:10066000649118966C93189740E85EE360E070E040
:100670001D964D935D936D937C93509708951F93B2
:10068000CF93DF93EC01162F62E08D810E94CD0D98
:100690000E94F40C605D77408109910969877A872F
:1006A0008B879C871A8BDF91CF911F910895CF92F2
:1006B000DF92EF92FF92CF93DF93DC011796CC91FC
:1006C0001797D0E06111DC2F18962C91189730E025
:1006D000220F331F2A5D3B4F50E040E0F901859126
:1006E0009491FC01F080BA0190E080E0EF2DEC23C2
:1006F000ED1310C04F5F5F4F1D96CD90DD90ED90D4
:10070000FC9050976C157D058E059F0538F36FEFB3
:100710007FEFCB01DF91CF91FF90EF90DF90CF90F3
:1007200008958F929F92AF92BF92CF92DF92EF92F5
:10073000FF920F931F93CF93DF93CDB7DEB7C054D3
:10074000D1400FB6F894DEBF0FBECDBF8C01F62EA0
:100750000E94F40CF11029C0F801C184D284E38412
:10076000F4849B01AC012C193D094E095F09690114
:100770007A0130EDC31637E0D306E104F104A8F4A2
:100780008189C05CDE4F0FB6F894DEBF0FBECDBFCF
:10079000DF91CF911F910F91FF90EF90DF90CF905D
:1007A000BF90AF909F908F900895F80161877287F6
:1007B000838794871482138212821182108262E0EE
:1007C00085810E94CD0D61E070E080E090E00E94A4
:1007D000250D61E0F80185810E94CD0D60E0F801F2
:1007E00085810E94090EF801868185518230E8F4E6
:1007F0008CE494E00E945E0D62E0F80185810E9425
:10080000CD0DF801828990E00E945E0DF89460E0C1
:10081000C8010E9457036F3F7F4F8F4F9F4F61F476
:10082000F801118A789480E0ACCF64E170E080E058
:1008300090E00E94250DE0CF61E0C8010E945703BF
:100840006F3F7F4F8F4F9F4F59F39E012F5F3F4F59
:1008500079015E013FEBA31A3EEFB30A670160E046
:10086000C8010E945703F6016083718382839383DA
:1008700061E0C8010E945703F60164837583868393
:100880009783F8E0CF0ED11CCA14DB0441F77894AB
:1008900030E020E0F70180809180A280B380448125
:1008A000558166817781FFEF8F169F06AF06BF06E1
:1008B00031F04F3F8FEF58076807780719F4F801B8
:1008C000118AB1CFF90183E0F595E7958A95E1F7B3
:1008D000E00FF11F8081880F84169506A606B706E3
:1008E000F0F080832F5F3F4FF8E0EF0EF11C2832CD
:1008F000310581F6F801448120818181280F332759
:10090000331F8281280F311D8381820F932F911D08
:1009100099274817190699F681E0818B32CF8160BB
:10092000E0CFCF92DF92EF92FF920F931F93CF937E
:10093000DF938C01C62F642F0E949103882341F01E
:10094000F80186818C3009F45DC038F48B30E1F019
:1009500060E070E080EC9FE74CC085518230C0F7CA
:10096000D2816D2F70E0762F662766277F7783818F
:10097000682B90E080E00E944B0F2DEC3CEC4CEC9F
:100980005DE30E94021059C0628170E090E080E057
:100990000E944B0F6B017C01F801D381D7FF0AC085
:1009A000AC019B0160E070E080E89FEB0E94380E94
:1009B0006B017C01DF706D2F70E090E080E00E94A1
:1009C0004D0F2DEC3CEC4CEC5DE30E940210A701B6
:1009D00096010E94390ECC2361F026E636E646EEFB
:1009E0005FE30E94021020E030E040E052E40E9409
:1009F000390EDF91CF911F910F91FF90EF90DF9013
:100A0000CF900895D2816D2F70E090E080E00E9439
:100A10004B0F6B017C01F80163816F7070E090E017
:100A200080E00E944D0F2DEC3CEC4CEC5DE30E940D
:100A30000210A70196010E94390ED7FFCCCF905823
:100A4000CACFCF92DF92EF92FF92CF93DF93EC0168
:100A50000E949103882341F08E818B3028F08D30E5
:100A600040F08551823030F160E070E080EC9FE72B
:100A70001AC0698170E090E080E00E944D0F2DEC7B
:100A80003CEC4CEC5DE30E9402106B017C01688140
:100A900070E090E080E00E944D0F9B01AC01C70127
:100AA000B6010E94390EDF91CF91FF90EF90DF9059
:100AB000CF9008956881798176276727762790E01F
:100AC00080E00E944B0F2DEC3CEC4CEC5DE30E946F
:100AD0000210E9CF0895089508950F931F93CF93BF
:100AE000DF938C01EB01FB01349680E2DF011D9264
:100AF0008A95E9F784E290E0A0E0B0E088839983EA
:100B0000AA83BB83F80184819581A681B7818C83F8
:100B10009D83AE83BF838DE090E0A0E0B0E0888746
:100B20009987AA87BB870E94F40C688B798B8A8B84
:100B30009B8B40E060E0D80112968D919C910E94C1
:100B400091046C8B7D8B8E8B9F8B81E0DF91CF919D
:100B50001F910F9108950F931F93CF93DF938C01F3
:100B6000EB01FB01349680E2DF011D928A95E9F7E3
:100B700084E290E0A0E0B0E088839983AA83BB83FD
:100B8000F80184819581A681B7818C839D83AE8392
:100B9000BF838CE090E0A0E0B0E088879987AA87C7
:100BA000BB870E94F40C688B798B8A8B9B8B60E0EF
:100BB000D80112968D919C910E9421056C8B7D8BA2
:100BC0008E8B9F8B81E0DF91CF911F910F910895C4
:100BD0000C94A80C0C94A80C4F925F926F927F9289
:100BE0009F92AF92BF92CF92DF92EF92FF920F93BC
:100BF0001F93CF93DF93EC01942E270138010E94BD
:100C00001E039B8A86E391E09D8B8C8BDF8BCE8BC2
:100C1000488E598E6A8E7B8E84E491E09D8F8C8FF6
:100C2000DF8FCE8FA8A2B9A2CAA2DBA2DF91CF919B
:100C30001F910F91FF90EF90DF90CF90BF90AF90FA
:100C40009F907F906F905F904F90089567E30C9412
:100C50003F03CF93DF93EB01FC0183894BE050E02E
:100C60006CE071E08C30C1F058F44BE050E066E08D
:100C700071E08B3089F04BE050E06EE171E00CC028
:100C80004BE050E062E171E0853131F04BE050E043
:100C900068E171E0863179F7CE010E949C111B86D4
:100CA000DF91CF910895FC0183898B3051F480E46A
:100CB00092E4AFE0B0E0FB0184A395A3A6A3B7A3A1
:100CC000089580E894E8AEE1B0E0F5CF0F931F936C
:100CD000CF93DF938C01EB0188E2DB011D928A95B3
:100CE000E9F7F801828193810E94290681E090E072
:100CF000A0E0B0E08C879D87AE87BF87F801848134
:100D00009581A681B781888B998BAA8BBB8B8DE04F
:100D100090E0A0E0B0E08C8B9D8BAE8BBF8BBE01D2
:100D2000828193810E945306D8011296ED91FC9125
:100D300083898C3091F178F48B30B1F0188E198E54
:100D40001A8E1B8E1C8E1D8E1E8E1F8E18A219A22F
:100D50001AA21BA21DC08531A9F1863179F780E066
:100D600090E0AAEFB2E432C080E090E0A8E4B2E400
:100D7000888F998FAA8FBB8F1C8E1D8E1E8E1F8E03
:100D800080E090E0A0E0B0E488A399A3AAA3BBA36D
:100D9000DF91CF911F910F91089580E090E0A0E73F
:100DA000B2E4888F998FAA8FBB8F80E090E0A0EA91
:100DB000B1EC8C8F9D8FAE8FBF8F80E090E0A0E074
:100DC000BFE3E2CF80E090E0A0EAB2E4888F998FA1
:100DD000AA8FBB8F80E090E0A0E2B2EC8C8F9D8F59
:100DE000AE8FBF8F8DEC9CECACECBDE3CDCF0F9301
:100DF0001F93CF93DF938C01EB0188E2DB011D92FF
:100E00008A95E9F7F801828193810E94290681E0A1
:100E100090E0A0E0B0E08C879D87AE87BF87F801A7
:100E200084819581A681B781888B998BAA8BBB8B96
:100E30008CE090E0A0E0B0E08C8B9D8BAE8BBF8B04
:100E4000BE01828193810E945306D8011296ED91D2
:100E5000FC9183898C3009F441C078F48B3009F11E
:100E6000188E198E1A8E1B8E1C8E1D8E1E8E1F8E36
:100E700018A219A21AA21BA22CC08551823080F799
:100E800080E090E0A8ECB2E4888F998FAA8FBB8FA6
:100E90001C8E1D8E1E8E1F8E8DEC9CECACECBDE36B
:100EA00014C080E090E0A0EAB2E4888F998FAA8F06
:100EB000BB8F80E090E0A0EAB1E48C8F9D8FAE8F75
:100EC000BF8F80E090E0A0EAB0E488A399A3AAA332
:100ED000BBA3DF91CF911F910F91089580E090E027
:100EE000AEEBB2E4E2CFCF93DF93CDB7DEB7A897F6
:100EF0000FB6F894DEBF0FBECDBFDC01ED91FC91C3
:100F00000084F185E02DBE016F5F7F4F099565EC90
:100F100073E084E891E00E94C00A66EB73E084E825
:100F200091E00E94910ABE016F5F7F4F84E891E0DB
:100F30000E94D20A67EA73E084E891E00E94910A75
:100F4000ED89FE893197EF31F10508F029C0E555AB
:100F5000F84F0C94CD11CA073308360839083C08FD
:100F60003F08D0074208450848084B084E0851087A
:100F7000540857085A085D0860086308660869083D
:100F80006C086F087208750878087B087E0881086D
:100F90008408870863E973E084E891E00E94910A7D
:100FA00084E891E00E94BC0A6AEC70E084E891E079
:100FB0000E94910A4D855E856F8578892AE030E030
:100FC00084E891E00E947D0B6BEB70E084E891E097
:100FD0000E94910A49895A896B897C892AE030E00C
:100FE00084E891E00E947D0B6CEA70E084E891E077
:100FF0000E94910A4D8D5E8D6F8D78A122E030E0C8
:1010000084E891E00E94860C6DE970E084E891E04C
:101010000E94910A498D5A8D6B8D7C8D22E030E0C3
:1010200084E891E00E94860C6EE870E084E891E02C
:101030000E94910A49A15AA16BA17CA122E030E053
:1010400084E891E00E94860C68E670E084E891E014
:101050000E94C00AA8960FB6F894DEBF0FBECDBF9F
:10106000DF91CF91089565E873E096CF6FE673E066
:1010700093CF6CE573E090CF60E573E08DCF61E4D2
:1010800073E08ACF63E373E087CF64E273E084CFD9
:1010900069E073E081CF69EF72E07ECF63EE72E0CA
:1010A0007BCF62ED72E078CF62EC72E075CF66EBD9
:1010B00072E072CF69EA72E06FCF6CE972E06CCFD8
:1010C00065E772E069CF62E572E066CF6AE372E0DD
:1010D00063CF65E272E060CF66E072E05DCF60EE04
:1010E00071E05ACF6AEB71E057CF63E971E054CFFA
:1010F00068E671E051CF6DE371E04ECF61E171E0E0
:101100004BCF6BEF70E048CF66EE70E045CF69EDF6
:1011100070E042CFFC01918D228D892F90E0805CA0
:101120009F4F821B91098F7399270895FC01918D20
:10113000828D981731F0828DE80FF11D858D90E03A
:1011400008958FEF9FEF0895FC01918D828D981780
:1011500061F0A28DAE0FBF2FB11D5D968C91928D67
:101160009F5F9F73928F90E008958FEF9FEF089598
:10117000FC01538D448D252F30E0842F90E0821B9D
:10118000930B541710F0CF960895019708958EE1B0
:101190009AE0892B49F080E090E0892B29F00E94A9
:1011A0001E0A81110C9400000895FC01A48DA80F63
:1011B000B92FB11DA35ABF4F2C91848D90E0019699
:1011C0008F739927848FA689B7892C93A089B189B9
:1011D0008C91837080648C93938D848D981306C05A
:1011E0000288F389E02D80818F7D80830895CF93DD
:1011F000DF93EC01888D8823B9F0AA89BB89E8893F
:10120000F9898C9185FD03C0808186FD0DC00FB6E4
:1012100007FCF7CF8C9185FFF2CF808185FFEDCF62
:10122000CE010E94D508E9CFDF91CF910895EF92CA
:10123000FF920F931F93CF93DF93EC0181E0888F90
:101240009B8D8C8D98131AC0E889F989808185FF60
:1012500015C09FB7F894EE89FF896083E889F98902
:1012600080818370806480839FBF81E090E0DF9104
:10127000CF911F910F91FF90EF900895F62E0B8D57
:1012800010E00F5F1F4F0F731127E02E8C8D8E1112
:101290000CC00FB607FCFACFE889F989808185FF79
:1012A000F5CFCE010E94D508F1CFEB8DEC0FFD2FCD
:1012B000F11DE35AFF4FF0829FB7F8940B8FEA8934
:1012C000FB8980818062CFCFCF92DF92EF92FF9235
:1012D0001F93CF93DF93EC016A017B01122FE88902
:1012E000F98982E08083C11481EED806E104F1041B
:1012F000A1F060E079E08DE390E0A70196010E9403
:10130000AB1121503109410951095695479537953F
:101310002795211580E1380798F0E889F98910822E
:1013200060E874E88EE190E0A70196010E94AB119D
:10133000215031094109510956954795379527950F
:10134000EC85FD853083EE85FF852083188EEC8942
:10135000FD891083EA89FB89808180618083EA8925
:10136000FB89808188608083EA89FB89808180682D
:101370008083EA89FB8980818F7D8083DF91CF9193
:101380001F91FF90EF90DF90CF9008951F920F92E2
:101390000FB60F9211242F938F939F93EF93FF9388
:1013A000E0919401F09195018081E0919A01F09192
:1013B0009B0182FD1BC0908180919D018F5F8F7387
:1013C00020919E01821741F0E0919D01F0E0EC57E1
:1013D000FE4F958F80939D01FF91EF919F918F918B
:1013E0002F910F900FBE0F901F9018958081F4CF12
:1013F0001F920F920FB60F9211242F933F934F938A
:101400005F936F937F938F939F93AF93BF93EF936C
:10141000FF9384E891E00E94D508FF91EF91BF917E
:10142000AF919F918F917F916F915F914F913F917C
:101430002F910F900FBE0F901F90189584E891E0A8
:101440000E948A0821E0892B09F420E0822F089568
:10145000E4E8F1E01382128288EE93E0A0E0B0E0CD
:1014600084839583A683B78382E591E0918380830B
:1014700085EC90E09587848784EC90E09787868759
:1014800080EC90E0918B808B81EC90E0938B828B51
:1014900082EC90E0958B848B86EC90E0978B868B2A
:1014A000118E128E138E148E0895AF92BF92CF922A
:1014B000DF92EF92FF920F931F93CF93DF936C0114
:1014C0007B018B01040F151FEB015E01AE18BF08F5
:1014D000C017D10759F06991D601ED91FC910190A7
:1014E000F081E02DC6010995892B79F7C501DF91BF
:1014F000CF911F910F91FF90EF90DF90CF90BF9011
:10150000AF900895FB0101900020E9F73197AF01FA
:10151000461B570BDC01ED91FC910280F381E02D1D
:101520000994EF92FF920F931F93CF93DF938C0157
:101530007B01D0E0C0E0F701EC0FFD1F6491662352
:1015400061F0D801ED91FC910190F081E02DC8018E
:101550000995892B11F02196EECFCE01DF91CF9125
:101560001F910F91FF90EF900895DC01ED91FC9198
:101570000190F081E02D099463E271E00C94820AFD
:101580000F931F93CF93DF93EC010E94910A8C017C
:10159000CE010E94BC0A800F911FDF91CF911F9155
:1015A0000F9108950F931F93CF93DF938C01D0E099
:1015B000C0E06115710519F00E94820AEC01C801B2
:1015C0000E94BC0A8C0F9D1FDF91CF911F910F913C
:1015D00008958F929F92AF92BF92EF92FF920F93D6
:1015E0001F93CF93DF93CDB7DEB7A1970FB6F894D3
:1015F000DEBF0FBECDBF7C01FA01CB0119A22230A4
:1016000008F42AE08E010F5D1F4F822E912CB12C21
:10161000A12CBF01A50194010E94AB11F901CA01DF
:101620006A300CF5605DD8016E938D01232B242B5D
:10163000252B79F790E080E0109721F0BD01C701DC
:101640000E94820AA1960FB6F894DEBF0FBECDBFEE
:10165000DF91CF911F910F91FF90EF90BF90AF90CE
:101660009F908F900895695CDECFCF92DF92EF92CA
:10167000FF920F931F93CF93DF932115310581F4D0
:10168000DC01ED91FC910190F081E02D642FDF9160
:10169000CF911F910F91FF90EF90DF90CF90099421
:1016A0002A30310501F52AE077FF1DC06A017B0170
:1016B000EC016DE20E94B50A8C0144275527BA015E
:1016C0004C195D096E097F092AE0CE010E94E90AE2
:1016D000800F911FDF91CF911F910F91FF90EF909D
:1016E000DF90CF900895DF91CF911F910F91FF90E0
:1016F000EF90DF90CF900C94E90A0F931F93CF9354
:10170000DF93EC010E94350B8C01CE010E94BC0AD4
:10171000800F911FDF91CF911F910F910895211597
:10172000310541F4DC01ED91FC910190F081E02D57
:10173000642F09940C94E90A9A01AB0170E060E00F
:101740000C948F0B2F923F924F925F926F927F92E9
:101750008F929F92AF92BF92CF92DF92EF92FF92C1
:101760001F93CF93DF93EC016A017B01722EAB01D3
:101770009601CB01B6010E946F1066E271E0811103
:1017800026C046015701E894B7F82FEF3FEF4FE727
:101790005FE7C501B4010E946F1081110CC02FEFEB
:1017A0003FEF4FE75FE7C501B4010E94A50E6AE273
:1017B00071E0181664F02FEF3FEF4FE75FE4C701C9
:1017C000B6010E94FD0F1816B4F46EE271E0CE016E
:1017D000DF91CF911F91FF90EF90DF90CF90BF905E
:1017E000AF909F908F907F906F905F904F903F90C1
:1017F0002F900C94820A2FEF3FEF4FE75FECC70169
:10180000B6010E94A50E87FDE0CF20E030E0A901DF
:10181000C701B6010E94A50E312C212C87FF09C0FB
:101820006DE2CE010E94B50A1C01F7FAF094F7F8B8
:10183000F09410E060E070E080E09FE3711641F00A
:1018400020E030E040E251E40E94AA0E1F5FF6CF94
:10185000A70196010E94390E2B013C010E941C0F2A
:101860004B015C012AE0BC01A401CE010E94E90AFF
:101870007C01E20CF31C1123B1F1C501B4010E94FB
:101880004B0F9B01AC01C301B2010E94380E4B010A
:101890005C016EE2CE010E94B50AE80EF91E1150FD
:1018A00010F120E030E040E251E4C501B4010E94B3
:1018B00002102B013C010E941C0F4B014AE050E03A
:1018C000CE010E949C0BE80EF91EB40190E080E06E
:1018D0000E944B0F9B01AC01C301B2010E94380E64
:1018E0004B015C01DCCFC701DF91CF911F91FF90CD
:1018F000EF90DF90CF90BF90AF909F908F907F90B0
:101900006F905F904F903F902F9008950F931F938B
:10191000CF93DF93EC010E94A20B8C01CE010E94B9
:10192000BC0A800F911FDF91CF911F910F910895F5
:1019300008950E94690D0E94980C0E944E02C7EC07
:10194000D8E00E94AC022097E1F30E94C708F9CFCB
:101950000C9410111F920F920FB60F9211242F9317
:101960003F938F939F93AF93BF9380912202909167
:101970002302A0912402B09125023091210223E09C
:10198000230F2D3758F50196A11DB11D209321027B
:101990008093220290932302A0932402B093250205
:1019A0008091260290912702A0912802B0912902ED
:1019B0000196A11DB11D8093260290932702A0934A
:1019C0002802B0932902BF91AF919F918F913F91CF
:1019D0002F910F900FBE0F901F90189526E8230FA0
:1019E0000296A11DB11DD2CF2FB7F89460912202AB
:1019F0007091230280912402909125022FBF0895B7
:101A00003FB7F8948091260290912702A091280276
:101A1000B091290226B5A89B05C02F3F19F0019669
:101A2000A11DB11D3FBFBA2FA92F982F8827BC0138
:101A3000CD01620F711D811D911D42E0660F771F60
:101A4000881F991F4A95D1F708958F929F92AF9260
:101A5000BF92CF92DF92EF92FF926B017C010E94C6
:101A6000000D4B015C01C114D104E104F104E9F063
:101A70000E94370E0E94000D681979098A099B0996
:101A8000683E73408105910570F321E0C21AD108C8
:101A9000E108F10888EE880E83E0981EA11CB11CB5
:101AA000C114D104E104F10429F7FF90EF90DF9015
:101AB000CF90BF90AF909F908F9008958230910506
:101AC00038F0880F991F880F991F05970197F1F734
:101AD0000895789484B5826084BD84B5816084BDA6
:101AE00085B5826085BD85B5816085BDEEE6F0E097
:101AF000808181608083E1E8F0E0108280818260F3
:101B00008083808181608083E0E8F0E08081816073
:101B10008083E1EBF0E0808184608083E0EBF0E0A3
:101B2000808181608083EAE7F0E080818460808347
:101B300080818260808380818160808380818068F1
:101B400080831092C1000895833081F028F48130A1
:101B500099F08230A9F008958730A9F08830C9F053
:101B60008430B1F4809180008F7D03C0809180002B
:101B70008F7780938000089584B58F7784BD089512
:101B800084B58F7DFBCF8091B0008F778093B000BC
:101B900008958091B0008F7DF9CFCF93DF9390E0CF
:101BA000FC01E250FC4F24918E5E9B4FFC0184911E
:101BB0008823C9F090E0880F991FFC01E65CFB4F79
:101BC000A591B491FC01E05DFB4FC591D4916111E9
:101BD0000DC09FB7F8948C91209582238C938881B7
:101BE000282328839FBFDF91CF910895623051F45D
:101BF0009FB7F8943C91822F809583238C93E88142
:101C00002E2BEFCF8FB7F894EC912E2B2C938FBF08
:101C1000EACF1F93CF93DF93282F30E0F901E651ED
:101C2000FC4F8491F901E250FC4FD491F901EE5E32
:101C3000FB4FC491CC23A9F0162F81110E94A40D53
:101C4000EC2FF0E0EE0FFF1FE05DFB4FA591B4918C
:101C50008FB7F894EC91111108C0D095DE23DC9376
:101C60008FBFDF91CF911F910895DE2BF8CF08959C
:101C70005058BB27AA270E94500E0C94C30F0E94F5
:101C8000B50F38F00E94BC0F20F039F49F3F19F4D3
:101C900026F40C94B20F0EF4E095E7FB0C94AC0F15
:101CA000E92F0E94D40F58F3BA176207730784070D
:101CB000950720F079F4A6F50C94F60F0EF4E09554
:101CC0000B2EBA2FA02D0B01B90190010C01CA01F6
:101CD000A0011124FF27591B99F0593F50F4503EA1
:101CE00068F11A16F040A22F232F342F4427585F93
:101CF000F3CF469537952795A795F0405395C9F7AB
:101D00007EF41F16BA0B620B730B840BBAF0915062
:101D1000A1F0FF0FBB1F661F771F881FC2F70EC001
:101D2000BA0F621F731F841F48F4879577956795D4
:101D3000B795F7959E3F08F0B0CF9395880F08F0C0
:101D40009927EE0F9795879508950E94880F08F4BC
:101D500081E008950E94BE0E0C94C30F0E94BC0F38
:101D600058F00E94B50F40F029F45F3F29F00C9421
:101D7000AC0F51110C94F70F0C94B20F0E94D40FBA
:101D800068F39923B1F3552391F3951B550BBB27AA
:101D9000AA2762177307840738F09F5F5F4F220FEF
:101DA000331F441FAA1FA9F335D00E2E3AF0E0E8E6
:101DB00032D091505040E695001CCAF72BD0FE2F30
:101DC00029D0660F771F881FBB1F261737074807C4
:101DD000AB07B0E809F0BB0B802DBF01FF2793587C
:101DE0005F4F3AF09E3F510578F00C94AC0F0C9485
:101DF000F70F5F3FE4F3983ED4F3869577956795A8
:101E0000B795F7959F5FC9F7880F911D96958795B0
:101E100097F90895E1E0660F771F881FBB1F6217CF
:101E200073078407BA0720F0621B730B840BBA0B8D
:101E3000EE1F88F7E09508950E94DC0F88F09F5709
:101E400098F0B92F9927B751B0F0E1F0660F771FDE
:101E5000881F991F1AF0BA95C9F714C0B13091F0D4
:101E60000E94F60FB1E008950C94F60F672F782FBB
:101E70008827B85F39F0B93FCCF386957795679599
:101E8000B395D9F73EF490958095709561957F4F05
:101E90008F4F9F4F0895E89409C097FB3EF49095AB
:101EA0008095709561957F4F8F4F9F4F9923A9F033
:101EB000F92F96E9BB279395F695879577956795C2
:101EC000B795F111F8CFFAF4BB0F11F460FF1BC006
:101ED0006F5F7F4F8F4F9F4F16C0882311F096E999
:101EE00011C0772321F09EE8872F762F05C0662347
:101EF00071F096E8862F70E060E02AF09A95660F00
:101F0000771F881FDAF7880F9695879597F90895B8
:101F1000990F0008550FAA0BE0E8FEEF16161706FA
:101F2000E807F907C0F012161306E407F50798F062
:101F3000621B730B840B950B39F40A2661F0232B7B
:101F4000242B252B21F408950A2609F4A140A695F7
:101F50008FEF811D811D089597F99F6780E870E0DC
:101F600060E008959FEF80EC089500240A9416160F
:101F7000170618060906089500240A941216130677
:101F8000140605060895092E0394000C11F4882305
:101F900052F0BB0F40F4BF2B11F460FF04C06F5F21
:101FA0007F4F8F4F9F4F089557FD9058440F551FF7
:101FB00059F05F3F71F04795880F97FB991F61F0CB
:101FC0009F3F79F087950895121613061406551F42
:101FD000F2CF4695F1DF08C0161617061806991FAE
:101FE000F1CF86957105610508940895E894BB27A3
:101FF00066277727CB0197F908950E94880F08F488
:102000008FEF08950E9415100C94C30F0E94B50F16
:1020100038F00E94BC0F20F0952311F00C94AC0F07
:102020000C94B20F11240C94F70F0E94D40F70F38C
:10203000959FC1F3950F50E0551F629FF001729F6D
:10204000BB27F00DB11D639FAA27F00DB11DAA1F7C
:10205000649F6627B00DA11D661F829F2227B00DC9
:10206000A11D621F739FB00DA11D621F839FA00D54
:10207000611D221F749F3327A00D611D231F849FA4
:10208000600D211D822F762F6A2F11249F575040FB
:102090009AF0F1F088234AF0EE0FFF1FBB1F661F76
:1020A000771F881F91505040A9F79E3F510580F03F
:1020B0000C94AC0F0C94F70F5F3FE4F3983ED4F30D
:1020C000869577956795B795F795E7959F5FC1F7E3
:1020D000FE2B880F911D9695879597F908950E947C
:1020E000880F880B990B08950F931F93CF93DF935D
:1020F0008230910510F482E090E0E0912C02F091A2
:102100002D0230E020E0B0E0A0E0309799F42115F6
:10211000310509F44AC0281B390B24303105D8F5A4
:102120008A819B816115710589F1FB01938382830B
:10213000FE0111C040815181028113814817590766
:10214000E0F04817590799F4109761F012960C9334
:10215000129713961C933296CF01DF91CF911F9166
:102160000F91089500932C0210932D02F4CF2115A6
:10217000310551F04217530738F0A901DB019A01EC
:10218000BD01DF01F801C1CFEF01F9CF90932D021E
:1021900080932C02CDCFFE01E20FF31F8193919328
:1021A0002250310939832883D7CF20912A023091D8
:1021B0002B02232B41F42091020130910301309333
:1021C0002B0220932A022091000130910101211558
:1021D000310541F42DB73EB74091040150910501FE
:1021E000241B350BE0912A02F0912B02E217F30732
:1021F000A0F42E1B3F0B2817390778F0AC014E5F77
:102200005F4F2417350748F04E0F5F1F50932B0286
:1022100040932A02819391939FCFF0E0E0E09CCF1E
:10222000CF93DF930097E9F0FC013297138212827B
:10223000A0912C02B0912D02ED0130E020E010972A
:10224000A1F420813181820F931F20912A023091C5
:102250002B022817390709F061C0F0932B02E09395
:102260002A02DF91CF910895EA01CE17DF07E8F542
:102270004A815B819E0141155105B1F7E901FB835C
:10228000EA8349915991C40FD51FEC17FD0761F4FA
:10229000808191810296840F951FE901998388833B
:1022A000828193819B838A83F0E0E0E012968D9196
:1022B0009C9113970097B9F52D913C911197CD0101
:1022C0000296820F931F20912A0230912B02281729
:1022D000390739F6309751F510922D0210922C02E1
:1022E000B0932B02A0932A02BCCFD383C283408138
:1022F0005181840F951FC817D90761F44E5F5F4F56
:1023000088819981480F591F518340838A819B811D
:10231000938382832115310509F0B0CFF0932D020C
:10232000E0932C029ECFFD01DC01C0CF138212820C
:10233000D7CFF8940C94D311FB01DC0141505040ED
:1023400048F001900D920020C9F701C01D92415044
:102350005040E0F70895A1E21A2EAA1BBB1BFD0115
:102360000DC0AA1FBB1FEE1FFF1FA217B307E40774
:10237000F50720F0A21BB30BE40BF50B661F771FCC
:10238000881F991F1A9469F76095709580959095AC
:102390009B01AC01BD01CF010895EE0FFF1F059019
:0A23A000F491E02D0994F894FFCFAA
:1023AA0000002E0280004448543131004448543120
:1023BA0032004448543231004448543232004448CE
:1023CA00543F000D0A006E616E00696E66006F76FA
:1023DA006600000000006C05EA056A056D056606E0
:1023EA00000000006B05E8056A05AB05F70600006A
:1023FA0000001709550AB808F7088A08A4089608B9
:00000001FF
