:100000000C946C000C9494000C9494000C94940048
:100010000C9494000C9494000C9494000C94940010
:100020000C9494000C9494000C9494000C94940000
:100030000C9494000C9494000C9494000C949400F0
:100040000C944B070C9494000C94C4050C94F60586
:100050000C9494000C9494000C9494000C949400D0
:100060000C9468030C949400466F756E642030788D
:10007000005363616E6E696E67204932433A2053C4
:1000800044413D41342C2053434C3D413500000058
:100090000008000201000003040700000000000047
:1000A0000000010204081020408001020408102012
:1000B00001020408102004040404040404040202DD
:1000C00002020202030303030303000000002500F1
:1000D00028002B00BE01260611241FBECFEFD8E05A
:1000E000DEBFCDBF11E0A0E0B1E0E6E6F1E102C085
:1000F00005900D92A832B107D9F722E0A8E2B1E04D
:1001000001C01D92A839B207E1F710E0CCE6D0E0BB
:1001100004C02197FE010E94AB08CA36D107C9F777
:100120000E943C070C9486080C94000088E291E041
:100130000E948C0126E040E855E260E070E082EF2A
:1001400091E00C946205CF9361E770E082EF91E05B
:100150000E94B706C1E06C2F88E291E00E949E01E8
:1001600088E291E00E94BB0181110DC068E670E059
:1001700082EF91E00E948F0640E150E06C2F82EF09
:1001800091E00E942907CF5FCF3729F768EB7BE02A
:1001900080E090E0CF910C94BA0790E080E0089561
:1001A00080915C0190915D01891B990B089590915C
:1001B0005D0180915C012FEF3FEF981748F4E92F24
:1001C000F0E0E25AFE4F208130E09F5F90935D01A6
:1001D000C9010895E0915D0180915C01E81730F458
:1001E000F0E0E25AFE4F808190E008958FEF9FEF9C
:1001F00008950895CF93DF93EC01E0913401F091DD
:1002000035013097F1F090915D0180915C01981774
:10021000C0F090E0292F30E02617370754F4DE01B4
:10022000A20FB31F4C91225A3E4FD9014C939F5FAE
:10023000F1CF10925D0160935C01CB01DF91CF9112
:100240000994DF91CF910895E0913601F091370143
:10025000309729F010923A011092390109940895CB
:10026000CF93DF931F92CDB7DEB76983209138011A
:100270002223F9F020913901203258F021E030E0BA
:10028000FC013383228390E080E00F90DF91CF91D7
:10029000089580913A01E82FF0E0E55CFE4F9981E6
:1002A00090838F5F80933A018093390181E090E0E1
:1002B000ECCF61E0CE0101960E94FA01F7CFCF9218
:1002C000DF92EF92FF920F931F93CF93DF937C0106
:1002D000CB018A0120913801222389F0EB016B01C7
:1002E000C40ED51ECC15DD0569F06991D701ED91DD
:1002F000FC910190F081E02DC7010995F3CF642FA7
:100300000E94FA01C801DF91CF911F910F91FF90D8
:10031000EF90DF90CF90089510925D0110925C01F4
:1003200010923A01109239010E94CF0184E291E0CB
:100330000E9427028AEF90E00C94220281E08093D1
:10034000380160935B0110923A01109239010895CF
:100350000F93062F21E0409139016BE371E080910A
:100360005B010E94480210923A01109239011092EA
:1003700038010F91089561E00C94A801E8E2F1E0E2
:100380001382128288EE93E0A0E0B0E0848395832C
:10039000A683B78384E091E09183808308951092CF
:1003A000F10181E08093EF011092EE0161E082E1C2
:1003B0000E94570861E083E10E945708E9EBF0E0F2
:1003C00080818E7F808380818D7F808388E480938D
:1003D000B80085E48093BC000895ECEBF0E08081E8
:1003E0008A7B808360E082E10E94570860E083E1BD
:1003F0000C9457082091A001260F3327331F213278
:100400003105E4F42091F1012430D1F4FC0190E0B5
:1004100080E0861760F4A091A0012191AC014E55B7
:100420005E4FA40FB52FB11D2C930196F2CF809192
:10043000A001680F6093A00180E0089581E0089515
:1004400082E008959093E5018093E40108959093EC
:10045000E7018093E601089585EC8093BC0010923B
:10046000F1010895CF93DF9391E09093E901882300
:1004700061F0C091B800D091BA000E94ED010E94D5
:10048000CF01D093BA00C093B800DF91CF91089507
:100490004F925F926F927F928F929F92AF92BF9294
:1004A000EF92FF920F931F93CF93DF93C82FF62EF7
:1004B000E72E142FD22F81E0413260F50E9495077C
:1004C0004B015C018091F101882399F18091EA014F
:1004D0009091EB01A091EC01B091ED01892B8A2B59
:1004E0008B2B81F30E9495074090EA015090EB011D
:1004F0006090EC017090ED01681979098A099B09F7
:100500004616570668067906E8F68091E8010E94CB
:10051000320285E0DF91CF911F910F91FF90EF9014
:10052000BF90AF909F908F907F906F905F904F9013
:10053000089582E08093F1010093EF018FEF8093A3
:100540007E011092C3011093C2019F2DA4ECB1E073
:10055000EF2DFE2D8E2F891B811718F481918D931D
:10056000F9CF1092F0018091F001CC0FC82BC0930D
:10057000F0018091EE01813009F041C01092EE014E
:100580000E9495074B015C018091F0018093BB00B4
:100590008091EA019091EB01A091EC01B091ED0105
:1005A000892B8A2B8B2BB9F48091BC0083FDECCF77
:1005B00085EC8093BC000E9495074B015C01DD2314
:1005C00021F08091F1018230E1F080917E018F3F36
:1005D000C9F580E09FCF0E9495070091EA01109134
:1005E000EB012091EC013091ED01681979098A093C
:1005F0009B090617170728073907B0F686CF85EE3F
:10060000D8CF8091EA019091EB01A091EC01B091DB
:10061000ED01892B8A2B8B2B91F20E94950700917B
:10062000EA011091EB012091EC013091ED01681984
:1006300079098A099B09061717072807390708F05F
:10064000BECF63CF80917E01803231F080917E01F8
:10065000803321F084E05ECF82E05CCF83E05ACF2C
:1006600085ED8093BC008091EA019091EB01A0910F
:10067000EC01B091ED010796A11DB11D23E0B695E7
:10068000A795979587952A95D1F72091BC0024FFCF
:100690001CC04091EA015091EB016091EC01709116
:1006A000ED01452B462B472B81F30097A105B105A2
:1006B00041F02AE22A95F1F700C00197A109B1099A
:1006C000E4CF8091E8010C9432021092F101089578
:1006D0001F920F920FB60F9211242F933F934F93B7
:1006E0005F936F937F938F939F93AF93BF93EF939A
:1006F000FF938091B900887F803609F44CC008F0E0
:100700003FC0883209F4A8C018F5803109F49CC0B4
:10071000B8F4882309F4F9C0883009F495C0FF9132
:10072000EF91BF91AF919F918F917F916F915F9169
:100730004F913F912F910F900FBE0F901F901895E2
:10074000883109F489C0803251F780937E0115C049
:10075000803409F49EC048F48033B9F38833F9F645
:1007600080937E010E942C02DACF803509F485C087
:10077000883509F496C0883491F60E943003CFCFB3
:10078000883909F48CC038F5883729F050F4883658
:1007900011F0803721F683E08093F10110927F0100
:1007A00057C0883809F47BC0803919F0803809F0C7
:1007B000B6CF80917F01803208F071C0E0917F0157
:1007C00081E08E0F80937F018091BB00F0E0E058C4
:1007D000FE4F80833DC0803B39F0E0F4803A09F45D
:1007E00079C0883A09F09BCF84E08093F1011092A0
:1007F000A1011092A001E091E601F091E7010995B5
:100800008091A00181110FC081E08093A00110921E
:10081000A20109C0803C09F476C0883C09F473C089
:10082000883B09F07CCFE091A10181E08E0F80939D
:10083000A101F0E0EE55FE4F80818093BB009091C6
:10084000A1018091A00129C08091F0018093BB009B
:1008500085EC8093BC0063CF9091C3018091C2016D
:10086000981758F5E091C30181E08E0F8093C30182
:10087000F0E0EC53FE4F8081E9CFE091C30181E0CD
:100880008E0F8093C3018091BB00F0E0EC53FE4FCC
:1008900080839091C3018091C2019817C8F285E8C6
:1008A000D8CFE091C30181E08E0F8093C301809186
:1008B000BB00F0E0EC53FE4F80838091EF0181118B
:1008C0005CCF81E08093EE0184EA8093BC001092BB
:1008D000F10125CF0E942C0280917F01803230F4FB
:1008E000E0917F01F0E0E058FE4F108260917F01BF
:1008F00070E0E091E401F091E50180E891E0099574
:1009000010927F010CCF85ECE0CF10927E0135CFA5
:10091000FC01918D228D892F90E0805C9F4F821B7E
:1009200091098F7399270895FC01918D828D9817F5
:1009300031F0828DE80FF11D858D90E008958FEFE5
:100940009FEF0895FC01918D828D981761F0A28D23
:10095000AE0FBF2FB11D5D968C91928D9F5F9F73DF
:10096000928F90E008958FEF9FEF0895FC01538DD3
:10097000448D252F30E0842F90E0821B930B541779
:1009800010F0CF960895019708958CE196E0892B99
:1009900049F080E090E0892B29F00E941C0681112B
:1009A0000C9400000895FC01A48DA80FB92FB11D6F
:1009B000A35ABF4F2C91848D90E001968F73992795
:1009C000848FA689B7892C93A089B1898C91837073
:1009D00080648C93938D848D981306C00288F3896C
:1009E000E02D80818F7D80830895CF93DF93EC018C
:1009F000888D8823B9F0AA89BB89E889F9898C9107
:100A000085FD03C0808186FD0DC00FB607FCF7CFC2
:100A10008C9185FFF2CF808185FFEDCFCE010E94C2
:100A2000D304E9CFDF91CF910895EF92FF920F9316
:100A30001F93CF93DF93EC0181E0888F9B8D8C8D8A
:100A400098131AC0E889F989808185FF15C09FB77E
:100A5000F894EE89FF896083E889F9898081837041
:100A6000806480839FBF81E090E0DF91CF911F91F0
:100A70000F91FF90EF900895F62E0B8D10E00F5F11
:100A80001F4F0F731127E02E8C8D8E110CC00FB6E7
:100A900007FCFACFE889F989808185FFF5CFCE017F
:100AA0000E94D304F1CFEB8DEC0FFD2FF11DE35A23
:100AB000FF4FF0829FB7F8940B8FEA89FB89808102
:100AC0008062CFCFCF92DF92EF92FF921F93CF93AE
:100AD000DF93EC016A017B01122FE889F98982E03A
:100AE0008083C11481EED806E104F104A1F060E036
:100AF00079E08DE390E0A70196010E9489082150DA
:100B00003109410951095695479537952795211582
:100B100080E1380798F0E889F989108260E874E884
:100B20008EE190E0A70196010E94890821503109C9
:100B3000410951095695479537952795EC85FD85CF
:100B40003083EE85FF852083188EEC89FD89108324
:100B5000EA89FB89808180618083EA89FB898081C1
:100B600088608083EA89FB89808180688083EA8944
:100B7000FB8980818F7D8083DF91CF911F91FF90D2
:100B8000EF90DF90CF9008951F920F920FB60F92C3
:100B900011242F938F939F93EF93FF93E091020281
:100BA000F09103028081E0910802F091090282FD38
:100BB0001BC0908180910B028F5F8F7320910C027C
:100BC000821741F0E0910B02F0E0EE50FE4F958F5E
:100BD00080930B02FF91EF919F918F912F910F9036
:100BE0000FBE0F901F9018958081F4CF1F920F9227
:100BF0000FB60F9211242F933F934F935F936F93F0
:100C00007F938F939F93AF93BF93EF93FF9382EF65
:100C100091E00E94D304FF91EF91BF91AF919F911A
:100C20008F917F916F915F914F913F912F910F9095
:100C30000FBE0F901F90189582EF91E00E948804DC
:100C400021E0892B09F420E0822F0895E2EFF1E002
:100C50001382128288EE93E0A0E0B0E08483958353
:100C6000A683B78386E191E09183808385EC90E051
:100C70009587848784EC90E09787868780EC90E066
:100C8000918B808B81EC90E0938B828B82EC90E057
:100C9000958B848B86EC90E0978B868B118E128ED1
:100CA000138E148E0895AF92BF92CF92DF92EF927F
:100CB000FF920F931F93CF93DF936C017B018B0106
:100CC000040F151FEB015E01AE18BF08C017D10756
:100CD00059F06991D601ED91FC910190F081E02DE0
:100CE000C6010995892B79F7C501DF91CF911F9135
:100CF0000F91FF90EF90DF90CF90BF90AF9008954D
:100D0000FB0101900020E9F73197AF01461B570B1B
:100D1000DC01ED91FC910280F381E02D0994EF92CA
:100D2000FF920F931F93CF93DF938C017B01D0E051
:100D3000C0E0F701EC0FFD1F6491662361F0D8015C
:100D4000ED91FC910190F081E02DC8010995892B6E
:100D500011F02196EECFCE01DF91CF911F910F912F
:100D6000FF90EF90089564E271E00C9480060F9379
:100D70001F93CF93DF93EC010E948F068C01CE016D
:100D80000E94B306800F911FDF91CF911F910F91A9
:100D900008958F929F92AF92BF92EF92FF920F931E
:100DA0001F93CF93DF93CDB7DEB7A1970FB6F8941B
:100DB000DEBF0FBECDBF7C01FA01CB0119A22230EC
:100DC00008F42AE08E010F5D1F4F822E912CB12C6A
:100DD000A12CBF01A50194010E948908F901CA0153
:100DE0006A300CF5605DD8016E938D01232B242BA6
:100DF000252B79F790E080E0109721F0BD01C70125
:100E00000E948006A1960FB6F894DEBF0FBECDBF3C
:100E1000DF91CF911F910F91FF90EF90BF90AF9016
:100E20009F908F900895695CDECF2115310541F4C4
:100E3000DC01ED91FC910190F081E02D642F09948B
:100E40000C94C9069A01462F50E070E060E00C94C3
:100E500015070F931F93CF93DF93EC010E94220796
:100E60008C01CE010E94B306800F911FDF91CF91BC
:100E70001F910F91089508950E94F3070E943B0768
:100E80000E949600C5ECD4E00E94A3002097E1F3F5
:100E90000E94C504F9CF1F920F920FB60F92112432
:100EA0002F933F938F939F93AF93BF938091900223
:100EB00090919102A0919202B091930230918F0291
:100EC00023E0230F2D3758F50196A11DB11D209366
:100ED0008F028093900290939102A0939202B0931C
:100EE00093028091940290919502A0919602B09104
:100EF00097020196A11DB11D8093940290939502D3
:100F0000A0939602B0939702BF91AF919F918F915A
:100F10003F912F910F900FBE0F901F90189526E8CC
:100F2000230F0296A11DB11DD2CF3FB7F894809137
:100F3000940290919502A0919602B091970226B5E5
:100F4000A89B05C02F3F19F00196A11DB11D3FBF01
:100F5000BA2FA92F982F8827BC01CD01620F711DD0
:100F6000811D911D42E0660F771F881F991F4A95CA
:100F7000D1F708958F929F92AF92BF92CF92DF9256
:100F8000EF92FF926B017C010E9495074B015C017F
:100F9000C114D104E104F104E9F00E9485080E9423
:100FA0009507681979098A099B09683E734081058C
:100FB000910570F321E0C21AD108E108F10888EE2A
:100FC000880E83E0981EA11CB11CC114D104E10459
:100FD000F10429F7FF90EF90DF90CF90BF90AF9092
:100FE0009F908F900895789484B5826084BD84B575
:100FF000816084BD85B5826085BD85B5816085BD14
:10100000EEE6F0E0808181608083E1E8F0E010822C
:10101000808182608083808181608083E0E8F0E06D
:10102000808181608083E1EBF0E080818460808357
:10103000E0EBF0E0808181608083EAE7F0E080818E
:1010400084608083808182608083808181608083EE
:101050008081806880831092C1000895833081F080
:1010600028F4813099F08230A9F008958730A9F0F2
:101070008830C9F08430B1F4809180008F7D03C046
:10108000809180008F7780938000089584B58F775A
:1010900084BD089584B58F7DFBCF8091B0008F779C
:1010A0008093B00008958091B0008F7DF9CF1F9399
:1010B000CF93DF93282F30E0F901E257FF4F84915F
:1010C000F901EE55FF4FD491F901EA54FF4FC49155
:1010D000CC23A9F0162F81110E942E08EC2FF0E0EE
:1010E000EE0FFF1FE653FF4FA591B4918FB7F89411
:1010F000EC91111108C0D095DE23DC938FBFDF91F6
:10110000CF911F910895DE2BF8CF0895F8940C9499
:10111000B108A1E21A2EAA1BBB1BFD010DC0AA1F1C
:10112000BB1FEE1FFF1FA217B307E407F50720F050
:10113000A21BB30BE40BF50B661F771F881F991FCB
:101140001A9469F760957095809590959B01AC0114
:10115000BD01CF010895EE0FFF1F0590F491E02D22
:061160000994F894FFCF92
:101166000000000030015F01CD00F900D000D7007B
:10117600EA000000000015055306B604F5048804CD
:08118600A20494040D0A00000C
:00000001FF
